{
  "_format": "hh3-artifact-1",
  "contractName": "MockVerifier",
  "sourceName": "contracts/0g/MockVerifier.sol",
  "abi": [
    {
      "inputs": [
        {
          "components": [
            {
              "components": [
                {
                  "internalType": "bytes32",
                  "name": "dataHash",
                  "type": "bytes32"
                },
                {
                  "internalType": "bytes",
                  "name": "targetPubkey",
                  "type": "bytes"
                },
                {
                  "internalType": "bytes",
                  "name": "nonce",
                  "type": "bytes"
                },
                {
                  "internalType": "bytes",
                  "name": "proof",
                  "type": "bytes"
                }
              ],
              "internalType": "struct AccessProof",
              "name": "accessProof",
              "type": "tuple"
            },
            {
              "components": [
                {
                  "internalType": "enum OracleType",
                  "name": "oracleType",
                  "type": "uint8"
                },
                {
                  "internalType": "bytes32",
                  "name": "dataHash",
                  "type": "bytes32"
                },
                {
                  "internalType": "bytes",
                  "name": "sealedKey",
                  "type": "bytes"
                },
                {
                  "internalType": "bytes",
                  "name": "targetPubkey",
                  "type": "bytes"
                },
                {
                  "internalType": "bytes",
                  "name": "nonce",
                  "type": "bytes"
                },
                {
                  "internalType": "bytes",
                  "name": "proof",
                  "type": "bytes"
                }
              ],
              "internalType": "struct OwnershipProof",
              "name": "ownershipProof",
              "type": "tuple"
            }
          ],
          "internalType": "struct TransferValidityProof[]",
          "name": "proofs",
          "type": "tuple[]"
        }
      ],
      "name": "verifyTransferValidity",
      "outputs": [
        {
          "components": [
            {
              "internalType": "bytes32",
              "name": "dataHash",
              "type": "bytes32"
            },
            {
              "internalType": "bytes",
              "name": "sealedKey",
              "type": "bytes"
            },
            {
              "internalType": "bytes",
              "name": "targetPubkey",
              "type": "bytes"
            },
            {
              "internalType": "bytes",
              "name": "wantedKey",
              "type": "bytes"
            },
            {
              "internalType": "address",
              "name": "accessAssistant",
              "type": "address"
            },
            {
              "internalType": "bytes",
              "name": "accessProofNonce",
              "type": "bytes"
            },
            {
              "internalType": "bytes",
              "name": "ownershipProofNonce",
              "type": "bytes"
            }
          ],
          "internalType": "struct TransferValidityProofOutput[]",
          "name": "",
          "type": "tuple[]"
        }
      ],
      "stateMutability": "pure",
      "type": "function"
    }
  ],
  "bytecode": "0x608080604052346015576104df908161001a8239f35b5f80fdfe60806040526004361015610011575f80fd5b5f3560e01c634ca5fd6914610024575f80fd5b346103275760203660031901126103275760043567ffffffffffffffff8111610327573660238201121561032757806004013567ffffffffffffffff8111610327576024820191602436918360051b0101116103275761008b610086826103a9565b610383565b81815290601f1961009b826103a9565b015f5b8181106102e65750505f5b81811061019157826040518091602082016020835281518091526040830190602060408260051b8601019301915f905b8282106100e857505050500390f35b919360019193955060206101818192603f198a82030186528851908151815260c061017061014d61013b6101298887015160e08a88015260e087019061032b565b6040870151868203604088015261032b565b6060860151858203606087015261032b565b888060a01b03608086015116608085015260a085015184820360a086015261032b565b9201519060c081840391015261032b565b96019201920185949391926100d9565b61019c8183866103c1565b806101a6916103f7565b356101b28284876103c1565b602081016101bf9161040c565b604081016101cc91610421565b9086856101da8682846103c1565b602081016101e79161040c565b606081016101f491610421565b906102008884866103c1565b8061020a916103f7565b6020810161021791610421565b919092896102268187896103c1565b80610230916103f7565b6040810161023d91610421565b966102499291986103c1565b602081016102569161040c565b6080810161026391610421565b97909861026e61034f565b9a8b52369061027c92610454565b60208a0152369061028c92610454565b6040880152369061029c92610454565b6060860152608085015f905236906102b392610454565b60a084015236906102c392610454565b60c08201526102d28285610495565b526102dd8184610495565b506001016100a9565b6020906102f161034f565b5f8152606083820152606060408201526060808201525f6080820152606060a0820152606060c08201528282870101520161009e565b5f80fd5b805180835260209291819084018484015e5f828201840152601f01601f1916010190565b6040519060e0820182811067ffffffffffffffff82111761036f57604052565b634e487b7160e01b5f52604160045260245ffd5b6040519190601f01601f1916820167ffffffffffffffff81118382101761036f57604052565b67ffffffffffffffff811161036f5760051b60200190565b91908110156103e35760051b81013590603e1981360301821215610327570190565b634e487b7160e01b5f52603260045260245ffd5b903590607e1981360301821215610327570190565b90359060be1981360301821215610327570190565b903590601e1981360301821215610327570180359067ffffffffffffffff82116103275760200191813603831361032757565b92919267ffffffffffffffff821161036f57610479601f8301601f1916602001610383565b938285528282011161032757815f926020928387013784010152565b80518210156103e35760209160051b01019056fea2646970667358221220e0e82f5c7e7624140be13cfeb75fba81d9744168798361a6cbdb9d0c07d16e9864736f6c634300081c0033",
  "linkReferences": {},
  "deployedLinkReferences": {},
  "immutableReferences": {},
  "inputSourceName": "project/contracts/0g/MockVerifier.sol",
  "buildInfoId": "solc-0_8_28-00bc9c936f898c5d8f8ee0f61253b6b9890047f4"
}