{
  "_format": "hh3-artifact-1",
  "contractName": "ZeroGClaw",
  "sourceName": "contracts/0g/ZeroGClaw.sol",
  "abi": [
    {
      "inputs": [
        {
          "internalType": "address",
          "name": "_verifier",
          "type": "address"
        }
      ],
      "stateMutability": "nonpayable",
      "type": "constructor"
    },
    {
      "inputs": [
        {
          "internalType": "address",
          "name": "sender",
          "type": "address"
        },
        {
          "internalType": "uint256",
          "name": "tokenId",
          "type": "uint256"
        },
        {
          "internalType": "address",
          "name": "owner",
          "type": "address"
        }
      ],
      "name": "ERC721IncorrectOwner",
      "type": "error"
    },
    {
      "inputs": [
        {
          "internalType": "address",
          "name": "operator",
          "type": "address"
        },
        {
          "internalType": "uint256",
          "name": "tokenId",
          "type": "uint256"
        }
      ],
      "name": "ERC721InsufficientApproval",
      "type": "error"
    },
    {
      "inputs": [
        {
          "internalType": "address",
          "name": "approver",
          "type": "address"
        }
      ],
      "name": "ERC721InvalidApprover",
      "type": "error"
    },
    {
      "inputs": [
        {
          "internalType": "address",
          "name": "operator",
          "type": "address"
        }
      ],
      "name": "ERC721InvalidOperator",
      "type": "error"
    },
    {
      "inputs": [
        {
          "internalType": "address",
          "name": "owner",
          "type": "address"
        }
      ],
      "name": "ERC721InvalidOwner",
      "type": "error"
    },
    {
      "inputs": [
        {
          "internalType": "address",
          "name": "receiver",
          "type": "address"
        }
      ],
      "name": "ERC721InvalidReceiver",
      "type": "error"
    },
    {
      "inputs": [
        {
          "internalType": "address",
          "name": "sender",
          "type": "address"
        }
      ],
      "name": "ERC721InvalidSender",
      "type": "error"
    },
    {
      "inputs": [
        {
          "internalType": "uint256",
          "name": "tokenId",
          "type": "uint256"
        }
      ],
      "name": "ERC721NonexistentToken",
      "type": "error"
    },
    {
      "inputs": [
        {
          "internalType": "address",
          "name": "owner",
          "type": "address"
        }
      ],
      "name": "OwnableInvalidOwner",
      "type": "error"
    },
    {
      "inputs": [
        {
          "internalType": "address",
          "name": "account",
          "type": "address"
        }
      ],
      "name": "OwnableUnauthorizedAccount",
      "type": "error"
    },
    {
      "anonymous": false,
      "inputs": [
        {
          "indexed": true,
          "internalType": "uint256",
          "name": "tokenId",
          "type": "uint256"
        },
        {
          "indexed": true,
          "internalType": "address",
          "name": "owner",
          "type": "address"
        },
        {
          "indexed": false,
          "internalType": "string",
          "name": "botId",
          "type": "string"
        }
      ],
      "name": "AgentMinted",
      "type": "event"
    },
    {
      "anonymous": false,
      "inputs": [
        {
          "indexed": true,
          "internalType": "address",
          "name": "owner",
          "type": "address"
        },
        {
          "indexed": true,
          "internalType": "address",
          "name": "approved",
          "type": "address"
        },
        {
          "indexed": true,
          "internalType": "uint256",
          "name": "tokenId",
          "type": "uint256"
        }
      ],
      "name": "Approval",
      "type": "event"
    },
    {
      "anonymous": false,
      "inputs": [
        {
          "indexed": true,
          "internalType": "address",
          "name": "owner",
          "type": "address"
        },
        {
          "indexed": true,
          "internalType": "address",
          "name": "operator",
          "type": "address"
        },
        {
          "indexed": false,
          "internalType": "bool",
          "name": "approved",
          "type": "bool"
        }
      ],
      "name": "ApprovalForAll",
      "type": "event"
    },
    {
      "anonymous": false,
      "inputs": [
        {
          "indexed": true,
          "internalType": "address",
          "name": "from",
          "type": "address"
        },
        {
          "indexed": true,
          "internalType": "address",
          "name": "to",
          "type": "address"
        },
        {
          "indexed": true,
          "internalType": "uint256",
          "name": "tokenId",
          "type": "uint256"
        }
      ],
      "name": "Authorization",
      "type": "event"
    },
    {
      "anonymous": false,
      "inputs": [
        {
          "indexed": true,
          "internalType": "address",
          "name": "from",
          "type": "address"
        },
        {
          "indexed": true,
          "internalType": "address",
          "name": "to",
          "type": "address"
        },
        {
          "indexed": true,
          "internalType": "uint256",
          "name": "tokenId",
          "type": "uint256"
        }
      ],
      "name": "AuthorizationRevoked",
      "type": "event"
    },
    {
      "anonymous": false,
      "inputs": [
        {
          "indexed": true,
          "internalType": "uint256",
          "name": "tokenId",
          "type": "uint256"
        },
        {
          "indexed": false,
          "internalType": "string",
          "name": "schedule",
          "type": "string"
        },
        {
          "indexed": false,
          "internalType": "string",
          "name": "prompt",
          "type": "string"
        }
      ],
      "name": "CronConfigured",
      "type": "event"
    },
    {
      "anonymous": false,
      "inputs": [
        {
          "indexed": true,
          "internalType": "uint256",
          "name": "tokenId",
          "type": "uint256"
        },
        {
          "indexed": false,
          "internalType": "uint256",
          "name": "executionCount",
          "type": "uint256"
        }
      ],
      "name": "CronExecuted",
      "type": "event"
    },
    {
      "anonymous": false,
      "inputs": [
        {
          "indexed": true,
          "internalType": "uint256",
          "name": "tokenId",
          "type": "uint256"
        },
        {
          "indexed": false,
          "internalType": "bool",
          "name": "enabled",
          "type": "bool"
        }
      ],
      "name": "CronToggled",
      "type": "event"
    },
    {
      "anonymous": false,
      "inputs": [
        {
          "indexed": true,
          "internalType": "uint256",
          "name": "tokenId",
          "type": "uint256"
        },
        {
          "indexed": false,
          "internalType": "address",
          "name": "executor",
          "type": "address"
        }
      ],
      "name": "ExecutorSet",
      "type": "event"
    },
    {
      "anonymous": false,
      "inputs": [
        {
          "indexed": true,
          "internalType": "address",
          "name": "previousOwner",
          "type": "address"
        },
        {
          "indexed": true,
          "internalType": "address",
          "name": "newOwner",
          "type": "address"
        }
      ],
      "name": "OwnershipTransferred",
      "type": "event"
    },
    {
      "anonymous": false,
      "inputs": [
        {
          "indexed": true,
          "internalType": "address",
          "name": "from",
          "type": "address"
        },
        {
          "indexed": true,
          "internalType": "address",
          "name": "to",
          "type": "address"
        },
        {
          "indexed": true,
          "internalType": "uint256",
          "name": "tokenId",
          "type": "uint256"
        }
      ],
      "name": "Transfer",
      "type": "event"
    },
    {
      "anonymous": false,
      "inputs": [
        {
          "indexed": true,
          "internalType": "uint256",
          "name": "tokenId",
          "type": "uint256"
        },
        {
          "components": [
            {
              "internalType": "string",
              "name": "dataDescription",
              "type": "string"
            },
            {
              "internalType": "bytes32",
              "name": "dataHash",
              "type": "bytes32"
            }
          ],
          "indexed": false,
          "internalType": "struct IntelligentData[]",
          "name": "oldDatas",
          "type": "tuple[]"
        },
        {
          "components": [
            {
              "internalType": "string",
              "name": "dataDescription",
              "type": "string"
            },
            {
              "internalType": "bytes32",
              "name": "dataHash",
              "type": "bytes32"
            }
          ],
          "indexed": false,
          "internalType": "struct IntelligentData[]",
          "name": "newDatas",
          "type": "tuple[]"
        }
      ],
      "name": "Updated",
      "type": "event"
    },
    {
      "anonymous": false,
      "inputs": [
        {
          "indexed": true,
          "internalType": "uint256",
          "name": "tokenId",
          "type": "uint256"
        }
      ],
      "name": "X402EndpointsUpdated",
      "type": "event"
    },
    {
      "anonymous": false,
      "inputs": [
        {
          "indexed": true,
          "internalType": "uint256",
          "name": "tokenId",
          "type": "uint256"
        },
        {
          "indexed": false,
          "internalType": "address",
          "name": "wallet",
          "type": "address"
        }
      ],
      "name": "X402WalletSet",
      "type": "event"
    },
    {
      "inputs": [
        {
          "internalType": "address",
          "name": "to",
          "type": "address"
        },
        {
          "internalType": "uint256",
          "name": "tokenId",
          "type": "uint256"
        }
      ],
      "name": "approve",
      "outputs": [],
      "stateMutability": "nonpayable",
      "type": "function"
    },
    {
      "inputs": [
        {
          "internalType": "uint256",
          "name": "tokenId",
          "type": "uint256"
        },
        {
          "internalType": "address",
          "name": "user",
          "type": "address"
        }
      ],
      "name": "authorizeUsage",
      "outputs": [],
      "stateMutability": "nonpayable",
      "type": "function"
    },
    {
      "inputs": [
        {
          "internalType": "address",
          "name": "owner",
          "type": "address"
        }
      ],
      "name": "balanceOf",
      "outputs": [
        {
          "internalType": "uint256",
          "name": "",
          "type": "uint256"
        }
      ],
      "stateMutability": "view",
      "type": "function"
    },
    {
      "inputs": [
        {
          "internalType": "uint256",
          "name": "tokenId",
          "type": "uint256"
        }
      ],
      "name": "getAgentProfile",
      "outputs": [
        {
          "components": [
            {
              "internalType": "string",
              "name": "botId",
              "type": "string"
            },
            {
              "internalType": "string",
              "name": "domainTags",
              "type": "string"
            },
            {
              "internalType": "string",
              "name": "serviceOfferings",
              "type": "string"
            },
            {
              "internalType": "uint256",
              "name": "createdAt",
              "type": "uint256"
            },
            {
              "internalType": "uint256",
              "name": "updatedAt",
              "type": "uint256"
            },
            {
              "internalType": "string",
              "name": "cronSchedule",
              "type": "string"
            },
            {
              "internalType": "string",
              "name": "cronPrompt",
              "type": "string"
            },
            {
              "internalType": "bool",
              "name": "cronEnabled",
              "type": "bool"
            },
            {
              "internalType": "address",
              "name": "executor",
              "type": "address"
            },
            {
              "internalType": "uint256",
              "name": "lastExecution",
              "type": "uint256"
            },
            {
              "internalType": "uint256",
              "name": "executionCount",
              "type": "uint256"
            },
            {
              "internalType": "address",
              "name": "x402Wallet",
              "type": "address"
            }
          ],
          "internalType": "struct ZeroGClaw.AgentProfile",
          "name": "",
          "type": "tuple"
        }
      ],
      "stateMutability": "view",
      "type": "function"
    },
    {
      "inputs": [
        {
          "internalType": "uint256",
          "name": "tokenId",
          "type": "uint256"
        }
      ],
      "name": "getApproved",
      "outputs": [
        {
          "internalType": "address",
          "name": "",
          "type": "address"
        }
      ],
      "stateMutability": "view",
      "type": "function"
    },
    {
      "inputs": [
        {
          "internalType": "uint256",
          "name": "tokenId",
          "type": "uint256"
        }
      ],
      "name": "getX402Endpoints",
      "outputs": [
        {
          "internalType": "string[]",
          "name": "",
          "type": "string[]"
        }
      ],
      "stateMutability": "view",
      "type": "function"
    },
    {
      "inputs": [
        {
          "internalType": "address",
          "name": "from",
          "type": "address"
        },
        {
          "internalType": "address",
          "name": "to",
          "type": "address"
        },
        {
          "internalType": "uint256",
          "name": "tokenId",
          "type": "uint256"
        },
        {
          "components": [
            {
              "components": [
                {
                  "internalType": "bytes32",
                  "name": "dataHash",
                  "type": "bytes32"
                },
                {
                  "internalType": "bytes",
                  "name": "targetPubkey",
                  "type": "bytes"
                },
                {
                  "internalType": "bytes",
                  "name": "nonce",
                  "type": "bytes"
                },
                {
                  "internalType": "bytes",
                  "name": "proof",
                  "type": "bytes"
                }
              ],
              "internalType": "struct AccessProof",
              "name": "accessProof",
              "type": "tuple"
            },
            {
              "components": [
                {
                  "internalType": "enum OracleType",
                  "name": "oracleType",
                  "type": "uint8"
                },
                {
                  "internalType": "bytes32",
                  "name": "dataHash",
                  "type": "bytes32"
                },
                {
                  "internalType": "bytes",
                  "name": "sealedKey",
                  "type": "bytes"
                },
                {
                  "internalType": "bytes",
                  "name": "targetPubkey",
                  "type": "bytes"
                },
                {
                  "internalType": "bytes",
                  "name": "nonce",
                  "type": "bytes"
                },
                {
                  "internalType": "bytes",
                  "name": "proof",
                  "type": "bytes"
                }
              ],
              "internalType": "struct OwnershipProof",
              "name": "ownershipProof",
              "type": "tuple"
            }
          ],
          "internalType": "struct TransferValidityProof[]",
          "name": "proofs",
          "type": "tuple[]"
        }
      ],
      "name": "iTransferFrom",
      "outputs": [],
      "stateMutability": "nonpayable",
      "type": "function"
    },
    {
      "inputs": [
        {
          "internalType": "uint256",
          "name": "tokenId",
          "type": "uint256"
        }
      ],
      "name": "intelligentDatasOf",
      "outputs": [
        {
          "components": [
            {
              "internalType": "string",
              "name": "dataDescription",
              "type": "string"
            },
            {
              "internalType": "bytes32",
              "name": "dataHash",
              "type": "bytes32"
            }
          ],
          "internalType": "struct IntelligentData[]",
          "name": "",
          "type": "tuple[]"
        }
      ],
      "stateMutability": "view",
      "type": "function"
    },
    {
      "inputs": [
        {
          "internalType": "address",
          "name": "owner",
          "type": "address"
        },
        {
          "internalType": "address",
          "name": "operator",
          "type": "address"
        }
      ],
      "name": "isApprovedForAll",
      "outputs": [
        {
          "internalType": "bool",
          "name": "",
          "type": "bool"
        }
      ],
      "stateMutability": "view",
      "type": "function"
    },
    {
      "inputs": [
        {
          "internalType": "uint256",
          "name": "tokenId",
          "type": "uint256"
        },
        {
          "internalType": "address",
          "name": "user",
          "type": "address"
        }
      ],
      "name": "isAuthorized",
      "outputs": [
        {
          "internalType": "bool",
          "name": "",
          "type": "bool"
        }
      ],
      "stateMutability": "view",
      "type": "function"
    },
    {
      "inputs": [
        {
          "internalType": "address",
          "name": "to",
          "type": "address"
        },
        {
          "internalType": "string",
          "name": "botId",
          "type": "string"
        },
        {
          "internalType": "string",
          "name": "domainTags",
          "type": "string"
        },
        {
          "internalType": "string",
          "name": "serviceOfferings",
          "type": "string"
        },
        {
          "components": [
            {
              "internalType": "string",
              "name": "dataDescription",
              "type": "string"
            },
            {
              "internalType": "bytes32",
              "name": "dataHash",
              "type": "bytes32"
            }
          ],
          "internalType": "struct IntelligentData[]",
          "name": "iDatas",
          "type": "tuple[]"
        }
      ],
      "name": "mintAgent",
      "outputs": [
        {
          "internalType": "uint256",
          "name": "",
          "type": "uint256"
        }
      ],
      "stateMutability": "nonpayable",
      "type": "function"
    },
    {
      "inputs": [],
      "name": "name",
      "outputs": [
        {
          "internalType": "string",
          "name": "",
          "type": "string"
        }
      ],
      "stateMutability": "view",
      "type": "function"
    },
    {
      "inputs": [],
      "name": "owner",
      "outputs": [
        {
          "internalType": "address",
          "name": "",
          "type": "address"
        }
      ],
      "stateMutability": "view",
      "type": "function"
    },
    {
      "inputs": [
        {
          "internalType": "uint256",
          "name": "tokenId",
          "type": "uint256"
        }
      ],
      "name": "ownerOf",
      "outputs": [
        {
          "internalType": "address",
          "name": "",
          "type": "address"
        }
      ],
      "stateMutability": "view",
      "type": "function"
    },
    {
      "inputs": [
        {
          "internalType": "uint256",
          "name": "tokenId",
          "type": "uint256"
        }
      ],
      "name": "recordExecution",
      "outputs": [],
      "stateMutability": "nonpayable",
      "type": "function"
    },
    {
      "inputs": [],
      "name": "renounceOwnership",
      "outputs": [],
      "stateMutability": "nonpayable",
      "type": "function"
    },
    {
      "inputs": [
        {
          "internalType": "uint256",
          "name": "tokenId",
          "type": "uint256"
        },
        {
          "internalType": "address",
          "name": "user",
          "type": "address"
        }
      ],
      "name": "revokeAuthorization",
      "outputs": [],
      "stateMutability": "nonpayable",
      "type": "function"
    },
    {
      "inputs": [
        {
          "internalType": "address",
          "name": "from",
          "type": "address"
        },
        {
          "internalType": "address",
          "name": "to",
          "type": "address"
        },
        {
          "internalType": "uint256",
          "name": "tokenId",
          "type": "uint256"
        }
      ],
      "name": "safeTransferFrom",
      "outputs": [],
      "stateMutability": "nonpayable",
      "type": "function"
    },
    {
      "inputs": [
        {
          "internalType": "address",
          "name": "from",
          "type": "address"
        },
        {
          "internalType": "address",
          "name": "to",
          "type": "address"
        },
        {
          "internalType": "uint256",
          "name": "tokenId",
          "type": "uint256"
        },
        {
          "internalType": "bytes",
          "name": "data",
          "type": "bytes"
        }
      ],
      "name": "safeTransferFrom",
      "outputs": [],
      "stateMutability": "nonpayable",
      "type": "function"
    },
    {
      "inputs": [
        {
          "internalType": "address",
          "name": "operator",
          "type": "address"
        },
        {
          "internalType": "bool",
          "name": "approved",
          "type": "bool"
        }
      ],
      "name": "setApprovalForAll",
      "outputs": [],
      "stateMutability": "nonpayable",
      "type": "function"
    },
    {
      "inputs": [
        {
          "internalType": "uint256",
          "name": "tokenId",
          "type": "uint256"
        },
        {
          "internalType": "string",
          "name": "schedule",
          "type": "string"
        },
        {
          "internalType": "string",
          "name": "prompt",
          "type": "string"
        }
      ],
      "name": "setCronConfig",
      "outputs": [],
      "stateMutability": "nonpayable",
      "type": "function"
    },
    {
      "inputs": [
        {
          "internalType": "uint256",
          "name": "tokenId",
          "type": "uint256"
        },
        {
          "internalType": "address",
          "name": "_executor",
          "type": "address"
        }
      ],
      "name": "setExecutor",
      "outputs": [],
      "stateMutability": "nonpayable",
      "type": "function"
    },
    {
      "inputs": [
        {
          "internalType": "uint256",
          "name": "tokenId",
          "type": "uint256"
        },
        {
          "internalType": "string[]",
          "name": "endpoints",
          "type": "string[]"
        }
      ],
      "name": "setX402Endpoints",
      "outputs": [],
      "stateMutability": "nonpayable",
      "type": "function"
    },
    {
      "inputs": [
        {
          "internalType": "uint256",
          "name": "tokenId",
          "type": "uint256"
        },
        {
          "internalType": "address",
          "name": "wallet",
          "type": "address"
        }
      ],
      "name": "setX402Wallet",
      "outputs": [],
      "stateMutability": "nonpayable",
      "type": "function"
    },
    {
      "inputs": [
        {
          "internalType": "bytes4",
          "name": "interfaceId",
          "type": "bytes4"
        }
      ],
      "name": "supportsInterface",
      "outputs": [
        {
          "internalType": "bool",
          "name": "",
          "type": "bool"
        }
      ],
      "stateMutability": "view",
      "type": "function"
    },
    {
      "inputs": [],
      "name": "symbol",
      "outputs": [
        {
          "internalType": "string",
          "name": "",
          "type": "string"
        }
      ],
      "stateMutability": "view",
      "type": "function"
    },
    {
      "inputs": [
        {
          "internalType": "uint256",
          "name": "tokenId",
          "type": "uint256"
        },
        {
          "internalType": "bool",
          "name": "enabled",
          "type": "bool"
        }
      ],
      "name": "toggleCron",
      "outputs": [],
      "stateMutability": "nonpayable",
      "type": "function"
    },
    {
      "inputs": [
        {
          "internalType": "uint256",
          "name": "tokenId",
          "type": "uint256"
        }
      ],
      "name": "tokenURI",
      "outputs": [
        {
          "internalType": "string",
          "name": "",
          "type": "string"
        }
      ],
      "stateMutability": "view",
      "type": "function"
    },
    {
      "inputs": [],
      "name": "totalMinted",
      "outputs": [
        {
          "internalType": "uint256",
          "name": "",
          "type": "uint256"
        }
      ],
      "stateMutability": "view",
      "type": "function"
    },
    {
      "inputs": [
        {
          "internalType": "address",
          "name": "from",
          "type": "address"
        },
        {
          "internalType": "address",
          "name": "to",
          "type": "address"
        },
        {
          "internalType": "uint256",
          "name": "tokenId",
          "type": "uint256"
        }
      ],
      "name": "transferFrom",
      "outputs": [],
      "stateMutability": "nonpayable",
      "type": "function"
    },
    {
      "inputs": [
        {
          "internalType": "address",
          "name": "newOwner",
          "type": "address"
        }
      ],
      "name": "transferOwnership",
      "outputs": [],
      "stateMutability": "nonpayable",
      "type": "function"
    },
    {
      "inputs": [
        {
          "internalType": "uint256",
          "name": "tokenId",
          "type": "uint256"
        },
        {
          "components": [
            {
              "internalType": "string",
              "name": "dataDescription",
              "type": "string"
            },
            {
              "internalType": "bytes32",
              "name": "dataHash",
              "type": "bytes32"
            }
          ],
          "internalType": "struct IntelligentData[]",
          "name": "newDatas",
          "type": "tuple[]"
        }
      ],
      "name": "updateData",
      "outputs": [],
      "stateMutability": "nonpayable",
      "type": "function"
    },
    {
      "inputs": [],
      "name": "verifier",
      "outputs": [
        {
          "internalType": "contract IERC7857DataVerifier",
          "name": "",
          "type": "address"
        }
      ],
      "stateMutability": "view",
      "type": "function"
    }
  ],
  "bytecode": "0x6080604052346103a057612dcf6020813803918261001c816103a4565b9384928339810103126103a057516001600160a01b038116908190036103a05761004660406103a4565b90600c82526b0c11d0db185dc81059d95b9d60a21b602083015261006a60406103a4565b60068152653047434c415760d01b602082015282519091906001600160401b0381116102b4575f54600181811c91168015610396575b602082101461029657601f8111610334575b506020601f82116001146102d357819293945f926102c8575b50508160011b915f199060031b1c1916175f555b81516001600160401b0381116102b457600154600181811c911680156102aa575b602082101461029657601f8111610233575b50602092601f82116001146101d257928192935f926101c7575b50508160011b915f199060031b1c1916176001555b33156101b45760068054336001600160a01b0319821681179092556040519291906001600160a01b03167f8be0079c531659141344cd1fd0a4f28419497f9722a3daafe3b4186f6b6457e05f80a36001600d55600780546001600160a01b031916919091179055612a0590816103ca8239f35b631e4fbdf760e01b5f525f60045260245ffd5b015190505f8061012c565b601f1982169360015f52805f20915f5b86811061021b5750836001959610610203575b505050811b01600155610141565b01515f1960f88460031b161c191690555f80806101f5565b919260206001819286850151815501940192016101e2565b60015f527fb10e2d527612073b26eecdfd717e6a320cf44b4afac2b0732d9fcbe2b7fa0cf6601f830160051c8101916020841061028c575b601f0160051c01905b8181106102815750610112565b5f8155600101610274565b909150819061026b565b634e487b7160e01b5f52602260045260245ffd5b90607f1690610100565b634e487b7160e01b5f52604160045260245ffd5b015190505f806100cb565b601f198216905f8052805f20915f5b81811061031c57509583600195969710610304575b505050811b015f556100df565b01515f1960f88460031b161c191690555f80806102f7565b9192602060018192868b0151815501940192016102e2565b5f80527f290decd9548b62a8d60345a988386fc84ba6bc95484008f6362f93160ef3e563601f830160051c8101916020841061038c575b601f0160051c01905b81811061038157506100b2565b5f8155600101610374565b909150819061036b565b90607f16906100a0565b5f80fd5b6040519190601f01601f191682016001600160401b038111838210176102b45760405256fe60806040526004361015610011575f80fd5b5f3560e01c806301e5ea3814611dc157806301ffc9a714611d2157806306fdde0314611c7f578063081812fc14611c43578063095ea7b314611b595780630e1a2de914611a6e57806323b872dd14611a5757806325160b23146119de5780632b7ac3f3146119b657806340fbd72f146118fa57806342842e0e146118cb578063609c6d7f146118825780636352211e146118525780636bba415c1461166c57806370a082311461161b578063715018a6146115c0578063755b5d78146114eb5780638da5cb5b146114c357806395d89b41146113f9578063a22cb46514611340578063a2309ff814611317578063a66ed2a614611224578063b88d4fde1461118f578063bc41807514610e4f578063c3612ef714610cd3578063c37874cb14610c47578063c87b56dd14610c10578063e985e9c514610bb9578063eafcbf9c1461062e578063f098a7ae146103e6578063f2fde38b14610360578063fa83d14e146102185763fbcf3c0214610184575f80fd5b34610214576040366003190112610214576004357f051897e597bf8d8719a60affc0108e7216ed64f188429273226fa3f1376d1ed260206101c3611f2e565b6101df6101cf8561277a565b6001600160a01b031633146120cf565b5f848152600b8352604090819020600a0180546001600160a01b0319166001600160a01b0393909316928317905551908152a2005b5f80fd5b3461021457604036600319011261021457600435610234611f2e565b6102406101cf8361277a565b815f52600960205260405f2060018060a01b0382165f5260205260ff60405f205416610326575f8281526009602090815260408083206001600160a01b03851684528252808320805460ff19166001179055848352600a90915290208054600160401b811015610312576102be816102e293600186940181556126a2565b81546001600160a01b0393841660039290921b91821b9390911b1916919091179055565b6001600160a01b0316337f8a1c60ca1a16acd72d841a74fa5905de3938132b0b2ff6cb385a7e69af345fc95f80a4005b634e487b7160e01b5f52604160045260245ffd5b60405162461bcd60e51b8152602060048201526012602482015271105b1c9958591e48185d5d1a1bdc9a5e995960721b6044820152606490fd5b3461021457602036600319011261021457610379611f18565b610381612872565b6001600160a01b031680156103d357600680546001600160a01b0319811683179091556001600160a01b03167f8be0079c531659141344cd1fd0a4f28419497f9722a3daafe3b4186f6b6457e05f80a3005b631e4fbdf760e01b5f525f60045260245ffd5b346102145760203660031901126102145760043560405161040681612077565b6060815260208101606090526040810160609052606081015f9052608081015f905260a081016060905260c081016060905260e081015f905261010081015f905261012081015f905261014081015f9052610160015f9052805f526002602052600160a01b6001900360405f2054161515610480906124de565b5f52600b60205260405f2060405161049781612077565b6104a08261226b565b81526104ae6001830161226b565b60208201908152916104c26002820161226b565b6040830190815260038201549160608401928352600481015460808501908152600582016104ef9061226b565b60a08601908152936105036006840161226b565b60c0870190815260078401549160e088019660ff841615158852610100890193600160a01b600190039060081c1684526008860154946101208a019586526009870154966101408b01978852600160a01b6001900390600a015416976101608b019889526040519b8c9b60208d525160208d0161018090526101a08d0161058991611ef4565b90518c8203601f190160408e01526105a19190611ef4565b90518b8203601f190160608d01526105b99190611ef4565b925160808b01525160a08a015251888203601f190160c08a01526105dd9190611ef4565b9051878203601f190160e08901526105f59190611ef4565b94511515610100870152516001600160a01b03908116610120870152905161014086015290516101608501529051166101808301520390f35b3461021457608036600319011261021457610647611f18565b61064f611f2e565b90604435906064356001600160401b03811161021457610673903690600401611ff9565b6106966106828594939461277a565b6001600160a01b03938416931683146120cf565b6001600160a01b03851615610b80578015610b4c579160018060a01b036007541690604051938491634ca5fd6960e01b8352816024840160206004860152526044830160448360051b85010192825f905b8282106109e557505050505091815f81819503925af19182156109da575f92610822575b508151835f52600860205260405f2054036107e6575f5b82518110156107975760208160051b8401015151845f526008602052600161074d8360405f206125ce565b5001540361075d57600101610722565b60405162461bcd60e51b8152602060048201526012602482015271088c2e8c240d0c2e6d040dad2e6dac2e8c6d60731b6044820152606490fd5b50826001600160a01b036107ab82876127ae565b1691826107c55750637e27328960e01b5f5260045260245ffd5b8083036107ce57005b6364283d7b60e01b5f5260045260245260445260645ffd5b60405162461bcd60e51b81526020600482015260146024820152730a0e4dedecc40c6deeadce840dad2e6dac2e8c6d60631b6044820152606490fd5b9091503d805f833e6108348183612093565b810190602081830312610214578051906001600160401b03821161021457019080601f830112156102145781519161086b83612521565b926108796040519485612093565b80845260208085019160051b830101918383116102145760208101915b8383106108a9575050505050908461070b565b82516001600160401b0381116102145782019060e0828703601f190112610214576040519060e082018281106001600160401b03821117610312576040526020830151825260408301516001600160401b0381116102145787602061091092860101612734565b602083015260608301516001600160401b0381116102145787602061093792860101612734565b604083015260808301516001600160401b0381116102145787602061095e92860101612734565b606083015260a08301516001600160a01b038116810361021457608083015260c08301516001600160401b0381116102145787602061099f92860101612734565b60a083015260e0830151916001600160401b038311610214576109ca88602080969581960101612734565b60c0820152815201920191610896565b6040513d5f823e3d90fd5b9193955091936043198982030185526109fe868361268e565b3681900391908035607e1984018112156102145781610a8691016040845280356040850152610a74610a69610a4a610a39602085018561265d565b608060608a015260c089019161224b565b610a57604085018561265d565b888303603f190160808a01529061224b565b91606081019061265d565b858303603f190160a08701529061224b565b9260208201359060be19018112156102145701906020818403910152803591600283101561021457610b3c602092839260019581528382013584820152610b2e610b23610b08610aed610adc604087018761265d565b60c0604088015260c087019161224b565b610afa606087018761265d565b90868303606088015261224b565b610b15608086018661265d565b90858303608087015261224b565b9260a081019061265d565b9160a081850391015261224b565b97019501920188959493916106e7565b60405162461bcd60e51b815260206004820152600c60248201526b456d7074792070726f6f667360a01b6044820152606490fd5b60405162461bcd60e51b8152602060048201526011602482015270125b9d985b1a59081c9958da5c1a595b9d607a1b6044820152606490fd5b3461021457604036600319011261021457610bd2611f18565b610bda611f2e565b9060018060a01b03165f52600560205260405f209060018060a01b03165f52602052602060ff60405f2054166040519015158152f35b3461021457602036600319011261021457610c43610c2f6004356126b7565b604051918291602083526020830190611ef4565b0390f35b34610214576040366003190112610214576004357f5a7f91ad5127433cb5cf0dad01983c2100378fe0ccfb87cf6c9f007816c84a046020610c86611f2e565b610c926101cf8561277a565b5f848152600b83526040908190206007018054610100600160a81b031916600884901b610100600160a81b0316179055516001600160a01b039091168152a2005b3461021457604036600319011261021457600435610cef611f2e565b610cfb6101cf8361277a565b815f52600960205260405f2060018060a01b0382165f52602052610d2560ff60405f20541661230b565b5f8281526009602090815260408083206001600160a01b0394909416808452938252808320805460ff19169055848352600a909152812091905b825480821015610e465782610d7483866126a2565b905460039190911b1c6001600160a01b031614610d945750600101610d5f565b9192915f19810191908211610e32576102be610db3610dcc93856126a2565b905460039190911b1c6001600160a01b031691846126a2565b80548015610e1e575f190190610de282826126a2565b81549060018060a01b039060031b1b19169055555b337fd1662978c81e15f621e7a38524048493c6e86d91a24a29619d164bef0a8d0a985f80a4005b634e487b7160e01b5f52603160045260245ffd5b634e487b7160e01b5f52601160045260245ffd5b50509050610df7565b346102145760a036600319011261021457610e68611f18565b6024356001600160401b03811161021457610e87903690600401611ec7565b906044356001600160401b03811161021457610ea7903690600401611ec7565b9190926064356001600160401b03811161021457610ec9903690600401611ec7565b906084356001600160401b03811161021457610ee9903690600401611ff9565b90966001600160a01b0389169691871561115b57600d5498610f0a8a612348565b600d5560405160209b610f1d8d83612093565b5f82526001600160a01b03610f328d836127ae565b16611148573b611033575b509089969497959392915f5b828110610ffa5750505095610fa7610fba939287987f4163bfac127160e0f9f156ad45f09360dfe365c4fcdf394c40bdfece890ee6f7985f52600b8d52610f94878960405f20612155565b895f52600b8d52600160405f2001612155565b865f52600b8a52600260405f2001612155565b835f52600b875242600360405f200155835f52600b875242600460405f200155610fef6040519283928984528984019161224b565b0390a3604051908152f35b60019192939495979996985f5260088d5261102360405f2061101d838787612586565b90612619565b01908a9795989694939291610f49565b8b611073918b8d9c9e9d5f604051809681958294630a85bd0160e11b84523360048501528460248501526044840152608060648401526084830190611ef4565b03925af15f9181611108575b506110d4578b8b3d156110cc573d90611097826120b4565b916110a56040519384612093565b82523d5f8284013e5b815191826110c95783633250574960e11b5f5260045260245ffd5b01fd5b6060906110ae565b999a98996001600160e01b03191663757a42ff60e11b016110f5578b610f3d565b88633250574960e11b5f5260045260245ffd5b9091508b81813d8311611141575b6111208183612093565b8101031261021457516001600160e01b03198116810361021457908d61107f565b503d611116565b6339e3563760e11b5f525f60045260245ffd5b60405162461bcd60e51b815260206004820152600c60248201526b5a65726f206164647265737360a01b6044820152606490fd5b34610214576080366003190112610214576111a8611f18565b6111b0611f2e565b90604435606435926001600160401b0384116102145736602385011215610214578360040135926111e0846120b4565b936111ee6040519586612093565b8085523660248288010111610214576020815f9260246112229901838901378601015261121c838383612356565b33612899565b005b346102145761123236612029565b90916112406101cf8261277a565b805f52600c60205260405f208054905f8155816112f2575b50505f5b828110156112cb57815f52600c60205260405f20906112808160051b8601866125e7565b90928054600160401b8110156103125761129f916001820181556126a2565b9190916112b8576001936112b292612155565b0161125c565b634e487b7160e01b5f525f60045260245ffd5b507f07c10dadfc066e068275a5dd4fc7d6083ac55bcb557983acfe48a5cc6818d2d65f80a2005b5f5260205f20908101905b818110156112585780611311600192612538565b016112fd565b34610214575f36600319011261021457600d545f198101908111610e3257602090604051908152f35b3461021457604036600319011261021457611359611f18565b611361611f7e565b9033156113e6576001600160a01b03169081156113d357335f52600560205260405f20825f526020526113a38160405f209060ff801983541691151516179055565b60405190151581527f17307eab39ab6107e8899845ad3d59bd9653f200f220920489ca2b5937696c3160203392a3005b50630b61174360e31b5f5260045260245ffd5b63a9fbf51f60e01b5f525f60045260245ffd5b34610214575f366003190112610214576040515f60015461141981612107565b808452906001811690811561149f5750600114611441575b610c4383610c2f81850382612093565b60015f9081527fb10e2d527612073b26eecdfd717e6a320cf44b4afac2b0732d9fcbe2b7fa0cf6939250905b80821061148557509091508101602001610c2f611431565b91926001816020925483858801015201910190929161146d565b60ff191660208086019190915291151560051b84019091019150610c2f9050611431565b34610214575f366003190112610214576006546040516001600160a01b039091168152602090f35b34610214576020366003190112610214576004355f52600c60205260405f2080549061151682612521565b916115246040519384612093565b8083526020830180925f5260205f205f915b8383106115a357848660405191829160208301906020845251809152604083019060408160051b85010192915f905b82821061157457505050500390f35b919360019193955060206115938192603f198a82030186528851611ef4565b9601920192018594939192611565565b6001602081926115b28561226b565b815201920192019190611536565b34610214575f366003190112610214576115d8612872565b600680546001600160a01b031981169091555f906001600160a01b03167f8be0079c531659141344cd1fd0a4f28419497f9722a3daafe3b4186f6b6457e08280a3005b34610214576020366003190112610214576001600160a01b0361163c611f18565b168015611659575f526003602052602060405f2054604051908152f35b6322718ad960e21b5f525f60045260245ffd5b346102145761167a36612029565b6116886101cf84939461277a565b815f52600860205260405f209081546116a081612521565b926116ae6040519485612093565b81845260208401905f5260205f205f915b83831061181e5750505050825f52600860205260405f208054905f8155816117e0575b5050925f5b8481106117b75750825f52600b60205242600460405f20015561171560405192604084526040840190611f8d565b938285036020840152808552602085019460208260051b82010195835f925b84841061176457877f0950ea0f010b000d7cfc9ef49213d3385d8512dd80de45ce2fbf8fc123c4f9a4888b0389a2005b909192939497602080600192601f198582030187526117838c8761268e565b9082806117a1611793858061265d565b60408652604086019161224b565b9301359101529a01940194019294939190611734565b600190845f9693965260086020526117d760405f2061101d83868a612586565b019390936116e7565b6001600160ff1b0382168203610e32575f5260205f209060011b8101905b818110156116e25780611812600292612538565b5f6001820155016117fe565b600260206001926040516118318161205c565b61183a8661226b565b815284860154838201528152019201920191906116bf565b3461021457602036600319011261021457602061187060043561277a565b6040516001600160a01b039091168152f35b346102145760403660031901126102145761189b611f2e565b6004355f52600960205260405f209060018060a01b03165f52602052602060ff60405f2054166040519015158152f35b34610214576112226118dc36611f44565b90604051926118ec602085612093565b5f845261121c838383612356565b34610214576020366003190112610214576004355f81815260026020526040902054611930906001600160a01b031615156124de565b5f52600860205260405f20805461194681612521565b916119546040519384612093565b81835260208301905f5260205f205f915b8383106119825760405160208082528190610c4390820188611f8d565b600260206001926040516119958161205c565b61199e8661226b565b81528486015483820152815201920192019190611965565b34610214575f366003190112610214576007546040516001600160a01b039091168152602090f35b34610214576040366003190112610214576004357f14d486a3988d4461145a302414fddacf905fb7094a319d5cf0a0194cfdc0868f6020611a1d611f7e565b611a296101cf8561277a565b835f52600b8252611a4c81600760405f20019060ff801983541691151516179055565b6040519015158152a2005b3461021457611222611a6836611f44565b91612356565b34610214576020366003190112610214576004355f818152600b602052604090206001600160a01b03611aa08361277a565b1633148015611b3d575b611ab39061230b565b60ff60078201541615611b055760208160097fdfb5f2db9943a8a1e8fc2cae38bb41fd23638535f12dd5c1da7cb16bfb9e8b31930190611af38254612348565b809255600842910155604051908152a2005b60405162461bcd60e51b815260206004820152601060248201526f10dc9bdb881b9bdd08195b98589b195960821b6044820152606490fd5b5060078101543360089190911c6001600160a01b031614611aaa565b3461021457604036600319011261021457611b72611f18565b602435611b7e8161277a565b33151580611c30575b80611c03575b611bf05781906001600160a01b0384811691167f8c5be1e5ebec7d5bd14f71427d1e84f3dd0314c0f7b2291e5b200ac8c7c3b9255f80a45f90815260046020526040902080546001600160a01b0319166001600160a01b03909216919091179055005b63a9fbf51f60e01b5f523360045260245ffd5b506001600160a01b0381165f90815260056020908152604080832033845290915290205460ff1615611b8d565b506001600160a01b038116331415611b87565b3461021457602036600319011261021457600435611c608161277a565b505f526004602052602060018060a01b0360405f205416604051908152f35b34610214575f366003190112610214576040515f5f54611c9e81612107565b808452906001811690811561149f5750600114611cc557610c4383610c2f81850382612093565b5f8080527f290decd9548b62a8d60345a988386fc84ba6bc95484008f6362f93160ef3e563939250905b808210611d0757509091508101602001610c2f611431565b919260018160209254838588010152019101909291611cef565b346102145760203660031901126102145760043563ffffffff60e01b8116809103610214576020906315d8811b60e21b8114908115611db0575b8115611d6d575b506040519015158152f35b6380ac58cd60e01b811491508115611d9f575b8115611d8e575b5082611d62565b6301ffc9a760e01b14905082611d87565b635b5e139f60e01b81149150611d80565b631184d5cb60e11b81149150611d5b565b34610214576060366003190112610214576004356024356001600160401b03811161021457611df4903690600401611ec7565b90604435916001600160401b03831161021457611ec2611e397f9cf1653fb78de6788c2cd829e3e04edbe47da4784ca42d1251e49be8ae084a9f943690600401611ec7565b611e456101cf8861277a565b865f52600b602052611e5e8486600560405f2001612155565b865f52600b602052611e778183600660405f2001612155565b5f878152600b60205260409081902060078101805460ff191687151560ff16179055426004909101558051818152958695611eb49287019161224b565b91848303602086015261224b565b0390a2005b9181601f84011215610214578235916001600160401b038311610214576020838186019501011161021457565b805180835260209291819084018484015e5f828201840152601f01601f1916010190565b600435906001600160a01b038216820361021457565b602435906001600160a01b038216820361021457565b6060906003190112610214576004356001600160a01b038116810361021457906024356001600160a01b0381168103610214579060443590565b60243590811515820361021457565b9080602083519182815201916020808360051b8301019401925f915b838310611fb857505050505090565b9091929394602080600192601f198582030186528851908280611fe48451604085526040850190611ef4565b93015191015297019301930191939290611fa9565b9181601f84011215610214578235916001600160401b038311610214576020808501948460051b01011161021457565b9060406003198301126102145760043591602435906001600160401b0382116102145761205891600401611ff9565b9091565b604081019081106001600160401b0382111761031257604052565b61018081019081106001600160401b0382111761031257604052565b90601f801991011681019081106001600160401b0382111761031257604052565b6001600160401b03811161031257601f01601f191660200190565b156120d657565b60405162461bcd60e51b81526020600482015260096024820152682737ba1037bbb732b960b91b6044820152606490fd5b90600182811c92168015612135575b602083101461212157565b634e487b7160e01b5f52602260045260245ffd5b91607f1691612116565b81811061214a575050565b5f815560010161213f565b9092916001600160401b038111610312576121708254612107565b601f8111612210575b505f601f82116001146121b157819293945f926121a6575b50508160011b915f199060031b1c1916179055565b013590505f80612191565b601f19821694835f5260205f20915f5b8781106121f85750836001959697106121df575b505050811b019055565b01355f19600384901b60f8161c191690555f80806121d5565b909260206001819286860135815501940191016121c1565b61223b90835f5260205f20601f840160051c81019160208510612241575b601f0160051c019061213f565b5f612179565b909150819061222e565b908060209392818452848401375f828201840152601f01601f1916010190565b9060405191825f82549261227e84612107565b80845293600181169081156122e957506001146122a5575b506122a392500383612093565b565b90505f9291925260205f20905f915b8183106122cd5750509060206122a3928201015f612296565b60209193508060019154838589010152019101909184926122b4565b9050602092506122a394915060ff191682840152151560051b8201015f612296565b1561231257565b60405162461bcd60e51b815260206004820152600e60248201526d139bdd08185d5d1a1bdc9a5e995960921b6044820152606490fd5b5f198114610e325760010190565b6001600160a01b03909116919082156124cb575f828152600260205260409020546001600160a01b031692829033151580612436575b5084612403575b805f52600360205260405f2060018154019055815f52600260205260405f20816bffffffffffffffffffffffff60a01b825416179055847fddf252ad1be2c89b69c2b068fc378daa952ba7f163c4a11628f55a4df523b3ef5f80a46001600160a01b03168083036107ce57505050565b5f82815260046020526040902080546001600160a01b0319169055845f52600360205260405f205f198154019055612393565b9091508061247a575b1561244c5782905f61238c565b828461246457637e27328960e01b5f5260045260245ffd5b63177e802f60e01b5f523360045260245260445ffd5b5033841480156124a9575b8061243f57505f838152600460205260409020546001600160a01b0316331461243f565b505f84815260056020908152604080832033845290915290205460ff16612485565b633250574960e11b5f525f60045260245ffd5b156124e557565b60405162461bcd60e51b8152602060048201526014602482015273151bdad95b88191bd95cc81b9bdd08195e1a5cdd60621b6044820152606490fd5b6001600160401b0381116103125760051b60200190565b6125428154612107565b908161254c575050565b81601f5f931160011461255d575055565b8183526020832061257991601f0160051c81019060010161213f565b8082528160208120915555565b91908110156125a85760051b81013590603e1981360301821215610214570190565b634e487b7160e01b5f52603260045260245ffd5b8054156125a8575f5260205f20905f90565b80548210156125a8575f5260205f209060011b01905f90565b903590601e198136030182121561021457018035906001600160401b0382116102145760200191813603831361021457565b8054600160401b81101561031257612636916001820181556125ce565b9190916112b85760208161265661264f826001956125e7565b9086612155565b0135910155565b9035601e19823603018112156102145701602081359101916001600160401b03821161021457813603831361021457565b9035603e1982360301811215610214570190565b80548210156125a8575f5260205f2001905f90565b6126c08161277a565b50805f52600860205260405f205415158061270e575b6126ef57506040516126e9602082612093565b5f815290565b5f52600860205261270b61270560405f206125bc565b5061226b565b90565b50805f52600860205261272d61272660405f206125bc565b5054612107565b15156126d6565b81601f820112156102145780519061274b826120b4565b926127596040519485612093565b8284526020838301011161021457815f9260208093018386015e8301015290565b5f818152600260205260409020546001600160a01b031690811561279c575090565b637e27328960e01b5f5260045260245ffd5b5f828152600260205260409020546001600160a01b031691908261283f575b6001600160a01b031680612827575b815f52600260205260405f20816bffffffffffffffffffffffff60a01b825416179055827fddf252ad1be2c89b69c2b068fc378daa952ba7f163c4a11628f55a4df523b3ef5f80a490565b805f52600360205260405f20600181540190556127dc565b5f82815260046020526040902080546001600160a01b0319169055825f52600360205260405f205f1981540190556127cd565b6006546001600160a01b0316330361288657565b63118cdaa760e01b5f523360045260245ffd5b823b6128a7575b5050505050565b604051630a85bd0160e11b81526001600160a01b0391821660048201529181166024830152604482019390935260806064820152911691602090829081906128f3906084830190611ef4565b03815f865af15f918161298a575b5061295657503d1561294f573d612917816120b4565b906129256040519283612093565b81523d5f602083013e5b8051908161294a5782633250574960e11b5f5260045260245ffd5b602001fd5b606061292f565b6001600160e01b03191663757a42ff60e11b0161297857505f808080806128a0565b633250574960e11b5f5260045260245ffd5b9091506020813d6020116129c7575b816129a660209383612093565b8101031261021457516001600160e01b03198116810361021457905f612901565b3d915061299956fea26469706673582212203dcc1baa517861e4c03af83dee6a348b812ce525ef936a5a7b66a79bcbb21d6864736f6c634300081c0033",
  "linkReferences": {},
  "deployedLinkReferences": {},
  "immutableReferences": {},
  "inputSourceName": "project/contracts/0g/ZeroGClaw.sol",
  "buildInfoId": "solc-0_8_28-b4acd47625736b80643a3a5e391c809b5968dc0a"
}