{"project/contracts/0g/MockVerifier.sol":{"MockVerifier":{"abi":[{"inputs":[{"components":[{"components":[{"internalType":"bytes32","name":"dataHash","type":"bytes32"},{"internalType":"bytes","name":"targetPubkey","type":"bytes"},{"internalType":"bytes","name":"nonce","type":"bytes"},{"internalType":"bytes","name":"proof","type":"bytes"}],"internalType":"struct AccessProof","name":"accessProof","type":"tuple"},{"components":[{"internalType":"enum OracleType","name":"oracleType","type":"uint8"},{"internalType":"bytes32","name":"dataHash","type":"bytes32"},{"internalType":"bytes","name":"sealedKey","type":"bytes"},{"internalType":"bytes","name":"targetPubkey","type":"bytes"},{"internalType":"bytes","name":"nonce","type":"bytes"},{"internalType":"bytes","name":"proof","type":"bytes"}],"internalType":"struct OwnershipProof","name":"ownershipProof","type":"tuple"}],"internalType":"struct TransferValidityProof[]","name":"proofs","type":"tuple[]"}],"name":"verifyTransferValidity","outputs":[{"components":[{"internalType":"bytes32","name":"dataHash","type":"bytes32"},{"internalType":"bytes","name":"sealedKey","type":"bytes"},{"internalType":"bytes","name":"targetPubkey","type":"bytes"},{"internalType":"bytes","name":"wantedKey","type":"bytes"},{"internalType":"address","name":"accessAssistant","type":"address"},{"internalType":"bytes","name":"accessProofNonce","type":"bytes"},{"internalType":"bytes","name":"ownershipProofNonce","type":"bytes"}],"internalType":"struct TransferValidityProofOutput[]","name":"","type":"tuple[]"}],"stateMutability":"pure","type":"function"}],"evm":{"bytecode":{"linkReferences":{},"object":"608080604052346015576104df908161001a8239f35b5f80fdfe60806040526004361015610011575f80fd5b5f3560e01c634ca5fd6914610024575f80fd5b346103275760203660031901126103275760043567ffffffffffffffff8111610327573660238201121561032757806004013567ffffffffffffffff8111610327576024820191602436918360051b0101116103275761008b610086826103a9565b610383565b81815290601f1961009b826103a9565b015f5b8181106102e65750505f5b81811061019157826040518091602082016020835281518091526040830190602060408260051b8601019301915f905b8282106100e857505050500390f35b919360019193955060206101818192603f198a82030186528851908151815260c061017061014d61013b6101298887015160e08a88015260e087019061032b565b6040870151868203604088015261032b565b6060860151858203606087015261032b565b888060a01b03608086015116608085015260a085015184820360a086015261032b565b9201519060c081840391015261032b565b96019201920185949391926100d9565b61019c8183866103c1565b806101a6916103f7565b356101b28284876103c1565b602081016101bf9161040c565b604081016101cc91610421565b9086856101da8682846103c1565b602081016101e79161040c565b606081016101f491610421565b906102008884866103c1565b8061020a916103f7565b6020810161021791610421565b919092896102268187896103c1565b80610230916103f7565b6040810161023d91610421565b966102499291986103c1565b602081016102569161040c565b6080810161026391610421565b97909861026e61034f565b9a8b52369061027c92610454565b60208a0152369061028c92610454565b6040880152369061029c92610454565b6060860152608085015f905236906102b392610454565b60a084015236906102c392610454565b60c08201526102d28285610495565b526102dd8184610495565b506001016100a9565b6020906102f161034f565b5f8152606083820152606060408201526060808201525f6080820152606060a0820152606060c08201528282870101520161009e565b5f80fd5b805180835260209291819084018484015e5f828201840152601f01601f1916010190565b6040519060e0820182811067ffffffffffffffff82111761036f57604052565b634e487b7160e01b5f52604160045260245ffd5b6040519190601f01601f1916820167ffffffffffffffff81118382101761036f57604052565b67ffffffffffffffff811161036f5760051b60200190565b91908110156103e35760051b81013590603e1981360301821215610327570190565b634e487b7160e01b5f52603260045260245ffd5b903590607e1981360301821215610327570190565b90359060be1981360301821215610327570190565b903590601e1981360301821215610327570180359067ffffffffffffffff82116103275760200191813603831361032757565b92919267ffffffffffffffff821161036f57610479601f8301601f1916602001610383565b938285528282011161032757815f926020928387013784010152565b80518210156103e35760209160051b01019056fea2646970667358221220e0e82f5c7e7624140be13cfeb75fba81d9744168798361a6cbdb9d0c07d16e9864736f6c634300081c0033","opcodes":"PUSH1 0x80 DUP1 PUSH1 0x40 MSTORE CALLVALUE PUSH1 0x15 JUMPI PUSH2 0x4DF SWAP1 DUP2 PUSH2 0x1A DUP3 CODECOPY RETURN JUMPDEST PUSH0 DUP1 REVERT INVALID PUSH1 0x80 PUSH1 0x40 MSTORE PUSH1 0x4 CALLDATASIZE LT ISZERO PUSH2 0x11 JUMPI PUSH0 DUP1 REVERT JUMPDEST PUSH0 CALLDATALOAD PUSH1 0xE0 SHR PUSH4 0x4CA5FD69 EQ PUSH2 0x24 JUMPI PUSH0 DUP1 REVERT JUMPDEST CALLVALUE PUSH2 0x327 JUMPI PUSH1 0x20 CALLDATASIZE PUSH1 0x3 NOT ADD SLT PUSH2 0x327 JUMPI PUSH1 0x4 CALLDATALOAD PUSH8 0xFFFFFFFFFFFFFFFF DUP2 GT PUSH2 0x327 JUMPI CALLDATASIZE PUSH1 0x23 DUP3 ADD SLT ISZERO PUSH2 0x327 JUMPI DUP1 PUSH1 0x4 ADD CALLDATALOAD PUSH8 0xFFFFFFFFFFFFFFFF DUP2 GT PUSH2 0x327 JUMPI PUSH1 0x24 DUP3 ADD SWAP2 PUSH1 0x24 CALLDATASIZE SWAP2 DUP4 PUSH1 0x5 SHL ADD ADD GT PUSH2 0x327 JUMPI PUSH2 0x8B PUSH2 0x86 DUP3 PUSH2 0x3A9 JUMP JUMPDEST PUSH2 0x383 JUMP JUMPDEST DUP2 DUP2 MSTORE SWAP1 PUSH1 0x1F NOT PUSH2 0x9B DUP3 PUSH2 0x3A9 JUMP JUMPDEST ADD PUSH0 JUMPDEST DUP2 DUP2 LT PUSH2 0x2E6 JUMPI POP POP PUSH0 JUMPDEST DUP2 DUP2 LT PUSH2 0x191 JUMPI DUP3 PUSH1 0x40 MLOAD DUP1 SWAP2 PUSH1 0x20 DUP3 ADD PUSH1 0x20 DUP4 MSTORE DUP2 MLOAD DUP1 SWAP2 MSTORE PUSH1 0x40 DUP4 ADD SWAP1 PUSH1 0x20 PUSH1 0x40 DUP3 PUSH1 0x5 SHL DUP7 ADD ADD SWAP4 ADD SWAP2 PUSH0 SWAP1 JUMPDEST DUP3 DUP3 LT PUSH2 0xE8 JUMPI POP POP POP POP SUB SWAP1 RETURN JUMPDEST SWAP2 SWAP4 PUSH1 0x1 SWAP2 SWAP4 SWAP6 POP PUSH1 0x20 PUSH2 0x181 DUP2 SWAP3 PUSH1 0x3F NOT DUP11 DUP3 SUB ADD DUP7 MSTORE DUP9 MLOAD SWAP1 DUP2 MLOAD DUP2 MSTORE PUSH1 0xC0 PUSH2 0x170 PUSH2 0x14D PUSH2 0x13B PUSH2 0x129 DUP9 DUP8 ADD MLOAD PUSH1 0xE0 DUP11 DUP9 ADD MSTORE PUSH1 0xE0 DUP8 ADD SWAP1 PUSH2 0x32B JUMP JUMPDEST PUSH1 0x40 DUP8 ADD MLOAD DUP7 DUP3 SUB PUSH1 0x40 DUP9 ADD MSTORE PUSH2 0x32B JUMP JUMPDEST PUSH1 0x60 DUP7 ADD MLOAD DUP6 DUP3 SUB PUSH1 0x60 DUP8 ADD MSTORE PUSH2 0x32B JUMP JUMPDEST DUP9 DUP1 PUSH1 0xA0 SHL SUB PUSH1 0x80 DUP7 ADD MLOAD AND PUSH1 0x80 DUP6 ADD MSTORE PUSH1 0xA0 DUP6 ADD MLOAD DUP5 DUP3 SUB PUSH1 0xA0 DUP7 ADD MSTORE PUSH2 0x32B JUMP JUMPDEST SWAP3 ADD MLOAD SWAP1 PUSH1 0xC0 DUP2 DUP5 SUB SWAP2 ADD MSTORE PUSH2 0x32B JUMP JUMPDEST SWAP7 ADD SWAP3 ADD SWAP3 ADD DUP6 SWAP5 SWAP4 SWAP2 SWAP3 PUSH2 0xD9 JUMP JUMPDEST PUSH2 0x19C DUP2 DUP4 DUP7 PUSH2 0x3C1 JUMP JUMPDEST DUP1 PUSH2 0x1A6 SWAP2 PUSH2 0x3F7 JUMP JUMPDEST CALLDATALOAD PUSH2 0x1B2 DUP3 DUP5 DUP8 PUSH2 0x3C1 JUMP JUMPDEST PUSH1 0x20 DUP2 ADD PUSH2 0x1BF SWAP2 PUSH2 0x40C JUMP JUMPDEST PUSH1 0x40 DUP2 ADD PUSH2 0x1CC SWAP2 PUSH2 0x421 JUMP JUMPDEST SWAP1 DUP7 DUP6 PUSH2 0x1DA DUP7 DUP3 DUP5 PUSH2 0x3C1 JUMP JUMPDEST PUSH1 0x20 DUP2 ADD PUSH2 0x1E7 SWAP2 PUSH2 0x40C JUMP JUMPDEST PUSH1 0x60 DUP2 ADD PUSH2 0x1F4 SWAP2 PUSH2 0x421 JUMP JUMPDEST SWAP1 PUSH2 0x200 DUP9 DUP5 DUP7 PUSH2 0x3C1 JUMP JUMPDEST DUP1 PUSH2 0x20A SWAP2 PUSH2 0x3F7 JUMP JUMPDEST PUSH1 0x20 DUP2 ADD PUSH2 0x217 SWAP2 PUSH2 0x421 JUMP JUMPDEST SWAP2 SWAP1 SWAP3 DUP10 PUSH2 0x226 DUP2 DUP8 DUP10 PUSH2 0x3C1 JUMP JUMPDEST DUP1 PUSH2 0x230 SWAP2 PUSH2 0x3F7 JUMP JUMPDEST PUSH1 0x40 DUP2 ADD PUSH2 0x23D SWAP2 PUSH2 0x421 JUMP JUMPDEST SWAP7 PUSH2 0x249 SWAP3 SWAP2 SWAP9 PUSH2 0x3C1 JUMP JUMPDEST PUSH1 0x20 DUP2 ADD PUSH2 0x256 SWAP2 PUSH2 0x40C JUMP JUMPDEST PUSH1 0x80 DUP2 ADD PUSH2 0x263 SWAP2 PUSH2 0x421 JUMP JUMPDEST SWAP8 SWAP1 SWAP9 PUSH2 0x26E PUSH2 0x34F JUMP JUMPDEST SWAP11 DUP12 MSTORE CALLDATASIZE SWAP1 PUSH2 0x27C SWAP3 PUSH2 0x454 JUMP JUMPDEST PUSH1 0x20 DUP11 ADD MSTORE CALLDATASIZE SWAP1 PUSH2 0x28C SWAP3 PUSH2 0x454 JUMP JUMPDEST PUSH1 0x40 DUP9 ADD MSTORE CALLDATASIZE SWAP1 PUSH2 0x29C SWAP3 PUSH2 0x454 JUMP JUMPDEST PUSH1 0x60 DUP7 ADD MSTORE PUSH1 0x80 DUP6 ADD PUSH0 SWAP1 MSTORE CALLDATASIZE SWAP1 PUSH2 0x2B3 SWAP3 PUSH2 0x454 JUMP JUMPDEST PUSH1 0xA0 DUP5 ADD MSTORE CALLDATASIZE SWAP1 PUSH2 0x2C3 SWAP3 PUSH2 0x454 JUMP JUMPDEST PUSH1 0xC0 DUP3 ADD MSTORE PUSH2 0x2D2 DUP3 DUP6 PUSH2 0x495 JUMP JUMPDEST MSTORE PUSH2 0x2DD DUP2 DUP5 PUSH2 0x495 JUMP JUMPDEST POP PUSH1 0x1 ADD PUSH2 0xA9 JUMP JUMPDEST PUSH1 0x20 SWAP1 PUSH2 0x2F1 PUSH2 0x34F JUMP JUMPDEST PUSH0 DUP2 MSTORE PUSH1 0x60 DUP4 DUP3 ADD MSTORE PUSH1 0x60 PUSH1 0x40 DUP3 ADD MSTORE PUSH1 0x60 DUP1 DUP3 ADD MSTORE PUSH0 PUSH1 0x80 DUP3 ADD MSTORE PUSH1 0x60 PUSH1 0xA0 DUP3 ADD MSTORE PUSH1 0x60 PUSH1 0xC0 DUP3 ADD MSTORE DUP3 DUP3 DUP8 ADD ADD MSTORE ADD PUSH2 0x9E JUMP JUMPDEST PUSH0 DUP1 REVERT JUMPDEST DUP1 MLOAD DUP1 DUP4 MSTORE PUSH1 0x20 SWAP3 SWAP2 DUP2 SWAP1 DUP5 ADD DUP5 DUP5 ADD MCOPY PUSH0 DUP3 DUP3 ADD DUP5 ADD MSTORE PUSH1 0x1F ADD PUSH1 0x1F NOT AND ADD ADD SWAP1 JUMP JUMPDEST PUSH1 0x40 MLOAD SWAP1 PUSH1 0xE0 DUP3 ADD DUP3 DUP2 LT PUSH8 0xFFFFFFFFFFFFFFFF DUP3 GT OR PUSH2 0x36F JUMPI PUSH1 0x40 MSTORE JUMP JUMPDEST PUSH4 0x4E487B71 PUSH1 0xE0 SHL PUSH0 MSTORE PUSH1 0x41 PUSH1 0x4 MSTORE PUSH1 0x24 PUSH0 REVERT JUMPDEST PUSH1 0x40 MLOAD SWAP2 SWAP1 PUSH1 0x1F ADD PUSH1 0x1F NOT AND DUP3 ADD PUSH8 0xFFFFFFFFFFFFFFFF DUP2 GT DUP4 DUP3 LT OR PUSH2 0x36F JUMPI PUSH1 0x40 MSTORE JUMP JUMPDEST PUSH8 0xFFFFFFFFFFFFFFFF DUP2 GT PUSH2 0x36F JUMPI PUSH1 0x5 SHL PUSH1 0x20 ADD SWAP1 JUMP JUMPDEST SWAP2 SWAP1 DUP2 LT ISZERO PUSH2 0x3E3 JUMPI PUSH1 0x5 SHL DUP2 ADD CALLDATALOAD SWAP1 PUSH1 0x3E NOT DUP2 CALLDATASIZE SUB ADD DUP3 SLT ISZERO PUSH2 0x327 JUMPI ADD SWAP1 JUMP JUMPDEST PUSH4 0x4E487B71 PUSH1 0xE0 SHL PUSH0 MSTORE PUSH1 0x32 PUSH1 0x4 MSTORE PUSH1 0x24 PUSH0 REVERT JUMPDEST SWAP1 CALLDATALOAD SWAP1 PUSH1 0x7E NOT DUP2 CALLDATASIZE SUB ADD DUP3 SLT ISZERO PUSH2 0x327 JUMPI ADD SWAP1 JUMP JUMPDEST SWAP1 CALLDATALOAD SWAP1 PUSH1 0xBE NOT DUP2 CALLDATASIZE SUB ADD DUP3 SLT ISZERO PUSH2 0x327 JUMPI ADD SWAP1 JUMP JUMPDEST SWAP1 CALLDATALOAD SWAP1 PUSH1 0x1E NOT DUP2 CALLDATASIZE SUB ADD DUP3 SLT ISZERO PUSH2 0x327 JUMPI ADD DUP1 CALLDATALOAD SWAP1 PUSH8 0xFFFFFFFFFFFFFFFF DUP3 GT PUSH2 0x327 JUMPI PUSH1 0x20 ADD SWAP2 DUP2 CALLDATASIZE SUB DUP4 SGT PUSH2 0x327 JUMPI JUMP JUMPDEST SWAP3 SWAP2 SWAP3 PUSH8 0xFFFFFFFFFFFFFFFF DUP3 GT PUSH2 0x36F JUMPI PUSH2 0x479 PUSH1 0x1F DUP4 ADD PUSH1 0x1F NOT AND PUSH1 0x20 ADD PUSH2 0x383 JUMP JUMPDEST SWAP4 DUP3 DUP6 MSTORE DUP3 DUP3 ADD GT PUSH2 0x327 JUMPI DUP2 PUSH0 SWAP3 PUSH1 0x20 SWAP3 DUP4 DUP8 ADD CALLDATACOPY DUP5 ADD ADD MSTORE JUMP JUMPDEST DUP1 MLOAD DUP3 LT ISZERO PUSH2 0x3E3 JUMPI PUSH1 0x20 SWAP2 PUSH1 0x5 SHL ADD ADD SWAP1 JUMP INVALID LOG2 PUSH5 0x6970667358 0x22 SLT KECCAK256 0xE0 0xE8 0x2F TLOAD PUSH31 0x7624140BE13CFEB75FBA81D9744168798361A6CBDB9D0C07D16E9864736F6C PUSH4 0x4300081C STOP CALLER "},"methodIdentifiers":{"verifyTransferValidity(((bytes32,bytes,bytes,bytes),(uint8,bytes32,bytes,bytes,bytes,bytes))[])":"4ca5fd69"}}}}}