{"project/contracts/0g/SPARKiNFT.sol":{"SPARKiNFT":{"abi":[{"inputs":[{"internalType":"address","name":"_verifier","type":"address"}],"stateMutability":"nonpayable","type":"constructor"},{"inputs":[{"internalType":"address","name":"sender","type":"address"},{"internalType":"uint256","name":"tokenId","type":"uint256"},{"internalType":"address","name":"owner","type":"address"}],"name":"ERC721IncorrectOwner","type":"error"},{"inputs":[{"internalType":"address","name":"operator","type":"address"},{"internalType":"uint256","name":"tokenId","type":"uint256"}],"name":"ERC721InsufficientApproval","type":"error"},{"inputs":[{"internalType":"address","name":"approver","type":"address"}],"name":"ERC721InvalidApprover","type":"error"},{"inputs":[{"internalType":"address","name":"operator","type":"address"}],"name":"ERC721InvalidOperator","type":"error"},{"inputs":[{"internalType":"address","name":"owner","type":"address"}],"name":"ERC721InvalidOwner","type":"error"},{"inputs":[{"internalType":"address","name":"receiver","type":"address"}],"name":"ERC721InvalidReceiver","type":"error"},{"inputs":[{"internalType":"address","name":"sender","type":"address"}],"name":"ERC721InvalidSender","type":"error"},{"inputs":[{"internalType":"uint256","name":"tokenId","type":"uint256"}],"name":"ERC721NonexistentToken","type":"error"},{"inputs":[{"internalType":"address","name":"owner","type":"address"}],"name":"OwnableInvalidOwner","type":"error"},{"inputs":[{"internalType":"address","name":"account","type":"address"}],"name":"OwnableUnauthorizedAccount","type":"error"},{"anonymous":false,"inputs":[{"indexed":true,"internalType":"uint256","name":"tokenId","type":"uint256"},{"indexed":true,"internalType":"address","name":"owner","type":"address"},{"indexed":false,"internalType":"string","name":"botId","type":"string"}],"name":"AgentMinted","type":"event"},{"anonymous":false,"inputs":[{"indexed":true,"internalType":"uint256","name":"tokenId","type":"uint256"},{"indexed":false,"internalType":"string","name":"domainTags","type":"string"},{"indexed":false,"internalType":"string","name":"serviceOfferings","type":"string"}],"name":"AgentProfileUpdated","type":"event"},{"anonymous":false,"inputs":[{"indexed":true,"internalType":"address","name":"owner","type":"address"},{"indexed":true,"internalType":"address","name":"approved","type":"address"},{"indexed":true,"internalType":"uint256","name":"tokenId","type":"uint256"}],"name":"Approval","type":"event"},{"anonymous":false,"inputs":[{"indexed":true,"internalType":"address","name":"owner","type":"address"},{"indexed":true,"internalType":"address","name":"operator","type":"address"},{"indexed":false,"internalType":"bool","name":"approved","type":"bool"}],"name":"ApprovalForAll","type":"event"},{"anonymous":false,"inputs":[{"indexed":true,"internalType":"address","name":"from","type":"address"},{"indexed":true,"internalType":"address","name":"to","type":"address"},{"indexed":true,"internalType":"uint256","name":"tokenId","type":"uint256"}],"name":"Authorization","type":"event"},{"anonymous":false,"inputs":[{"indexed":true,"internalType":"address","name":"from","type":"address"},{"indexed":true,"internalType":"address","name":"to","type":"address"},{"indexed":true,"internalType":"uint256","name":"tokenId","type":"uint256"}],"name":"AuthorizationRevoked","type":"event"},{"anonymous":false,"inputs":[{"indexed":true,"internalType":"uint256","name":"tokenId","type":"uint256"},{"indexed":false,"internalType":"uint256","name":"newCount","type":"uint256"}],"name":"ContributionRecorded","type":"event"},{"anonymous":false,"inputs":[{"indexed":true,"internalType":"address","name":"user","type":"address"},{"indexed":true,"internalType":"address","name":"assistant","type":"address"}],"name":"DelegateAccess","type":"event"},{"anonymous":false,"inputs":[{"indexed":true,"internalType":"address","name":"previousOwner","type":"address"},{"indexed":true,"internalType":"address","name":"newOwner","type":"address"}],"name":"OwnershipTransferred","type":"event"},{"anonymous":false,"inputs":[{"indexed":true,"internalType":"address","name":"to","type":"address"},{"indexed":true,"internalType":"uint256","name":"tokenId","type":"uint256"},{"indexed":false,"internalType":"bytes[]","name":"sealedKeys","type":"bytes[]"}],"name":"PublishedSealedKey","type":"event"},{"anonymous":false,"inputs":[{"indexed":true,"internalType":"address","name":"from","type":"address"},{"indexed":true,"internalType":"address","name":"to","type":"address"},{"indexed":true,"internalType":"uint256","name":"tokenId","type":"uint256"}],"name":"Transfer","type":"event"},{"anonymous":false,"inputs":[{"indexed":true,"internalType":"uint256","name":"tokenId","type":"uint256"},{"components":[{"internalType":"string","name":"dataDescription","type":"string"},{"internalType":"bytes32","name":"dataHash","type":"bytes32"}],"indexed":false,"internalType":"struct IntelligentData[]","name":"oldDatas","type":"tuple[]"},{"components":[{"internalType":"string","name":"dataDescription","type":"string"},{"internalType":"bytes32","name":"dataHash","type":"bytes32"}],"indexed":false,"internalType":"struct IntelligentData[]","name":"newDatas","type":"tuple[]"}],"name":"Updated","type":"event"},{"inputs":[{"internalType":"address","name":"to","type":"address"},{"internalType":"uint256","name":"tokenId","type":"uint256"}],"name":"approve","outputs":[],"stateMutability":"nonpayable","type":"function"},{"inputs":[{"internalType":"uint256","name":"tokenId","type":"uint256"},{"internalType":"address","name":"user","type":"address"}],"name":"authorizeUsage","outputs":[],"stateMutability":"nonpayable","type":"function"},{"inputs":[{"internalType":"uint256","name":"tokenId","type":"uint256"}],"name":"authorizedUsersOf","outputs":[{"internalType":"address[]","name":"","type":"address[]"}],"stateMutability":"view","type":"function"},{"inputs":[{"internalType":"address","name":"owner","type":"address"}],"name":"balanceOf","outputs":[{"internalType":"uint256","name":"","type":"uint256"}],"stateMutability":"view","type":"function"},{"inputs":[{"internalType":"address","name":"assistant","type":"address"}],"name":"delegateAccess","outputs":[],"stateMutability":"nonpayable","type":"function"},{"inputs":[{"internalType":"uint256","name":"tokenId","type":"uint256"}],"name":"getAgentProfile","outputs":[{"components":[{"internalType":"string","name":"botId","type":"string"},{"internalType":"string","name":"domainTags","type":"string"},{"internalType":"string","name":"serviceOfferings","type":"string"},{"internalType":"uint256","name":"reputationScore","type":"uint256"},{"internalType":"uint256","name":"contributionCount","type":"uint256"},{"internalType":"uint256","name":"createdAt","type":"uint256"},{"internalType":"uint256","name":"updatedAt","type":"uint256"}],"internalType":"struct SPARKiNFT.AgentProfile","name":"","type":"tuple"}],"stateMutability":"view","type":"function"},{"inputs":[{"internalType":"uint256","name":"tokenId","type":"uint256"}],"name":"getApproved","outputs":[{"internalType":"address","name":"","type":"address"}],"stateMutability":"view","type":"function"},{"inputs":[{"internalType":"address","name":"user","type":"address"}],"name":"getDelegateAccess","outputs":[{"internalType":"address","name":"","type":"address"}],"stateMutability":"view","type":"function"},{"inputs":[{"internalType":"address","name":"from","type":"address"},{"internalType":"address","name":"to","type":"address"},{"internalType":"uint256","name":"tokenId","type":"uint256"},{"components":[{"components":[{"internalType":"bytes32","name":"dataHash","type":"bytes32"},{"internalType":"bytes","name":"targetPubkey","type":"bytes"},{"internalType":"bytes","name":"nonce","type":"bytes"},{"internalType":"bytes","name":"proof","type":"bytes"}],"internalType":"struct AccessProof","name":"accessProof","type":"tuple"},{"components":[{"internalType":"enum OracleType","name":"oracleType","type":"uint8"},{"internalType":"bytes32","name":"dataHash","type":"bytes32"},{"internalType":"bytes","name":"sealedKey","type":"bytes"},{"internalType":"bytes","name":"targetPubkey","type":"bytes"},{"internalType":"bytes","name":"nonce","type":"bytes"},{"internalType":"bytes","name":"proof","type":"bytes"}],"internalType":"struct OwnershipProof","name":"ownershipProof","type":"tuple"}],"internalType":"struct TransferValidityProof[]","name":"proofs","type":"tuple[]"}],"name":"iTransferFrom","outputs":[],"stateMutability":"nonpayable","type":"function"},{"inputs":[{"internalType":"uint256","name":"tokenId","type":"uint256"}],"name":"intelligentDatasOf","outputs":[{"components":[{"internalType":"string","name":"dataDescription","type":"string"},{"internalType":"bytes32","name":"dataHash","type":"bytes32"}],"internalType":"struct IntelligentData[]","name":"","type":"tuple[]"}],"stateMutability":"view","type":"function"},{"inputs":[{"internalType":"address","name":"owner","type":"address"},{"internalType":"address","name":"operator","type":"address"}],"name":"isApprovedForAll","outputs":[{"internalType":"bool","name":"","type":"bool"}],"stateMutability":"view","type":"function"},{"inputs":[{"internalType":"uint256","name":"tokenId","type":"uint256"},{"internalType":"address","name":"user","type":"address"}],"name":"isAuthorized","outputs":[{"internalType":"bool","name":"","type":"bool"}],"stateMutability":"view","type":"function"},{"inputs":[{"internalType":"address","name":"to","type":"address"},{"internalType":"string","name":"botId","type":"string"},{"internalType":"string","name":"domainTags","type":"string"},{"internalType":"string","name":"serviceOfferings","type":"string"},{"components":[{"internalType":"string","name":"dataDescription","type":"string"},{"internalType":"bytes32","name":"dataHash","type":"bytes32"}],"internalType":"struct IntelligentData[]","name":"iDatas","type":"tuple[]"}],"name":"mintAgent","outputs":[{"internalType":"uint256","name":"","type":"uint256"}],"stateMutability":"nonpayable","type":"function"},{"inputs":[],"name":"name","outputs":[{"internalType":"string","name":"","type":"string"}],"stateMutability":"view","type":"function"},{"inputs":[],"name":"owner","outputs":[{"internalType":"address","name":"","type":"address"}],"stateMutability":"view","type":"function"},{"inputs":[{"internalType":"uint256","name":"tokenId","type":"uint256"}],"name":"ownerOf","outputs":[{"internalType":"address","name":"","type":"address"}],"stateMutability":"view","type":"function"},{"inputs":[{"internalType":"uint256","name":"tokenId","type":"uint256"}],"name":"recordContribution","outputs":[],"stateMutability":"nonpayable","type":"function"},{"inputs":[],"name":"renounceOwnership","outputs":[],"stateMutability":"nonpayable","type":"function"},{"inputs":[{"internalType":"uint256","name":"tokenId","type":"uint256"},{"internalType":"address","name":"user","type":"address"}],"name":"revokeAuthorization","outputs":[],"stateMutability":"nonpayable","type":"function"},{"inputs":[{"internalType":"address","name":"from","type":"address"},{"internalType":"address","name":"to","type":"address"},{"internalType":"uint256","name":"tokenId","type":"uint256"}],"name":"safeTransferFrom","outputs":[],"stateMutability":"nonpayable","type":"function"},{"inputs":[{"internalType":"address","name":"from","type":"address"},{"internalType":"address","name":"to","type":"address"},{"internalType":"uint256","name":"tokenId","type":"uint256"},{"internalType":"bytes","name":"data","type":"bytes"}],"name":"safeTransferFrom","outputs":[],"stateMutability":"nonpayable","type":"function"},{"inputs":[{"internalType":"address","name":"operator","type":"address"},{"internalType":"bool","name":"approved","type":"bool"}],"name":"setApprovalForAll","outputs":[],"stateMutability":"nonpayable","type":"function"},{"inputs":[{"internalType":"bytes4","name":"interfaceId","type":"bytes4"}],"name":"supportsInterface","outputs":[{"internalType":"bool","name":"","type":"bool"}],"stateMutability":"view","type":"function"},{"inputs":[],"name":"symbol","outputs":[{"internalType":"string","name":"","type":"string"}],"stateMutability":"view","type":"function"},{"inputs":[{"internalType":"uint256","name":"tokenId","type":"uint256"}],"name":"tokenURI","outputs":[{"internalType":"string","name":"","type":"string"}],"stateMutability":"view","type":"function"},{"inputs":[],"name":"totalMinted","outputs":[{"internalType":"uint256","name":"","type":"uint256"}],"stateMutability":"view","type":"function"},{"inputs":[{"internalType":"address","name":"from","type":"address"},{"internalType":"address","name":"to","type":"address"},{"internalType":"uint256","name":"tokenId","type":"uint256"}],"name":"transferFrom","outputs":[],"stateMutability":"nonpayable","type":"function"},{"inputs":[{"internalType":"address","name":"newOwner","type":"address"}],"name":"transferOwnership","outputs":[],"stateMutability":"nonpayable","type":"function"},{"inputs":[{"internalType":"uint256","name":"tokenId","type":"uint256"},{"components":[{"internalType":"string","name":"dataDescription","type":"string"},{"internalType":"bytes32","name":"dataHash","type":"bytes32"}],"internalType":"struct IntelligentData[]","name":"newDatas","type":"tuple[]"}],"name":"updateData","outputs":[],"stateMutability":"nonpayable","type":"function"},{"inputs":[{"internalType":"uint256","name":"tokenId","type":"uint256"},{"internalType":"string","name":"domainTags","type":"string"},{"internalType":"string","name":"serviceOfferings","type":"string"}],"name":"updateProfile","outputs":[],"stateMutability":"nonpayable","type":"function"},{"inputs":[{"internalType":"uint256","name":"tokenId","type":"uint256"},{"internalType":"uint256","name":"newScore","type":"uint256"}],"name":"updateReputation","outputs":[],"stateMutability":"nonpayable","type":"function"},{"inputs":[],"name":"verifier","outputs":[{"internalType":"contract IERC7857DataVerifier","name":"","type":"address"}],"stateMutability":"view","type":"function"}],"evm":{"bytecode":{"linkReferences":{},"object":"6080604052346103a35761300e6020813803918261001c816103a7565b9384928339810103126103a357516001600160a01b038116908190036103a35761004660406103a7565b90601082526f14d4105492c81a539195081059d95b9d60821b602083015261006e60406103a7565b6005815264535041524b60d81b602082015282519091906001600160401b0381116102b7575f54600181811c91168015610399575b602082101461029957601f8111610337575b506020601f82116001146102d657819293945f926102cb575b50508160011b915f199060031b1c1916175f555b81516001600160401b0381116102b757600154600181811c911680156102ad575b602082101461029957601f8111610236575b50602092601f82116001146101d557928192935f926101ca575b50508160011b915f199060031b1c1916176001555b33156101b75760068054336001600160a01b0319821681179092556040519291906001600160a01b03167f8be0079c531659141344cd1fd0a4f28419497f9722a3daafe3b4186f6b6457e05f80a36001600d55600780546001600160a01b031916919091179055612c4190816103cd8239f35b631e4fbdf760e01b5f525f60045260245ffd5b015190505f8061012f565b601f1982169360015f52805f20915f5b86811061021e5750836001959610610206575b505050811b01600155610144565b01515f1960f88460031b161c191690555f80806101f8565b919260206001819286850151815501940192016101e5565b60015f527fb10e2d527612073b26eecdfd717e6a320cf44b4afac2b0732d9fcbe2b7fa0cf6601f830160051c8101916020841061028f575b601f0160051c01905b8181106102845750610115565b5f8155600101610277565b909150819061026e565b634e487b7160e01b5f52602260045260245ffd5b90607f1690610103565b634e487b7160e01b5f52604160045260245ffd5b015190505f806100ce565b601f198216905f8052805f20915f5b81811061031f57509583600195969710610307575b505050811b015f556100e2565b01515f1960f88460031b161c191690555f80806102fa565b9192602060018192868b0151815501940192016102e5565b5f80527f290decd9548b62a8d60345a988386fc84ba6bc95484008f6362f93160ef3e563601f830160051c8101916020841061038f575b601f0160051c01905b81811061038457506100b5565b5f8155600101610377565b909150819061036e565b90607f16906100a3565b5f80fd5b6040519190601f01601f191682016001600160401b038111838210176102b75760405256fe6080806040526004361015610012575f80fd5b5f3560e01c90816301ffc9a7146120b7575080630675f7631461207d57806306fdde0314611fdb578063081812fc14611f9f578063095ea7b314611eb55780630e592fdd14611e755780631aeb542f14611dbd57806323b872dd14611da65780632b7ac3f314611d7e57806340fbd72f14611cc257806342842e0e14611c93578063609c6d7f14611c4a5780636352211e14611c1a5780636bba415c1461198b57806370a082311461193a578063715018a6146118df57806388c6a9561461166f5780638da5cb5b1461164757806395d89b411461157d57806398bd57de14611513578063a22cb4651461145f578063a2309ff814611436578063b88d4fde146113c9578063bc41807514610dd4578063c3612ef714610c25578063c87b56dd14610bee578063e985e9c514610b97578063eafcbf9c14610529578063f098a7ae146103db578063f2fde38b14610355578063f5bc196f146102d55763fa83d14e1461017c575f80fd5b346102d15760403660031901126102d15760043561019861218e565b6101b46101a4836129dd565b6001600160a01b0316331461260e565b6001600160a01b038116906101ca821515612896565b825f52600a60205260405f20825f5260205260ff60405f20541661029757825f52600a60205260405f20825f5260205260405f20600160ff19825416179055825f52600b60205260405f2090815491600160401b831015610283578261023891600161025c950181556128df565b81546001600160a01b0393841660039290921b91821b9390911b1916919091179055565b337f8a1c60ca1a16acd72d841a74fa5905de3938132b0b2ff6cb385a7e69af345fc95f80a4005b634e487b7160e01b5f52604160045260245ffd5b60405162461bcd60e51b8152602060048201526012602482015271105b1c9958591e48185d5d1a1bdc9a5e995960721b6044820152606490fd5b5f80fd5b346102d15760203660031901126102d1576004356102f56101a4826129dd565b805f52600c602052600460405f200161030e81546128d1565b90555f818152600c60209081526040918290204260068201556004015491519182527f67dfde09f3efc3d99fc751b2f6bfcb66fa7b11436f9374765379c0a86cfccf6f91a2005b346102d15760203660031901126102d15761036e612178565b6103766129b6565b6001600160a01b031680156103c857600680546001600160a01b0319811683179091556001600160a01b03167f8be0079c531659141344cd1fd0a4f28419497f9722a3daafe3b4186f6b6457e05f80a3005b631e4fbdf760e01b5f525f60045260245ffd5b346102d15760203660031901126102d1576004355f60c06040516103fe816122c2565b6060815260606020820152606060408201528260608201528260808201528260a08201520152805f52600260205261044360018060a01b0360405f20541615156125b4565b5f52600c6020526104e660405f206040519061045e826122c2565b61046781612387565b825261047560018201612387565b6020830190815261048860028301612387565b91604084019283526003810154926060850193845261050c600483015491608087019283526104f9600660058601549560a08a0196875201549560c08901968752604051998a9960208b525160e060208c01526101008b0190612154565b9051898203601f190160408b0152612154565b9051878203601f19016060890152612154565b935160808601525160a08501525160c08401525160e08301520390f35b346102d15760803660031901126102d157610542612178565b61054a61218e565b604435916064356001600160401b0381116102d15761056d90369060040161224a565b61058f61057b8693966129dd565b6001600160a01b039485169416841461260e565b6001600160a01b038416908115610b5e578015610b2a579460018060a01b036007541690604051968791634ca5fd6960e01b8352816024840160206004860152526044830160448360051b85010192825f905b8282106109c357505050505091815f81819503925af19485156109b8575f95610810575b508451825f52600960205260405f2054036107d457845192610627846125f7565b9361063560405195866122dd565b808552610644601f19916125f7565b015f5b8181106107c35750505f5b86518110156106ee5761066581886129a2565b5151845f526009602052600161067e8360405f206126a4565b500154036106b4578060206106956001938a6129a2565b5101516106a282886129a2565b526106ad81876129a2565b5001610652565b60405162461bcd60e51b8152602060048201526012602482015271088c2e8c240d0c2e6d040dad2e6dac2e8c6d60731b6044820152606490fd5b5083906001600160a01b036107038588612a11565b16908161071d5784637e27328960e01b5f5260045260245ffd5b8082036107a957505060405190602082016020835281518091526040830190602060408260051b8601019301915f905b82821061077e5787877f77ac1306adadb66d303dd0baa0534083040b337a1212922215a3ccbaf6fec56c88880389a3005b9091929360208061079b600193603f198a82030186528851612154565b96019201920190929161074d565b84906364283d7b60e01b5f5260045260245260445260645ffd5b806060602080938901015201610647565b60405162461bcd60e51b81526020600482015260146024820152730a0e4dedecc40c6deeadce840dad2e6dac2e8c6d60631b6044820152606490fd5b9094503d805f833e61082281836122dd565b8101906020818303126102d1578051906001600160401b0382116102d157019080601f830112156102d157815191610859836125f7565b9261086760405194856122dd565b80845260208085019160051b830101918383116102d15760208101915b8383106108975750505050509385610606565b82516001600160401b0381116102d15782019060e0828703601f1901126102d157604051906108c5826122c2565b6020830151825260408301516001600160401b0381116102d1578760206108ee9286010161295c565b602083015260608301516001600160401b0381116102d1578760206109159286010161295c565b604083015260808301516001600160401b0381116102d15787602061093c9286010161295c565b606083015260a08301516001600160a01b03811681036102d157608083015260c08301516001600160401b0381116102d15787602061097d9286010161295c565b60a083015260e0830151916001600160401b0383116102d1576109a88860208096958196010161295c565b60c0820152815201920191610884565b6040513d5f823e3d90fd5b9193955091936043198c82030185526109dc8683612882565b3681900391908035607e1984018112156102d15781610a6491016040845280356040850152610a52610a47610a28610a176020850185612831565b608060608a015260c0890191612862565b610a356040850185612831565b888303603f190160808a015290612862565b916060810190612831565b858303603f190160a087015290612862565b9260208201359060be19018112156102d1570190602081840391015280359160028310156102d157610b1a602092839260019581528382013584820152610b0c610b01610ae6610acb610aba6040870187612831565b60c0604088015260c0870191612862565b610ad86060870187612831565b908683036060880152612862565b610af36080860186612831565b908583036080870152612862565b9260a0810190612831565b9160a0818503910152612862565b9701950192018b959493916105e2565b60405162461bcd60e51b815260206004820152600c60248201526b456d7074792070726f6f667360a01b6044820152606490fd5b60405162461bcd60e51b8152602060048201526011602482015270125b9d985b1a59081c9958da5c1a595b9d607a1b6044820152606490fd5b346102d15760403660031901126102d157610bb0612178565b610bb861218e565b9060018060a01b03165f52600560205260405f209060018060a01b03165f52602052602060ff60405f2054166040519015158152f35b346102d15760203660031901126102d157610c21610c0d6004356128f4565b604051918291602083526020830190612154565b0390f35b346102d15760403660031901126102d157600435610c4161218e565b610c4d6101a4836129dd565b815f52600a60205260405f2060018060a01b0382165f5260205260ff60405f20541615610d9e575f828152600a602090815260408083206001600160a01b0394909416808452938252808320805460ff19169055848352600b909152812091905b825480821015610d955782610cc383866128df565b905460039190911b1c6001600160a01b031614610ce35750600101610cae565b9192915f19810191908211610d8157610238610d02610d1b93856128df565b905460039190911b1c6001600160a01b031691846128df565b80548015610d6d575f190190610d3182826128df565b81549060018060a01b039060031b1b19169055555b337fd1662978c81e15f621e7a38524048493c6e86d91a24a29619d164bef0a8d0a985f80a4005b634e487b7160e01b5f52603160045260245ffd5b634e487b7160e01b5f52601160045260245ffd5b50509050610d46565b60405162461bcd60e51b815260206004820152600e60248201526d139bdd08185d5d1a1bdc9a5e995960921b6044820152606490fd5b346102d15760a03660031901126102d157610ded612178565b6024356001600160401b0381116102d157610e0c90369060040161227a565b6044356001600160401b0381116102d157610e2b90369060040161227a565b90926064356001600160401b0381116102d157610e4c90369060040161227a565b9190956084356001600160401b0381116102d157610e6e90369060040161224a565b6001600160a01b0383161598919790610e878a15612896565b600d5498610e948a6128d1565b600d5560405160209b610ea78d836122dd565b5f82526113b6576001600160a01b03610ec08c88612a11565b166113a357853b611265575b505f5b82811061123d5750505090610f02610f109260405197610eee896122c2565b610ef9368b89612319565b89523691612319565b948987019586523691612319565b926040850193845260608501935f8552608086015f815260a08701914283524260c0890152895f52600c8b5260405f2093885180516001600160401b03811161028357610f6781610f61895461234f565b896126bd565b8d80601f83116001146111d857508190610f96935f92611168575b50508160011b915f199060031b1c19161790565b85555b60018501905180516001600160401b03811161028357610fc381610fbd855461234f565b856126bd565b8d80601f831160011461117357508190610ff1935f926111685750508160011b915f199060031b1c19161790565b90555b519586516001600160401b038111610283578a9761102282611019600289015461234f565b600289016126bd565b8c90601f83116001146110cb579261107a836006979460c097947f4163bfac127160e0f9f156ad45f09360dfe365c4fcdf394c40bdfece890ee6f79d9e975f926110c05750508160011b915f199060031b1c19161790565b60028801555b51600387015551600486015551600585015501519101556110b560405192839289845260018060a01b03169689840191612862565b0390a3604051908152f35b015190505f80610f82565b908d91600288015f52825f20925f905b601f198616821061114c5750508360c096937f4163bfac127160e0f9f156ad45f09360dfe365c4fcdf394c40bdfece890ee6f79c9d969360019360069a97601f19811610611134575b505050811b016002880155611080565b01515f1960f88460031b161c191690555f8080611124565b8383015185558f9c5060019094019392830192908101906110db565b015190508f80610f82565b9192601f198416855f52835f20935f905b8282106111c05750509084600195949392106111a8575b505050811b019055610ff4565b01515f1960f88460031b161c191690558e808061119b565b80600186978294978701518155019601940190611184565b9192601f198416895f52835f20935f905b82821061122557505090846001959493921061120d575b505050811b018555610f99565b01515f1960f88460031b161c191690558e8080611200565b806001869782949787015181550196019401906111e9565b6001908b5f5260098d5261125f60405f2061125983878761265c565b90612700565b01610ecf565b8b6112ab91878d989e9d5f60409e9d9c9b9a9e51809681958294630a85bd0160e11b84523360048501528460248501526044840152608060648401526084830190612154565b03926001600160a01b03165af15f9181611363575b50611320578b8b3d15611318573d906112d8826122fe565b916112e660405193846122dd565b82523d5f8284013e5b8151918261131557633250574960e11b5f9081526001600160a01b038516600452602490fd5b01fd5b6060906112ef565b630a85bd0160e19c969798999a9b9c1b9063ffffffff60e01b1603611345578b610ecc565b633250574960e11b5f9081526001600160a01b038616600452602490fd5b9091508b81813d831161139c575b61137b81836122dd565b810103126102d157516001600160e01b0319811681036102d157908d6112c0565b503d611371565b6339e3563760e11b5f525f60045260245ffd5b633250574960e11b5f525f60045260245ffd5b346102d15760803660031901126102d1576113e2612178565b6113ea61218e565b90604435606435926001600160401b0384116102d157366023850112156102d157611422611434943690602481600401359101612319565b9261142e838383612427565b33612ad5565b005b346102d1575f3660031901126102d157600d545f198101908111610d8157602090604051908152f35b346102d15760403660031901126102d157611478612178565b602435908115158092036102d1573315611500576001600160a01b03169081156114ed57335f52600560205260405f20825f5260205260405f2060ff1981541660ff83161790556040519081527f17307eab39ab6107e8899845ad3d59bd9653f200f220920489ca2b5937696c3160203392a3005b50630b61174360e31b5f5260045260245ffd5b63a9fbf51f60e01b5f525f60045260245ffd5b346102d15760203660031901126102d15761152c612178565b335f81815260086020526040812080546001600160a01b0319166001600160a01b039490941693841790557f57a5f7ce01affd949c0efd1484fd811d31ff5c8ca21c7006f5f4de7292f26de49080a3005b346102d1575f3660031901126102d1576040515f60015461159d8161234f565b808452906001811690811561162357506001146115c5575b610c2183610c0d818503826122dd565b60015f9081527fb10e2d527612073b26eecdfd717e6a320cf44b4afac2b0732d9fcbe2b7fa0cf6939250905b80821061160957509091508101602001610c0d6115b5565b9192600181602092548385880101520191019092916115f1565b60ff191660208086019190915291151560051b84019091019150610c0d90506115b5565b346102d1575f3660031901126102d1576006546040516001600160a01b039091168152602090f35b346102d15760603660031901126102d1576004356024356001600160401b0381116102d1576116a290369060040161227a565b91906044356001600160401b0381116102d1576116c390369060040161227a565b93906116d16101a4856129dd565b835f52600c60205260405f2094600186016001600160401b03841161028357611704846116fe835461234f565b836126bd565b5f84601f811160011461187c5780611730925f91611871575b508160011b915f199060031b1c19161790565b90555b60028601956001600160401b0382116102835761175482610f61895461234f565b5f96601f83116001146117e7579082916117a9836117d796957fb6797532cd72c15eba6bec2cd9dc1e0f16c7e86effd0dbf27d5115c6fdafcdba9a9b5f916117dc57508160011b915f199060031b1c19161790565b90555b6006429101556117c9604051958695604087526040870191612862565b918483036020860152612862565b0390a2005b90508601358c61171d565b601f198316815f5260205f20905f5b8181106118595750907fb6797532cd72c15eba6bec2cd9dc1e0f16c7e86effd0dbf27d5115c6fdafcdba9899856117d7979695949310611840575b5050600183811b0190556117ac565b8501355f19600386901b60f8161c191690558980611831565b868b0135835560209a8b019a600190930192016117f6565b90508701358a61171d565b50601f19851690825f528560205f20925f5b8181106118c45750106118ab575b5050600184811b019055611733565b8601355f19600387901b60f8161c19169055878061189c565b8984013585556001909401936020938401938993500161188e565b346102d1575f3660031901126102d1576118f76129b6565b600680546001600160a01b031981169091555f906001600160a01b03167f8be0079c531659141344cd1fd0a4f28419497f9722a3daafe3b4186f6b6457e08280a3005b346102d15760203660031901126102d1576001600160a01b0361195b612178565b168015611978575f526003602052602060405f2054604051908152f35b6322718ad960e21b5f525f60045260245ffd5b346102d15760403660031901126102d1576004356024356001600160401b0381116102d1576119be90369060040161224a565b6119cc6101a48493946129dd565b8015611be857815f52600960205260405f209081546119ea816125f7565b926119f860405194856122dd565b81845260208401905f5260205f205f915b838310611bb45750505050825f52600960205260405f208054905f815581611b2a575b5050925f5b848110611b015750825f52600c60205242600660405f200155611a5f604051926040845260408401906121de565b938285036020840152808552602085019460208260051b82010195835f925b848410611aae57877f0950ea0f010b000d7cfc9ef49213d3385d8512dd80de45ce2fbf8fc123c4f9a4888b0389a2005b909192939497602080600192601f19858203018752611acd8c87612882565b908280611aeb611add8580612831565b604086526040860191612862565b9301359101529a01940194019294939190611a7e565b600190845f969396526009602052611b2160405f2061125983868a61265c565b01939093611a31565b6001600160ff1b0382168203610d81575f5260205f209060011b8101905b81811015611a2c5780611b5d6002925461234f565b80611b70575b505f600182015501611b48565b601f8111600114611b8657505f81555b87611b63565b611ba390825f526001601f60205f20920160051c82019101612646565b805f525f6020812081835555611b80565b60026020600192604051611bc7816122a7565b611bd086612387565b81528486015483820152815201920192019190611a09565b60405162461bcd60e51b815260206004820152600a602482015269456d707479206461746160b01b6044820152606490fd5b346102d15760203660031901126102d1576020611c386004356129dd565b6040516001600160a01b039091168152f35b346102d15760403660031901126102d157611c6361218e565b6004355f52600a60205260405f209060018060a01b03165f52602052602060ff60405f2054166040519015158152f35b346102d157611434611ca4366121a4565b9060405192611cb46020856122dd565b5f845261142e838383612427565b346102d15760203660031901126102d1576004355f81815260026020526040902054611cf8906001600160a01b031615156125b4565b5f52600960205260405f208054611d0e816125f7565b91611d1c60405193846122dd565b81835260208301905f5260205f205f915b838310611d4a5760405160208082528190610c21908201886121de565b60026020600192604051611d5d816122a7565b611d6686612387565b81528486015483820152815201920192019190611d2d565b346102d1575f3660031901126102d1576007546040516001600160a01b039091168152602090f35b346102d157611434611db7366121a4565b91612427565b346102d15760203660031901126102d1576004355f52600b60205260405f20604051806020835491828152019081935f5260205f20905f5b818110611e565750505081611e0b9103826122dd565b604051918291602083019060208452518091526040830191905f5b818110611e34575050500390f35b82516001600160a01b0316845285945060209384019390920191600101611e26565b82546001600160a01b0316845260209093019260019283019201611df5565b346102d15760203660031901126102d1576001600160a01b03611e96612178565b165f526008602052602060018060a01b0360405f205416604051908152f35b346102d15760403660031901126102d157611ece612178565b602435611eda816129dd565b33151580611f8c575b80611f5f575b611f4c5781906001600160a01b0384811691167f8c5be1e5ebec7d5bd14f71427d1e84f3dd0314c0f7b2291e5b200ac8c7c3b9255f80a45f90815260046020526040902080546001600160a01b0319166001600160a01b03909216919091179055005b63a9fbf51f60e01b5f523360045260245ffd5b506001600160a01b0381165f90815260056020908152604080832033845290915290205460ff1615611ee9565b506001600160a01b038116331415611ee3565b346102d15760203660031901126102d157600435611fbc816129dd565b505f526004602052602060018060a01b0360405f205416604051908152f35b346102d1575f3660031901126102d1576040515f5f54611ffa8161234f565b8084529060018116908115611623575060011461202157610c2183610c0d818503826122dd565b5f8080527f290decd9548b62a8d60345a988386fc84ba6bc95484008f6362f93160ef3e563939250905b80821061206357509091508101602001610c0d6115b5565b91926001816020925483858801015201910190929161204b565b346102d15760403660031901126102d1576004356120996129b6565b5f908152600c60205260409020602435600382015542600690910155005b346102d15760203660031901126102d1576004359063ffffffff60e01b82168092036102d1576020916315d8811b60e21b8114908115612143575b8115612100575b5015158152f35b6380ac58cd60e01b811491508115612132575b8115612121575b50836120f9565b6301ffc9a760e01b1490508361211a565b635b5e139f60e01b81149150612113565b631184d5cb60e11b811491506120f2565b805180835260209291819084018484015e5f828201840152601f01601f1916010190565b600435906001600160a01b03821682036102d157565b602435906001600160a01b03821682036102d157565b60609060031901126102d1576004356001600160a01b03811681036102d157906024356001600160a01b03811681036102d1579060443590565b9080602083519182815201916020808360051b8301019401925f915b83831061220957505050505090565b9091929394602080600192601f1985820301865288519082806122358451604085526040850190612154565b930151910152970193019301919392906121fa565b9181601f840112156102d1578235916001600160401b0383116102d1576020808501948460051b0101116102d157565b9181601f840112156102d1578235916001600160401b0383116102d157602083818601950101116102d157565b604081019081106001600160401b0382111761028357604052565b60e081019081106001600160401b0382111761028357604052565b90601f801991011681019081106001600160401b0382111761028357604052565b6001600160401b03811161028357601f01601f191660200190565b929192612325826122fe565b9161233360405193846122dd565b8294818452818301116102d1578281602093845f960137010152565b90600182811c9216801561237d575b602083101461236957565b634e487b7160e01b5f52602260045260245ffd5b91607f169161235e565b9060405191825f82549261239a8461234f565b808452936001811690811561240557506001146123c1575b506123bf925003836122dd565b565b90505f9291925260205f20905f915b8183106123e95750509060206123bf928201015f6123b2565b60209193508060019154838589010152019101909184926123d0565b9050602092506123bf94915060ff191682840152151560051b8201015f6123b2565b6001600160a01b03909116919082156113b6575f828152600260205260409020546001600160a01b03169282903315158061251f575b50846124ec575b805f52600360205260405f2060018154019055815f52600260205260405f20816bffffffffffffffffffffffff60a01b825416179055847fddf252ad1be2c89b69c2b068fc378daa952ba7f163c4a11628f55a4df523b3ef5f80a46001600160a01b03168083036124d457505050565b6364283d7b60e01b5f5260045260245260445260645ffd5b5f82815260046020526040902080546001600160a01b0319169055845f52600360205260405f205f198154019055612464565b90915080612563575b156125355782905f61245d565b828461254d57637e27328960e01b5f5260045260245ffd5b63177e802f60e01b5f523360045260245260445ffd5b503384148015612592575b8061252857505f838152600460205260409020546001600160a01b03163314612528565b505f84815260056020908152604080832033845290915290205460ff1661256e565b156125bb57565b60405162461bcd60e51b8152602060048201526014602482015273151bdad95b88191bd95cc81b9bdd08195e1a5cdd60621b6044820152606490fd5b6001600160401b0381116102835760051b60200190565b1561261557565b60405162461bcd60e51b81526020600482015260096024820152682737ba1037bbb732b960b91b6044820152606490fd5b818110612651575050565b5f8155600101612646565b919081101561267e5760051b81013590603e19813603018212156102d1570190565b634e487b7160e01b5f52603260045260245ffd5b80541561267e575f5260205f20905f90565b805482101561267e575f5260205f209060011b01905f90565b9190601f81116126cc57505050565b6123bf925f5260205f20906020601f840160051c830193106126f6575b601f0160051c0190612646565b90915081906126e9565b8054600160401b8110156102835761271d916001820181556126a4565b91909161281e578035601e19823603018112156102d15781018035906001600160401b0382116102d15781360360208201136102d15761276782612761865461234f565b866126bd565b5f90601f83116001146127b157826020936001959361279a935f926127a45750508160011b915f199060031b1c19161790565b84555b0135910155565b8692500101355f80610f82565b601f19831691855f5260205f20925f5b818110612804575092600195939285926020968895106127e9575b505050811b01845561279d565b018501355f19600384901b60f8161c191690555f80806127dc565b9193602060018192828888010135815501950192016127c1565b634e487b7160e01b5f525f60045260245ffd5b9035601e19823603018112156102d15701602081359101916001600160401b0382116102d15781360383136102d157565b908060209392818452848401375f828201840152601f01601f1916010190565b9035603e19823603018112156102d1570190565b1561289d57565b60405162461bcd60e51b815260206004820152600c60248201526b5a65726f206164647265737360a01b6044820152606490fd5b5f198114610d815760010190565b805482101561267e575f5260205f2001905f90565b6128fd816129dd565b505f52600960205260405f208054151580612941575b61292c57506040516129266020826122dd565b5f815290565b61293861293e91612692565b50612387565b90565b5061295561294e82612692565b505461234f565b1515612913565b81601f820112156102d157805190612973826122fe565b9261298160405194856122dd565b828452602083830101116102d157815f9260208093018386015e8301015290565b805182101561267e5760209160051b010190565b6006546001600160a01b031633036129ca57565b63118cdaa760e01b5f523360045260245ffd5b5f818152600260205260409020546001600160a01b03169081156129ff575090565b637e27328960e01b5f5260045260245ffd5b5f828152600260205260409020546001600160a01b0316919082612aa2575b6001600160a01b031680612a8a575b815f52600260205260405f20816bffffffffffffffffffffffff60a01b825416179055827fddf252ad1be2c89b69c2b068fc378daa952ba7f163c4a11628f55a4df523b3ef5f80a490565b805f52600360205260405f2060018154019055612a3f565b5f82815260046020526040902080546001600160a01b0319169055825f52600360205260405f205f198154019055612a30565b823b612ae3575b5050505050565b604051630a85bd0160e11b81526001600160a01b039182166004820152918116602483015260448201939093526080606482015291169160209082908190612b2f906084830190612154565b03815f865af15f9181612bc6575b50612b9257503d15612b8b573d612b53816122fe565b90612b6160405192836122dd565b81523d5f602083013e5b80519081612b865782633250574960e11b5f5260045260245ffd5b602001fd5b6060612b6b565b6001600160e01b03191663757a42ff60e11b01612bb457505f80808080612adc565b633250574960e11b5f5260045260245ffd5b9091506020813d602011612c03575b81612be2602093836122dd565b810103126102d157516001600160e01b0319811681036102d157905f612b3d565b3d9150612bd556fea264697066735822122001a51fe44335eef1be5f57ec238da39ee3e0228836fdc80bc0bcaee9138678f964736f6c634300081c0033","opcodes":"PUSH1 0x80 PUSH1 0x40 MSTORE CALLVALUE PUSH2 0x3A3 JUMPI PUSH2 0x300E PUSH1 0x20 DUP2 CODESIZE SUB SWAP2 DUP3 PUSH2 0x1C DUP2 PUSH2 0x3A7 JUMP JUMPDEST SWAP4 DUP5 SWAP3 DUP4 CODECOPY DUP2 ADD SUB SLT PUSH2 0x3A3 JUMPI MLOAD PUSH1 0x1 PUSH1 0x1 PUSH1 0xA0 SHL SUB DUP2 AND SWAP1 DUP2 SWAP1 SUB PUSH2 0x3A3 JUMPI PUSH2 0x46 PUSH1 0x40 PUSH2 0x3A7 JUMP JUMPDEST SWAP1 PUSH1 0x10 DUP3 MSTORE PUSH16 0x14D4105492C81A539195081059D95B9D PUSH1 0x82 SHL PUSH1 0x20 DUP4 ADD MSTORE PUSH2 0x6E PUSH1 0x40 PUSH2 0x3A7 JUMP JUMPDEST PUSH1 0x5 DUP2 MSTORE PUSH5 0x535041524B PUSH1 0xD8 SHL PUSH1 0x20 DUP3 ADD MSTORE DUP3 MLOAD SWAP1 SWAP2 SWAP1 PUSH1 0x1 PUSH1 0x1 PUSH1 0x40 SHL SUB DUP2 GT PUSH2 0x2B7 JUMPI PUSH0 SLOAD PUSH1 0x1 DUP2 DUP2 SHR SWAP2 AND DUP1 ISZERO PUSH2 0x399 JUMPI JUMPDEST PUSH1 0x20 DUP3 LT EQ PUSH2 0x299 JUMPI PUSH1 0x1F DUP2 GT PUSH2 0x337 JUMPI JUMPDEST POP PUSH1 0x20 PUSH1 0x1F DUP3 GT PUSH1 0x1 EQ PUSH2 0x2D6 JUMPI DUP2 SWAP3 SWAP4 SWAP5 PUSH0 SWAP3 PUSH2 0x2CB JUMPI JUMPDEST POP POP DUP2 PUSH1 0x1 SHL SWAP2 PUSH0 NOT SWAP1 PUSH1 0x3 SHL SHR NOT AND OR PUSH0 SSTORE JUMPDEST DUP2 MLOAD PUSH1 0x1 PUSH1 0x1 PUSH1 0x40 SHL SUB DUP2 GT PUSH2 0x2B7 JUMPI PUSH1 0x1 SLOAD PUSH1 0x1 DUP2 DUP2 SHR SWAP2 AND DUP1 ISZERO PUSH2 0x2AD JUMPI JUMPDEST PUSH1 0x20 DUP3 LT EQ PUSH2 0x299 JUMPI PUSH1 0x1F DUP2 GT PUSH2 0x236 JUMPI JUMPDEST POP PUSH1 0x20 SWAP3 PUSH1 0x1F DUP3 GT PUSH1 0x1 EQ PUSH2 0x1D5 JUMPI SWAP3 DUP2 SWAP3 SWAP4 PUSH0 SWAP3 PUSH2 0x1CA JUMPI JUMPDEST POP POP DUP2 PUSH1 0x1 SHL SWAP2 PUSH0 NOT SWAP1 PUSH1 0x3 SHL SHR NOT AND OR PUSH1 0x1 SSTORE JUMPDEST CALLER ISZERO PUSH2 0x1B7 JUMPI PUSH1 0x6 DUP1 SLOAD CALLER PUSH1 0x1 PUSH1 0x1 PUSH1 0xA0 SHL SUB NOT DUP3 AND DUP2 OR SWAP1 SWAP3 SSTORE PUSH1 0x40 MLOAD SWAP3 SWAP2 SWAP1 PUSH1 0x1 PUSH1 0x1 PUSH1 0xA0 SHL SUB AND PUSH32 0x8BE0079C531659141344CD1FD0A4F28419497F9722A3DAAFE3B4186F6B6457E0 PUSH0 DUP1 LOG3 PUSH1 0x1 PUSH1 0xD SSTORE PUSH1 0x7 DUP1 SLOAD PUSH1 0x1 PUSH1 0x1 PUSH1 0xA0 SHL SUB NOT AND SWAP2 SWAP1 SWAP2 OR SWAP1 SSTORE PUSH2 0x2C41 SWAP1 DUP2 PUSH2 0x3CD DUP3 CODECOPY RETURN JUMPDEST PUSH4 0x1E4FBDF7 PUSH1 0xE0 SHL PUSH0 MSTORE PUSH0 PUSH1 0x4 MSTORE PUSH1 0x24 PUSH0 REVERT JUMPDEST ADD MLOAD SWAP1 POP PUSH0 DUP1 PUSH2 0x12F JUMP JUMPDEST PUSH1 0x1F NOT DUP3 AND SWAP4 PUSH1 0x1 PUSH0 MSTORE DUP1 PUSH0 KECCAK256 SWAP2 PUSH0 JUMPDEST DUP7 DUP2 LT PUSH2 0x21E JUMPI POP DUP4 PUSH1 0x1 SWAP6 SWAP7 LT PUSH2 0x206 JUMPI JUMPDEST POP POP POP DUP2 SHL ADD PUSH1 0x1 SSTORE PUSH2 0x144 JUMP JUMPDEST ADD MLOAD PUSH0 NOT PUSH1 0xF8 DUP5 PUSH1 0x3 SHL AND SHR NOT AND SWAP1 SSTORE PUSH0 DUP1 DUP1 PUSH2 0x1F8 JUMP JUMPDEST SWAP2 SWAP3 PUSH1 0x20 PUSH1 0x1 DUP2 SWAP3 DUP7 DUP6 ADD MLOAD DUP2 SSTORE ADD SWAP5 ADD SWAP3 ADD PUSH2 0x1E5 JUMP JUMPDEST PUSH1 0x1 PUSH0 MSTORE PUSH32 0xB10E2D527612073B26EECDFD717E6A320CF44B4AFAC2B0732D9FCBE2B7FA0CF6 PUSH1 0x1F DUP4 ADD PUSH1 0x5 SHR DUP2 ADD SWAP2 PUSH1 0x20 DUP5 LT PUSH2 0x28F JUMPI JUMPDEST PUSH1 0x1F ADD PUSH1 0x5 SHR ADD SWAP1 JUMPDEST DUP2 DUP2 LT PUSH2 0x284 JUMPI POP PUSH2 0x115 JUMP JUMPDEST PUSH0 DUP2 SSTORE PUSH1 0x1 ADD PUSH2 0x277 JUMP JUMPDEST SWAP1 SWAP2 POP DUP2 SWAP1 PUSH2 0x26E JUMP JUMPDEST PUSH4 0x4E487B71 PUSH1 0xE0 SHL PUSH0 MSTORE PUSH1 0x22 PUSH1 0x4 MSTORE PUSH1 0x24 PUSH0 REVERT JUMPDEST SWAP1 PUSH1 0x7F AND SWAP1 PUSH2 0x103 JUMP JUMPDEST PUSH4 0x4E487B71 PUSH1 0xE0 SHL PUSH0 MSTORE PUSH1 0x41 PUSH1 0x4 MSTORE PUSH1 0x24 PUSH0 REVERT JUMPDEST ADD MLOAD SWAP1 POP PUSH0 DUP1 PUSH2 0xCE JUMP JUMPDEST PUSH1 0x1F NOT DUP3 AND SWAP1 PUSH0 DUP1 MSTORE DUP1 PUSH0 KECCAK256 SWAP2 PUSH0 JUMPDEST DUP2 DUP2 LT PUSH2 0x31F JUMPI POP SWAP6 DUP4 PUSH1 0x1 SWAP6 SWAP7 SWAP8 LT PUSH2 0x307 JUMPI JUMPDEST POP POP POP DUP2 SHL ADD PUSH0 SSTORE PUSH2 0xE2 JUMP JUMPDEST ADD MLOAD PUSH0 NOT PUSH1 0xF8 DUP5 PUSH1 0x3 SHL AND SHR NOT AND SWAP1 SSTORE PUSH0 DUP1 DUP1 PUSH2 0x2FA JUMP JUMPDEST SWAP2 SWAP3 PUSH1 0x20 PUSH1 0x1 DUP2 SWAP3 DUP7 DUP12 ADD MLOAD DUP2 SSTORE ADD SWAP5 ADD SWAP3 ADD PUSH2 0x2E5 JUMP JUMPDEST PUSH0 DUP1 MSTORE PUSH32 0x290DECD9548B62A8D60345A988386FC84BA6BC95484008F6362F93160EF3E563 PUSH1 0x1F DUP4 ADD PUSH1 0x5 SHR DUP2 ADD SWAP2 PUSH1 0x20 DUP5 LT PUSH2 0x38F JUMPI JUMPDEST PUSH1 0x1F ADD PUSH1 0x5 SHR ADD SWAP1 JUMPDEST DUP2 DUP2 LT PUSH2 0x384 JUMPI POP PUSH2 0xB5 JUMP JUMPDEST PUSH0 DUP2 SSTORE PUSH1 0x1 ADD PUSH2 0x377 JUMP JUMPDEST SWAP1 SWAP2 POP DUP2 SWAP1 PUSH2 0x36E JUMP JUMPDEST SWAP1 PUSH1 0x7F AND SWAP1 PUSH2 0xA3 JUMP JUMPDEST PUSH0 DUP1 REVERT JUMPDEST PUSH1 0x40 MLOAD SWAP2 SWAP1 PUSH1 0x1F ADD PUSH1 0x1F NOT AND DUP3 ADD PUSH1 0x1 PUSH1 0x1 PUSH1 0x40 SHL SUB DUP2 GT DUP4 DUP3 LT OR PUSH2 0x2B7 JUMPI PUSH1 0x40 MSTORE JUMP INVALID PUSH1 0x80 DUP1 PUSH1 0x40 MSTORE PUSH1 0x4 CALLDATASIZE LT ISZERO PUSH2 0x12 JUMPI PUSH0 DUP1 REVERT JUMPDEST PUSH0 CALLDATALOAD PUSH1 0xE0 SHR SWAP1 DUP2 PUSH4 0x1FFC9A7 EQ PUSH2 0x20B7 JUMPI POP DUP1 PUSH4 0x675F763 EQ PUSH2 0x207D JUMPI DUP1 PUSH4 0x6FDDE03 EQ PUSH2 0x1FDB JUMPI DUP1 PUSH4 0x81812FC EQ PUSH2 0x1F9F JUMPI DUP1 PUSH4 0x95EA7B3 EQ PUSH2 0x1EB5 JUMPI DUP1 PUSH4 0xE592FDD EQ PUSH2 0x1E75 JUMPI DUP1 PUSH4 0x1AEB542F EQ PUSH2 0x1DBD JUMPI DUP1 PUSH4 0x23B872DD EQ PUSH2 0x1DA6 JUMPI DUP1 PUSH4 0x2B7AC3F3 EQ PUSH2 0x1D7E JUMPI DUP1 PUSH4 0x40FBD72F EQ PUSH2 0x1CC2 JUMPI DUP1 PUSH4 0x42842E0E EQ PUSH2 0x1C93 JUMPI DUP1 PUSH4 0x609C6D7F EQ PUSH2 0x1C4A JUMPI DUP1 PUSH4 0x6352211E EQ PUSH2 0x1C1A JUMPI DUP1 PUSH4 0x6BBA415C EQ PUSH2 0x198B JUMPI DUP1 PUSH4 0x70A08231 EQ PUSH2 0x193A JUMPI DUP1 PUSH4 0x715018A6 EQ PUSH2 0x18DF JUMPI DUP1 PUSH4 0x88C6A956 EQ PUSH2 0x166F JUMPI DUP1 PUSH4 0x8DA5CB5B EQ PUSH2 0x1647 JUMPI DUP1 PUSH4 0x95D89B41 EQ PUSH2 0x157D JUMPI DUP1 PUSH4 0x98BD57DE EQ PUSH2 0x1513 JUMPI DUP1 PUSH4 0xA22CB465 EQ PUSH2 0x145F JUMPI DUP1 PUSH4 0xA2309FF8 EQ PUSH2 0x1436 JUMPI DUP1 PUSH4 0xB88D4FDE EQ PUSH2 0x13C9 JUMPI DUP1 PUSH4 0xBC418075 EQ PUSH2 0xDD4 JUMPI DUP1 PUSH4 0xC3612EF7 EQ PUSH2 0xC25 JUMPI DUP1 PUSH4 0xC87B56DD EQ PUSH2 0xBEE JUMPI DUP1 PUSH4 0xE985E9C5 EQ PUSH2 0xB97 JUMPI DUP1 PUSH4 0xEAFCBF9C EQ PUSH2 0x529 JUMPI DUP1 PUSH4 0xF098A7AE EQ PUSH2 0x3DB JUMPI DUP1 PUSH4 0xF2FDE38B EQ PUSH2 0x355 JUMPI DUP1 PUSH4 0xF5BC196F EQ PUSH2 0x2D5 JUMPI PUSH4 0xFA83D14E EQ PUSH2 0x17C JUMPI PUSH0 DUP1 REVERT JUMPDEST CALLVALUE PUSH2 0x2D1 JUMPI PUSH1 0x40 CALLDATASIZE PUSH1 0x3 NOT ADD SLT PUSH2 0x2D1 JUMPI PUSH1 0x4 CALLDATALOAD PUSH2 0x198 PUSH2 0x218E JUMP JUMPDEST PUSH2 0x1B4 PUSH2 0x1A4 DUP4 PUSH2 0x29DD JUMP JUMPDEST PUSH1 0x1 PUSH1 0x1 PUSH1 0xA0 SHL SUB AND CALLER EQ PUSH2 0x260E JUMP JUMPDEST PUSH1 0x1 PUSH1 0x1 PUSH1 0xA0 SHL SUB DUP2 AND SWAP1 PUSH2 0x1CA DUP3 ISZERO ISZERO PUSH2 0x2896 JUMP JUMPDEST DUP3 PUSH0 MSTORE PUSH1 0xA PUSH1 0x20 MSTORE PUSH1 0x40 PUSH0 KECCAK256 DUP3 PUSH0 MSTORE PUSH1 0x20 MSTORE PUSH1 0xFF PUSH1 0x40 PUSH0 KECCAK256 SLOAD AND PUSH2 0x297 JUMPI DUP3 PUSH0 MSTORE PUSH1 0xA PUSH1 0x20 MSTORE PUSH1 0x40 PUSH0 KECCAK256 DUP3 PUSH0 MSTORE PUSH1 0x20 MSTORE PUSH1 0x40 PUSH0 KECCAK256 PUSH1 0x1 PUSH1 0xFF NOT DUP3 SLOAD AND OR SWAP1 SSTORE DUP3 PUSH0 MSTORE PUSH1 0xB PUSH1 0x20 MSTORE PUSH1 0x40 PUSH0 KECCAK256 SWAP1 DUP2 SLOAD SWAP2 PUSH1 0x1 PUSH1 0x40 SHL DUP4 LT ISZERO PUSH2 0x283 JUMPI DUP3 PUSH2 0x238 SWAP2 PUSH1 0x1 PUSH2 0x25C SWAP6 ADD DUP2 SSTORE PUSH2 0x28DF JUMP JUMPDEST DUP2 SLOAD PUSH1 0x1 PUSH1 0x1 PUSH1 0xA0 SHL SUB SWAP4 DUP5 AND PUSH1 0x3 SWAP3 SWAP1 SWAP3 SHL SWAP2 DUP3 SHL SWAP4 SWAP1 SWAP2 SHL NOT AND SWAP2 SWAP1 SWAP2 OR SWAP1 SSTORE JUMP JUMPDEST CALLER PUSH32 0x8A1C60CA1A16ACD72D841A74FA5905DE3938132B0B2FF6CB385A7E69AF345FC9 PUSH0 DUP1 LOG4 STOP JUMPDEST PUSH4 0x4E487B71 PUSH1 0xE0 SHL PUSH0 MSTORE PUSH1 0x41 PUSH1 0x4 MSTORE PUSH1 0x24 PUSH0 REVERT JUMPDEST PUSH1 0x40 MLOAD PUSH3 0x461BCD PUSH1 0xE5 SHL DUP2 MSTORE PUSH1 0x20 PUSH1 0x4 DUP3 ADD MSTORE PUSH1 0x12 PUSH1 0x24 DUP3 ADD MSTORE PUSH18 0x105B1C9958591E48185D5D1A1BDC9A5E9959 PUSH1 0x72 SHL PUSH1 0x44 DUP3 ADD MSTORE PUSH1 0x64 SWAP1 REVERT JUMPDEST PUSH0 DUP1 REVERT JUMPDEST CALLVALUE PUSH2 0x2D1 JUMPI PUSH1 0x20 CALLDATASIZE PUSH1 0x3 NOT ADD SLT PUSH2 0x2D1 JUMPI PUSH1 0x4 CALLDATALOAD PUSH2 0x2F5 PUSH2 0x1A4 DUP3 PUSH2 0x29DD JUMP JUMPDEST DUP1 PUSH0 MSTORE PUSH1 0xC PUSH1 0x20 MSTORE PUSH1 0x4 PUSH1 0x40 PUSH0 KECCAK256 ADD PUSH2 0x30E DUP2 SLOAD PUSH2 0x28D1 JUMP JUMPDEST SWAP1 SSTORE PUSH0 DUP2 DUP2 MSTORE PUSH1 0xC PUSH1 0x20 SWAP1 DUP2 MSTORE PUSH1 0x40 SWAP2 DUP3 SWAP1 KECCAK256 TIMESTAMP PUSH1 0x6 DUP3 ADD SSTORE PUSH1 0x4 ADD SLOAD SWAP2 MLOAD SWAP2 DUP3 MSTORE PUSH32 0x67DFDE09F3EFC3D99FC751B2F6BFCB66FA7B11436F9374765379C0A86CFCCF6F SWAP2 LOG2 STOP JUMPDEST CALLVALUE PUSH2 0x2D1 JUMPI PUSH1 0x20 CALLDATASIZE PUSH1 0x3 NOT ADD SLT PUSH2 0x2D1 JUMPI PUSH2 0x36E PUSH2 0x2178 JUMP JUMPDEST PUSH2 0x376 PUSH2 0x29B6 JUMP JUMPDEST PUSH1 0x1 PUSH1 0x1 PUSH1 0xA0 SHL SUB AND DUP1 ISZERO PUSH2 0x3C8 JUMPI PUSH1 0x6 DUP1 SLOAD PUSH1 0x1 PUSH1 0x1 PUSH1 0xA0 SHL SUB NOT DUP2 AND DUP4 OR SWAP1 SWAP2 SSTORE PUSH1 0x1 PUSH1 0x1 PUSH1 0xA0 SHL SUB AND PUSH32 0x8BE0079C531659141344CD1FD0A4F28419497F9722A3DAAFE3B4186F6B6457E0 PUSH0 DUP1 LOG3 STOP JUMPDEST PUSH4 0x1E4FBDF7 PUSH1 0xE0 SHL PUSH0 MSTORE PUSH0 PUSH1 0x4 MSTORE PUSH1 0x24 PUSH0 REVERT JUMPDEST CALLVALUE PUSH2 0x2D1 JUMPI PUSH1 0x20 CALLDATASIZE PUSH1 0x3 NOT ADD SLT PUSH2 0x2D1 JUMPI PUSH1 0x4 CALLDATALOAD PUSH0 PUSH1 0xC0 PUSH1 0x40 MLOAD PUSH2 0x3FE DUP2 PUSH2 0x22C2 JUMP JUMPDEST PUSH1 0x60 DUP2 MSTORE PUSH1 0x60 PUSH1 0x20 DUP3 ADD MSTORE PUSH1 0x60 PUSH1 0x40 DUP3 ADD MSTORE DUP3 PUSH1 0x60 DUP3 ADD MSTORE DUP3 PUSH1 0x80 DUP3 ADD MSTORE DUP3 PUSH1 0xA0 DUP3 ADD MSTORE ADD MSTORE DUP1 PUSH0 MSTORE PUSH1 0x2 PUSH1 0x20 MSTORE PUSH2 0x443 PUSH1 0x1 DUP1 PUSH1 0xA0 SHL SUB PUSH1 0x40 PUSH0 KECCAK256 SLOAD AND ISZERO ISZERO PUSH2 0x25B4 JUMP JUMPDEST PUSH0 MSTORE PUSH1 0xC PUSH1 0x20 MSTORE PUSH2 0x4E6 PUSH1 0x40 PUSH0 KECCAK256 PUSH1 0x40 MLOAD SWAP1 PUSH2 0x45E DUP3 PUSH2 0x22C2 JUMP JUMPDEST PUSH2 0x467 DUP2 PUSH2 0x2387 JUMP JUMPDEST DUP3 MSTORE PUSH2 0x475 PUSH1 0x1 DUP3 ADD PUSH2 0x2387 JUMP JUMPDEST PUSH1 0x20 DUP4 ADD SWAP1 DUP2 MSTORE PUSH2 0x488 PUSH1 0x2 DUP4 ADD PUSH2 0x2387 JUMP JUMPDEST SWAP2 PUSH1 0x40 DUP5 ADD SWAP3 DUP4 MSTORE PUSH1 0x3 DUP2 ADD SLOAD SWAP3 PUSH1 0x60 DUP6 ADD SWAP4 DUP5 MSTORE PUSH2 0x50C PUSH1 0x4 DUP4 ADD SLOAD SWAP2 PUSH1 0x80 DUP8 ADD SWAP3 DUP4 MSTORE PUSH2 0x4F9 PUSH1 0x6 PUSH1 0x5 DUP7 ADD SLOAD SWAP6 PUSH1 0xA0 DUP11 ADD SWAP7 DUP8 MSTORE ADD SLOAD SWAP6 PUSH1 0xC0 DUP10 ADD SWAP7 DUP8 MSTORE PUSH1 0x40 MLOAD SWAP10 DUP11 SWAP10 PUSH1 0x20 DUP12 MSTORE MLOAD PUSH1 0xE0 PUSH1 0x20 DUP13 ADD MSTORE PUSH2 0x100 DUP12 ADD SWAP1 PUSH2 0x2154 JUMP JUMPDEST SWAP1 MLOAD DUP10 DUP3 SUB PUSH1 0x1F NOT ADD PUSH1 0x40 DUP12 ADD MSTORE PUSH2 0x2154 JUMP JUMPDEST SWAP1 MLOAD DUP8 DUP3 SUB PUSH1 0x1F NOT ADD PUSH1 0x60 DUP10 ADD MSTORE PUSH2 0x2154 JUMP JUMPDEST SWAP4 MLOAD PUSH1 0x80 DUP7 ADD MSTORE MLOAD PUSH1 0xA0 DUP6 ADD MSTORE MLOAD PUSH1 0xC0 DUP5 ADD MSTORE MLOAD PUSH1 0xE0 DUP4 ADD MSTORE SUB SWAP1 RETURN JUMPDEST CALLVALUE PUSH2 0x2D1 JUMPI PUSH1 0x80 CALLDATASIZE PUSH1 0x3 NOT ADD SLT PUSH2 0x2D1 JUMPI PUSH2 0x542 PUSH2 0x2178 JUMP JUMPDEST PUSH2 0x54A PUSH2 0x218E JUMP JUMPDEST PUSH1 0x44 CALLDATALOAD SWAP2 PUSH1 0x64 CALLDATALOAD PUSH1 0x1 PUSH1 0x1 PUSH1 0x40 SHL SUB DUP2 GT PUSH2 0x2D1 JUMPI PUSH2 0x56D SWAP1 CALLDATASIZE SWAP1 PUSH1 0x4 ADD PUSH2 0x224A JUMP JUMPDEST PUSH2 0x58F PUSH2 0x57B DUP7 SWAP4 SWAP7 PUSH2 0x29DD JUMP JUMPDEST PUSH1 0x1 PUSH1 0x1 PUSH1 0xA0 SHL SUB SWAP5 DUP6 AND SWAP5 AND DUP5 EQ PUSH2 0x260E JUMP JUMPDEST PUSH1 0x1 PUSH1 0x1 PUSH1 0xA0 SHL SUB DUP5 AND SWAP1 DUP2 ISZERO PUSH2 0xB5E JUMPI DUP1 ISZERO PUSH2 0xB2A JUMPI SWAP5 PUSH1 0x1 DUP1 PUSH1 0xA0 SHL SUB PUSH1 0x7 SLOAD AND SWAP1 PUSH1 0x40 MLOAD SWAP7 DUP8 SWAP2 PUSH4 0x4CA5FD69 PUSH1 0xE0 SHL DUP4 MSTORE DUP2 PUSH1 0x24 DUP5 ADD PUSH1 0x20 PUSH1 0x4 DUP7 ADD MSTORE MSTORE PUSH1 0x44 DUP4 ADD PUSH1 0x44 DUP4 PUSH1 0x5 SHL DUP6 ADD ADD SWAP3 DUP3 PUSH0 SWAP1 JUMPDEST DUP3 DUP3 LT PUSH2 0x9C3 JUMPI POP POP POP POP POP SWAP2 DUP2 PUSH0 DUP2 DUP2 SWAP6 SUB SWAP3 GAS CALL SWAP5 DUP6 ISZERO PUSH2 0x9B8 JUMPI PUSH0 SWAP6 PUSH2 0x810 JUMPI JUMPDEST POP DUP5 MLOAD DUP3 PUSH0 MSTORE PUSH1 0x9 PUSH1 0x20 MSTORE PUSH1 0x40 PUSH0 KECCAK256 SLOAD SUB PUSH2 0x7D4 JUMPI DUP5 MLOAD SWAP3 PUSH2 0x627 DUP5 PUSH2 0x25F7 JUMP JUMPDEST SWAP4 PUSH2 0x635 PUSH1 0x40 MLOAD SWAP6 DUP7 PUSH2 0x22DD JUMP JUMPDEST DUP1 DUP6 MSTORE PUSH2 0x644 PUSH1 0x1F NOT SWAP2 PUSH2 0x25F7 JUMP JUMPDEST ADD PUSH0 JUMPDEST DUP2 DUP2 LT PUSH2 0x7C3 JUMPI POP POP PUSH0 JUMPDEST DUP7 MLOAD DUP2 LT ISZERO PUSH2 0x6EE JUMPI PUSH2 0x665 DUP2 DUP9 PUSH2 0x29A2 JUMP JUMPDEST MLOAD MLOAD DUP5 PUSH0 MSTORE PUSH1 0x9 PUSH1 0x20 MSTORE PUSH1 0x1 PUSH2 0x67E DUP4 PUSH1 0x40 PUSH0 KECCAK256 PUSH2 0x26A4 JUMP JUMPDEST POP ADD SLOAD SUB PUSH2 0x6B4 JUMPI DUP1 PUSH1 0x20 PUSH2 0x695 PUSH1 0x1 SWAP4 DUP11 PUSH2 0x29A2 JUMP JUMPDEST MLOAD ADD MLOAD PUSH2 0x6A2 DUP3 DUP9 PUSH2 0x29A2 JUMP JUMPDEST MSTORE PUSH2 0x6AD DUP2 DUP8 PUSH2 0x29A2 JUMP JUMPDEST POP ADD PUSH2 0x652 JUMP JUMPDEST PUSH1 0x40 MLOAD PUSH3 0x461BCD PUSH1 0xE5 SHL DUP2 MSTORE PUSH1 0x20 PUSH1 0x4 DUP3 ADD MSTORE PUSH1 0x12 PUSH1 0x24 DUP3 ADD MSTORE PUSH18 0x88C2E8C240D0C2E6D040DAD2E6DAC2E8C6D PUSH1 0x73 SHL PUSH1 0x44 DUP3 ADD MSTORE PUSH1 0x64 SWAP1 REVERT JUMPDEST POP DUP4 SWAP1 PUSH1 0x1 PUSH1 0x1 PUSH1 0xA0 SHL SUB PUSH2 0x703 DUP6 DUP9 PUSH2 0x2A11 JUMP JUMPDEST AND SWAP1 DUP2 PUSH2 0x71D JUMPI DUP5 PUSH4 0x7E273289 PUSH1 0xE0 SHL PUSH0 MSTORE PUSH1 0x4 MSTORE PUSH1 0x24 PUSH0 REVERT JUMPDEST DUP1 DUP3 SUB PUSH2 0x7A9 JUMPI POP POP PUSH1 0x40 MLOAD SWAP1 PUSH1 0x20 DUP3 ADD PUSH1 0x20 DUP4 MSTORE DUP2 MLOAD DUP1 SWAP2 MSTORE PUSH1 0x40 DUP4 ADD SWAP1 PUSH1 0x20 PUSH1 0x40 DUP3 PUSH1 0x5 SHL DUP7 ADD ADD SWAP4 ADD SWAP2 PUSH0 SWAP1 JUMPDEST DUP3 DUP3 LT PUSH2 0x77E JUMPI DUP8 DUP8 PUSH32 0x77AC1306ADADB66D303DD0BAA0534083040B337A1212922215A3CCBAF6FEC56C DUP9 DUP9 SUB DUP10 LOG3 STOP JUMPDEST SWAP1 SWAP2 SWAP3 SWAP4 PUSH1 0x20 DUP1 PUSH2 0x79B PUSH1 0x1 SWAP4 PUSH1 0x3F NOT DUP11 DUP3 SUB ADD DUP7 MSTORE DUP9 MLOAD PUSH2 0x2154 JUMP JUMPDEST SWAP7 ADD SWAP3 ADD SWAP3 ADD SWAP1 SWAP3 SWAP2 PUSH2 0x74D JUMP JUMPDEST DUP5 SWAP1 PUSH4 0x64283D7B PUSH1 0xE0 SHL PUSH0 MSTORE PUSH1 0x4 MSTORE PUSH1 0x24 MSTORE PUSH1 0x44 MSTORE PUSH1 0x64 PUSH0 REVERT JUMPDEST DUP1 PUSH1 0x60 PUSH1 0x20 DUP1 SWAP4 DUP10 ADD ADD MSTORE ADD PUSH2 0x647 JUMP JUMPDEST PUSH1 0x40 MLOAD PUSH3 0x461BCD PUSH1 0xE5 SHL DUP2 MSTORE PUSH1 0x20 PUSH1 0x4 DUP3 ADD MSTORE PUSH1 0x14 PUSH1 0x24 DUP3 ADD MSTORE PUSH20 0xA0E4DEDECC40C6DEEADCE840DAD2E6DAC2E8C6D PUSH1 0x63 SHL PUSH1 0x44 DUP3 ADD MSTORE PUSH1 0x64 SWAP1 REVERT JUMPDEST SWAP1 SWAP5 POP RETURNDATASIZE DUP1 PUSH0 DUP4 RETURNDATACOPY PUSH2 0x822 DUP2 DUP4 PUSH2 0x22DD JUMP JUMPDEST DUP2 ADD SWAP1 PUSH1 0x20 DUP2 DUP4 SUB SLT PUSH2 0x2D1 JUMPI DUP1 MLOAD SWAP1 PUSH1 0x1 PUSH1 0x1 PUSH1 0x40 SHL SUB DUP3 GT PUSH2 0x2D1 JUMPI ADD SWAP1 DUP1 PUSH1 0x1F DUP4 ADD SLT ISZERO PUSH2 0x2D1 JUMPI DUP2 MLOAD SWAP2 PUSH2 0x859 DUP4 PUSH2 0x25F7 JUMP JUMPDEST SWAP3 PUSH2 0x867 PUSH1 0x40 MLOAD SWAP5 DUP6 PUSH2 0x22DD JUMP JUMPDEST DUP1 DUP5 MSTORE PUSH1 0x20 DUP1 DUP6 ADD SWAP2 PUSH1 0x5 SHL DUP4 ADD ADD SWAP2 DUP4 DUP4 GT PUSH2 0x2D1 JUMPI PUSH1 0x20 DUP2 ADD SWAP2 JUMPDEST DUP4 DUP4 LT PUSH2 0x897 JUMPI POP POP POP POP POP SWAP4 DUP6 PUSH2 0x606 JUMP JUMPDEST DUP3 MLOAD PUSH1 0x1 PUSH1 0x1 PUSH1 0x40 SHL SUB DUP2 GT PUSH2 0x2D1 JUMPI DUP3 ADD SWAP1 PUSH1 0xE0 DUP3 DUP8 SUB PUSH1 0x1F NOT ADD SLT PUSH2 0x2D1 JUMPI PUSH1 0x40 MLOAD SWAP1 PUSH2 0x8C5 DUP3 PUSH2 0x22C2 JUMP JUMPDEST PUSH1 0x20 DUP4 ADD MLOAD DUP3 MSTORE PUSH1 0x40 DUP4 ADD MLOAD PUSH1 0x1 PUSH1 0x1 PUSH1 0x40 SHL SUB DUP2 GT PUSH2 0x2D1 JUMPI DUP8 PUSH1 0x20 PUSH2 0x8EE SWAP3 DUP7 ADD ADD PUSH2 0x295C JUMP JUMPDEST PUSH1 0x20 DUP4 ADD MSTORE PUSH1 0x60 DUP4 ADD MLOAD PUSH1 0x1 PUSH1 0x1 PUSH1 0x40 SHL SUB DUP2 GT PUSH2 0x2D1 JUMPI DUP8 PUSH1 0x20 PUSH2 0x915 SWAP3 DUP7 ADD ADD PUSH2 0x295C JUMP JUMPDEST PUSH1 0x40 DUP4 ADD MSTORE PUSH1 0x80 DUP4 ADD MLOAD PUSH1 0x1 PUSH1 0x1 PUSH1 0x40 SHL SUB DUP2 GT PUSH2 0x2D1 JUMPI DUP8 PUSH1 0x20 PUSH2 0x93C SWAP3 DUP7 ADD ADD PUSH2 0x295C JUMP JUMPDEST PUSH1 0x60 DUP4 ADD MSTORE PUSH1 0xA0 DUP4 ADD MLOAD PUSH1 0x1 PUSH1 0x1 PUSH1 0xA0 SHL SUB DUP2 AND DUP2 SUB PUSH2 0x2D1 JUMPI PUSH1 0x80 DUP4 ADD MSTORE PUSH1 0xC0 DUP4 ADD MLOAD PUSH1 0x1 PUSH1 0x1 PUSH1 0x40 SHL SUB DUP2 GT PUSH2 0x2D1 JUMPI DUP8 PUSH1 0x20 PUSH2 0x97D SWAP3 DUP7 ADD ADD PUSH2 0x295C JUMP JUMPDEST PUSH1 0xA0 DUP4 ADD MSTORE PUSH1 0xE0 DUP4 ADD MLOAD SWAP2 PUSH1 0x1 PUSH1 0x1 PUSH1 0x40 SHL SUB DUP4 GT PUSH2 0x2D1 JUMPI PUSH2 0x9A8 DUP9 PUSH1 0x20 DUP1 SWAP7 SWAP6 DUP2 SWAP7 ADD ADD PUSH2 0x295C JUMP JUMPDEST PUSH1 0xC0 DUP3 ADD MSTORE DUP2 MSTORE ADD SWAP3 ADD SWAP2 PUSH2 0x884 JUMP JUMPDEST PUSH1 0x40 MLOAD RETURNDATASIZE PUSH0 DUP3 RETURNDATACOPY RETURNDATASIZE SWAP1 REVERT JUMPDEST SWAP2 SWAP4 SWAP6 POP SWAP2 SWAP4 PUSH1 0x43 NOT DUP13 DUP3 SUB ADD DUP6 MSTORE PUSH2 0x9DC DUP7 DUP4 PUSH2 0x2882 JUMP JUMPDEST CALLDATASIZE DUP2 SWAP1 SUB SWAP2 SWAP1 DUP1 CALLDATALOAD PUSH1 0x7E NOT DUP5 ADD DUP2 SLT ISZERO PUSH2 0x2D1 JUMPI DUP2 PUSH2 0xA64 SWAP2 ADD PUSH1 0x40 DUP5 MSTORE DUP1 CALLDATALOAD PUSH1 0x40 DUP6 ADD MSTORE PUSH2 0xA52 PUSH2 0xA47 PUSH2 0xA28 PUSH2 0xA17 PUSH1 0x20 DUP6 ADD DUP6 PUSH2 0x2831 JUMP JUMPDEST PUSH1 0x80 PUSH1 0x60 DUP11 ADD MSTORE PUSH1 0xC0 DUP10 ADD SWAP2 PUSH2 0x2862 JUMP JUMPDEST PUSH2 0xA35 PUSH1 0x40 DUP6 ADD DUP6 PUSH2 0x2831 JUMP JUMPDEST DUP9 DUP4 SUB PUSH1 0x3F NOT ADD PUSH1 0x80 DUP11 ADD MSTORE SWAP1 PUSH2 0x2862 JUMP JUMPDEST SWAP2 PUSH1 0x60 DUP2 ADD SWAP1 PUSH2 0x2831 JUMP JUMPDEST DUP6 DUP4 SUB PUSH1 0x3F NOT ADD PUSH1 0xA0 DUP8 ADD MSTORE SWAP1 PUSH2 0x2862 JUMP JUMPDEST SWAP3 PUSH1 0x20 DUP3 ADD CALLDATALOAD SWAP1 PUSH1 0xBE NOT ADD DUP2 SLT ISZERO PUSH2 0x2D1 JUMPI ADD SWAP1 PUSH1 0x20 DUP2 DUP5 SUB SWAP2 ADD MSTORE DUP1 CALLDATALOAD SWAP2 PUSH1 0x2 DUP4 LT ISZERO PUSH2 0x2D1 JUMPI PUSH2 0xB1A PUSH1 0x20 SWAP3 DUP4 SWAP3 PUSH1 0x1 SWAP6 DUP2 MSTORE DUP4 DUP3 ADD CALLDATALOAD DUP5 DUP3 ADD MSTORE PUSH2 0xB0C PUSH2 0xB01 PUSH2 0xAE6 PUSH2 0xACB PUSH2 0xABA PUSH1 0x40 DUP8 ADD DUP8 PUSH2 0x2831 JUMP JUMPDEST PUSH1 0xC0 PUSH1 0x40 DUP9 ADD MSTORE PUSH1 0xC0 DUP8 ADD SWAP2 PUSH2 0x2862 JUMP JUMPDEST PUSH2 0xAD8 PUSH1 0x60 DUP8 ADD DUP8 PUSH2 0x2831 JUMP JUMPDEST SWAP1 DUP7 DUP4 SUB PUSH1 0x60 DUP9 ADD MSTORE PUSH2 0x2862 JUMP JUMPDEST PUSH2 0xAF3 PUSH1 0x80 DUP7 ADD DUP7 PUSH2 0x2831 JUMP JUMPDEST SWAP1 DUP6 DUP4 SUB PUSH1 0x80 DUP8 ADD MSTORE PUSH2 0x2862 JUMP JUMPDEST SWAP3 PUSH1 0xA0 DUP2 ADD SWAP1 PUSH2 0x2831 JUMP JUMPDEST SWAP2 PUSH1 0xA0 DUP2 DUP6 SUB SWAP2 ADD MSTORE PUSH2 0x2862 JUMP JUMPDEST SWAP8 ADD SWAP6 ADD SWAP3 ADD DUP12 SWAP6 SWAP5 SWAP4 SWAP2 PUSH2 0x5E2 JUMP JUMPDEST PUSH1 0x40 MLOAD PUSH3 0x461BCD PUSH1 0xE5 SHL DUP2 MSTORE PUSH1 0x20 PUSH1 0x4 DUP3 ADD MSTORE PUSH1 0xC PUSH1 0x24 DUP3 ADD MSTORE PUSH12 0x456D7074792070726F6F6673 PUSH1 0xA0 SHL PUSH1 0x44 DUP3 ADD MSTORE PUSH1 0x64 SWAP1 REVERT JUMPDEST PUSH1 0x40 MLOAD PUSH3 0x461BCD PUSH1 0xE5 SHL DUP2 MSTORE PUSH1 0x20 PUSH1 0x4 DUP3 ADD MSTORE PUSH1 0x11 PUSH1 0x24 DUP3 ADD MSTORE PUSH17 0x125B9D985B1A59081C9958DA5C1A595B9D PUSH1 0x7A SHL PUSH1 0x44 DUP3 ADD MSTORE PUSH1 0x64 SWAP1 REVERT JUMPDEST CALLVALUE PUSH2 0x2D1 JUMPI PUSH1 0x40 CALLDATASIZE PUSH1 0x3 NOT ADD SLT PUSH2 0x2D1 JUMPI PUSH2 0xBB0 PUSH2 0x2178 JUMP JUMPDEST PUSH2 0xBB8 PUSH2 0x218E JUMP JUMPDEST SWAP1 PUSH1 0x1 DUP1 PUSH1 0xA0 SHL SUB AND PUSH0 MSTORE PUSH1 0x5 PUSH1 0x20 MSTORE PUSH1 0x40 PUSH0 KECCAK256 SWAP1 PUSH1 0x1 DUP1 PUSH1 0xA0 SHL SUB AND PUSH0 MSTORE PUSH1 0x20 MSTORE PUSH1 0x20 PUSH1 0xFF PUSH1 0x40 PUSH0 KECCAK256 SLOAD AND PUSH1 0x40 MLOAD SWAP1 ISZERO ISZERO DUP2 MSTORE RETURN JUMPDEST CALLVALUE PUSH2 0x2D1 JUMPI PUSH1 0x20 CALLDATASIZE PUSH1 0x3 NOT ADD SLT PUSH2 0x2D1 JUMPI PUSH2 0xC21 PUSH2 0xC0D PUSH1 0x4 CALLDATALOAD PUSH2 0x28F4 JUMP JUMPDEST PUSH1 0x40 MLOAD SWAP2 DUP3 SWAP2 PUSH1 0x20 DUP4 MSTORE PUSH1 0x20 DUP4 ADD SWAP1 PUSH2 0x2154 JUMP JUMPDEST SUB SWAP1 RETURN JUMPDEST CALLVALUE PUSH2 0x2D1 JUMPI PUSH1 0x40 CALLDATASIZE PUSH1 0x3 NOT ADD SLT PUSH2 0x2D1 JUMPI PUSH1 0x4 CALLDATALOAD PUSH2 0xC41 PUSH2 0x218E JUMP JUMPDEST PUSH2 0xC4D PUSH2 0x1A4 DUP4 PUSH2 0x29DD JUMP JUMPDEST DUP2 PUSH0 MSTORE PUSH1 0xA PUSH1 0x20 MSTORE PUSH1 0x40 PUSH0 KECCAK256 PUSH1 0x1 DUP1 PUSH1 0xA0 SHL SUB DUP3 AND PUSH0 MSTORE PUSH1 0x20 MSTORE PUSH1 0xFF PUSH1 0x40 PUSH0 KECCAK256 SLOAD AND ISZERO PUSH2 0xD9E JUMPI PUSH0 DUP3 DUP2 MSTORE PUSH1 0xA PUSH1 0x20 SWAP1 DUP2 MSTORE PUSH1 0x40 DUP1 DUP4 KECCAK256 PUSH1 0x1 PUSH1 0x1 PUSH1 0xA0 SHL SUB SWAP5 SWAP1 SWAP5 AND DUP1 DUP5 MSTORE SWAP4 DUP3 MSTORE DUP1 DUP4 KECCAK256 DUP1 SLOAD PUSH1 0xFF NOT AND SWAP1 SSTORE DUP5 DUP4 MSTORE PUSH1 0xB SWAP1 SWAP2 MSTORE DUP2 KECCAK256 SWAP2 SWAP1 JUMPDEST DUP3 SLOAD DUP1 DUP3 LT ISZERO PUSH2 0xD95 JUMPI DUP3 PUSH2 0xCC3 DUP4 DUP7 PUSH2 0x28DF JUMP JUMPDEST SWAP1 SLOAD PUSH1 0x3 SWAP2 SWAP1 SWAP2 SHL SHR PUSH1 0x1 PUSH1 0x1 PUSH1 0xA0 SHL SUB AND EQ PUSH2 0xCE3 JUMPI POP PUSH1 0x1 ADD PUSH2 0xCAE JUMP JUMPDEST SWAP2 SWAP3 SWAP2 PUSH0 NOT DUP2 ADD SWAP2 SWAP1 DUP3 GT PUSH2 0xD81 JUMPI PUSH2 0x238 PUSH2 0xD02 PUSH2 0xD1B SWAP4 DUP6 PUSH2 0x28DF JUMP JUMPDEST SWAP1 SLOAD PUSH1 0x3 SWAP2 SWAP1 SWAP2 SHL SHR PUSH1 0x1 PUSH1 0x1 PUSH1 0xA0 SHL SUB AND SWAP2 DUP5 PUSH2 0x28DF JUMP JUMPDEST DUP1 SLOAD DUP1 ISZERO PUSH2 0xD6D JUMPI PUSH0 NOT ADD SWAP1 PUSH2 0xD31 DUP3 DUP3 PUSH2 0x28DF JUMP JUMPDEST DUP2 SLOAD SWAP1 PUSH1 0x1 DUP1 PUSH1 0xA0 SHL SUB SWAP1 PUSH1 0x3 SHL SHL NOT AND SWAP1 SSTORE SSTORE JUMPDEST CALLER PUSH32 0xD1662978C81E15F621E7A38524048493C6E86D91A24A29619D164BEF0A8D0A98 PUSH0 DUP1 LOG4 STOP JUMPDEST PUSH4 0x4E487B71 PUSH1 0xE0 SHL PUSH0 MSTORE PUSH1 0x31 PUSH1 0x4 MSTORE PUSH1 0x24 PUSH0 REVERT JUMPDEST PUSH4 0x4E487B71 PUSH1 0xE0 SHL PUSH0 MSTORE PUSH1 0x11 PUSH1 0x4 MSTORE PUSH1 0x24 PUSH0 REVERT JUMPDEST POP POP SWAP1 POP PUSH2 0xD46 JUMP JUMPDEST PUSH1 0x40 MLOAD PUSH3 0x461BCD PUSH1 0xE5 SHL DUP2 MSTORE PUSH1 0x20 PUSH1 0x4 DUP3 ADD MSTORE PUSH1 0xE PUSH1 0x24 DUP3 ADD MSTORE PUSH14 0x139BDD08185D5D1A1BDC9A5E9959 PUSH1 0x92 SHL PUSH1 0x44 DUP3 ADD MSTORE PUSH1 0x64 SWAP1 REVERT JUMPDEST CALLVALUE PUSH2 0x2D1 JUMPI PUSH1 0xA0 CALLDATASIZE PUSH1 0x3 NOT ADD SLT PUSH2 0x2D1 JUMPI PUSH2 0xDED PUSH2 0x2178 JUMP JUMPDEST PUSH1 0x24 CALLDATALOAD PUSH1 0x1 PUSH1 0x1 PUSH1 0x40 SHL SUB DUP2 GT PUSH2 0x2D1 JUMPI PUSH2 0xE0C SWAP1 CALLDATASIZE SWAP1 PUSH1 0x4 ADD PUSH2 0x227A JUMP JUMPDEST PUSH1 0x44 CALLDATALOAD PUSH1 0x1 PUSH1 0x1 PUSH1 0x40 SHL SUB DUP2 GT PUSH2 0x2D1 JUMPI PUSH2 0xE2B SWAP1 CALLDATASIZE SWAP1 PUSH1 0x4 ADD PUSH2 0x227A JUMP JUMPDEST SWAP1 SWAP3 PUSH1 0x64 CALLDATALOAD PUSH1 0x1 PUSH1 0x1 PUSH1 0x40 SHL SUB DUP2 GT PUSH2 0x2D1 JUMPI PUSH2 0xE4C SWAP1 CALLDATASIZE SWAP1 PUSH1 0x4 ADD PUSH2 0x227A JUMP JUMPDEST SWAP2 SWAP1 SWAP6 PUSH1 0x84 CALLDATALOAD PUSH1 0x1 PUSH1 0x1 PUSH1 0x40 SHL SUB DUP2 GT PUSH2 0x2D1 JUMPI PUSH2 0xE6E SWAP1 CALLDATASIZE SWAP1 PUSH1 0x4 ADD PUSH2 0x224A JUMP JUMPDEST PUSH1 0x1 PUSH1 0x1 PUSH1 0xA0 SHL SUB DUP4 AND ISZERO SWAP9 SWAP2 SWAP8 SWAP1 PUSH2 0xE87 DUP11 ISZERO PUSH2 0x2896 JUMP JUMPDEST PUSH1 0xD SLOAD SWAP9 PUSH2 0xE94 DUP11 PUSH2 0x28D1 JUMP JUMPDEST PUSH1 0xD SSTORE PUSH1 0x40 MLOAD PUSH1 0x20 SWAP12 PUSH2 0xEA7 DUP14 DUP4 PUSH2 0x22DD JUMP JUMPDEST PUSH0 DUP3 MSTORE PUSH2 0x13B6 JUMPI PUSH1 0x1 PUSH1 0x1 PUSH1 0xA0 SHL SUB PUSH2 0xEC0 DUP13 DUP9 PUSH2 0x2A11 JUMP JUMPDEST AND PUSH2 0x13A3 JUMPI DUP6 EXTCODESIZE PUSH2 0x1265 JUMPI JUMPDEST POP PUSH0 JUMPDEST DUP3 DUP2 LT PUSH2 0x123D JUMPI POP POP POP SWAP1 PUSH2 0xF02 PUSH2 0xF10 SWAP3 PUSH1 0x40 MLOAD SWAP8 PUSH2 0xEEE DUP10 PUSH2 0x22C2 JUMP JUMPDEST PUSH2 0xEF9 CALLDATASIZE DUP12 DUP10 PUSH2 0x2319 JUMP JUMPDEST DUP10 MSTORE CALLDATASIZE SWAP2 PUSH2 0x2319 JUMP JUMPDEST SWAP5 DUP10 DUP8 ADD SWAP6 DUP7 MSTORE CALLDATASIZE SWAP2 PUSH2 0x2319 JUMP JUMPDEST SWAP3 PUSH1 0x40 DUP6 ADD SWAP4 DUP5 MSTORE PUSH1 0x60 DUP6 ADD SWAP4 PUSH0 DUP6 MSTORE PUSH1 0x80 DUP7 ADD PUSH0 DUP2 MSTORE PUSH1 0xA0 DUP8 ADD SWAP2 TIMESTAMP DUP4 MSTORE TIMESTAMP PUSH1 0xC0 DUP10 ADD MSTORE DUP10 PUSH0 MSTORE PUSH1 0xC DUP12 MSTORE PUSH1 0x40 PUSH0 KECCAK256 SWAP4 DUP9 MLOAD DUP1 MLOAD PUSH1 0x1 PUSH1 0x1 PUSH1 0x40 SHL SUB DUP2 GT PUSH2 0x283 JUMPI PUSH2 0xF67 DUP2 PUSH2 0xF61 DUP10 SLOAD PUSH2 0x234F JUMP JUMPDEST DUP10 PUSH2 0x26BD JUMP JUMPDEST DUP14 DUP1 PUSH1 0x1F DUP4 GT PUSH1 0x1 EQ PUSH2 0x11D8 JUMPI POP DUP2 SWAP1 PUSH2 0xF96 SWAP4 PUSH0 SWAP3 PUSH2 0x1168 JUMPI JUMPDEST POP POP DUP2 PUSH1 0x1 SHL SWAP2 PUSH0 NOT SWAP1 PUSH1 0x3 SHL SHR NOT AND OR SWAP1 JUMP JUMPDEST DUP6 SSTORE JUMPDEST PUSH1 0x1 DUP6 ADD SWAP1 MLOAD DUP1 MLOAD PUSH1 0x1 PUSH1 0x1 PUSH1 0x40 SHL SUB DUP2 GT PUSH2 0x283 JUMPI PUSH2 0xFC3 DUP2 PUSH2 0xFBD DUP6 SLOAD PUSH2 0x234F JUMP JUMPDEST DUP6 PUSH2 0x26BD JUMP JUMPDEST DUP14 DUP1 PUSH1 0x1F DUP4 GT PUSH1 0x1 EQ PUSH2 0x1173 JUMPI POP DUP2 SWAP1 PUSH2 0xFF1 SWAP4 PUSH0 SWAP3 PUSH2 0x1168 JUMPI POP POP DUP2 PUSH1 0x1 SHL SWAP2 PUSH0 NOT SWAP1 PUSH1 0x3 SHL SHR NOT AND OR SWAP1 JUMP JUMPDEST SWAP1 SSTORE JUMPDEST MLOAD SWAP6 DUP7 MLOAD PUSH1 0x1 PUSH1 0x1 PUSH1 0x40 SHL SUB DUP2 GT PUSH2 0x283 JUMPI DUP11 SWAP8 PUSH2 0x1022 DUP3 PUSH2 0x1019 PUSH1 0x2 DUP10 ADD SLOAD PUSH2 0x234F JUMP JUMPDEST PUSH1 0x2 DUP10 ADD PUSH2 0x26BD JUMP JUMPDEST DUP13 SWAP1 PUSH1 0x1F DUP4 GT PUSH1 0x1 EQ PUSH2 0x10CB JUMPI SWAP3 PUSH2 0x107A DUP4 PUSH1 0x6 SWAP8 SWAP5 PUSH1 0xC0 SWAP8 SWAP5 PUSH32 0x4163BFAC127160E0F9F156AD45F09360DFE365C4FCDF394C40BDFECE890EE6F7 SWAP14 SWAP15 SWAP8 PUSH0 SWAP3 PUSH2 0x10C0 JUMPI POP POP DUP2 PUSH1 0x1 SHL SWAP2 PUSH0 NOT SWAP1 PUSH1 0x3 SHL SHR NOT AND OR SWAP1 JUMP JUMPDEST PUSH1 0x2 DUP9 ADD SSTORE JUMPDEST MLOAD PUSH1 0x3 DUP8 ADD SSTORE MLOAD PUSH1 0x4 DUP7 ADD SSTORE MLOAD PUSH1 0x5 DUP6 ADD SSTORE ADD MLOAD SWAP2 ADD SSTORE PUSH2 0x10B5 PUSH1 0x40 MLOAD SWAP3 DUP4 SWAP3 DUP10 DUP5 MSTORE PUSH1 0x1 DUP1 PUSH1 0xA0 SHL SUB AND SWAP7 DUP10 DUP5 ADD SWAP2 PUSH2 0x2862 JUMP JUMPDEST SUB SWAP1 LOG3 PUSH1 0x40 MLOAD SWAP1 DUP2 MSTORE RETURN JUMPDEST ADD MLOAD SWAP1 POP PUSH0 DUP1 PUSH2 0xF82 JUMP JUMPDEST SWAP1 DUP14 SWAP2 PUSH1 0x2 DUP9 ADD PUSH0 MSTORE DUP3 PUSH0 KECCAK256 SWAP3 PUSH0 SWAP1 JUMPDEST PUSH1 0x1F NOT DUP7 AND DUP3 LT PUSH2 0x114C JUMPI POP POP DUP4 PUSH1 0xC0 SWAP7 SWAP4 PUSH32 0x4163BFAC127160E0F9F156AD45F09360DFE365C4FCDF394C40BDFECE890EE6F7 SWAP13 SWAP14 SWAP7 SWAP4 PUSH1 0x1 SWAP4 PUSH1 0x6 SWAP11 SWAP8 PUSH1 0x1F NOT DUP2 AND LT PUSH2 0x1134 JUMPI JUMPDEST POP POP POP DUP2 SHL ADD PUSH1 0x2 DUP9 ADD SSTORE PUSH2 0x1080 JUMP JUMPDEST ADD MLOAD PUSH0 NOT PUSH1 0xF8 DUP5 PUSH1 0x3 SHL AND SHR NOT AND SWAP1 SSTORE PUSH0 DUP1 DUP1 PUSH2 0x1124 JUMP JUMPDEST DUP4 DUP4 ADD MLOAD DUP6 SSTORE DUP16 SWAP13 POP PUSH1 0x1 SWAP1 SWAP5 ADD SWAP4 SWAP3 DUP4 ADD SWAP3 SWAP1 DUP2 ADD SWAP1 PUSH2 0x10DB JUMP JUMPDEST ADD MLOAD SWAP1 POP DUP16 DUP1 PUSH2 0xF82 JUMP JUMPDEST SWAP2 SWAP3 PUSH1 0x1F NOT DUP5 AND DUP6 PUSH0 MSTORE DUP4 PUSH0 KECCAK256 SWAP4 PUSH0 SWAP1 JUMPDEST DUP3 DUP3 LT PUSH2 0x11C0 JUMPI POP POP SWAP1 DUP5 PUSH1 0x1 SWAP6 SWAP5 SWAP4 SWAP3 LT PUSH2 0x11A8 JUMPI JUMPDEST POP POP POP DUP2 SHL ADD SWAP1 SSTORE PUSH2 0xFF4 JUMP JUMPDEST ADD MLOAD PUSH0 NOT PUSH1 0xF8 DUP5 PUSH1 0x3 SHL AND SHR NOT AND SWAP1 SSTORE DUP15 DUP1 DUP1 PUSH2 0x119B JUMP JUMPDEST DUP1 PUSH1 0x1 DUP7 SWAP8 DUP3 SWAP5 SWAP8 DUP8 ADD MLOAD DUP2 SSTORE ADD SWAP7 ADD SWAP5 ADD SWAP1 PUSH2 0x1184 JUMP JUMPDEST SWAP2 SWAP3 PUSH1 0x1F NOT DUP5 AND DUP10 PUSH0 MSTORE DUP4 PUSH0 KECCAK256 SWAP4 PUSH0 SWAP1 JUMPDEST DUP3 DUP3 LT PUSH2 0x1225 JUMPI POP POP SWAP1 DUP5 PUSH1 0x1 SWAP6 SWAP5 SWAP4 SWAP3 LT PUSH2 0x120D JUMPI JUMPDEST POP POP POP DUP2 SHL ADD DUP6 SSTORE PUSH2 0xF99 JUMP JUMPDEST ADD MLOAD PUSH0 NOT PUSH1 0xF8 DUP5 PUSH1 0x3 SHL AND SHR NOT AND SWAP1 SSTORE DUP15 DUP1 DUP1 PUSH2 0x1200 JUMP JUMPDEST DUP1 PUSH1 0x1 DUP7 SWAP8 DUP3 SWAP5 SWAP8 DUP8 ADD MLOAD DUP2 SSTORE ADD SWAP7 ADD SWAP5 ADD SWAP1 PUSH2 0x11E9 JUMP JUMPDEST PUSH1 0x1 SWAP1 DUP12 PUSH0 MSTORE PUSH1 0x9 DUP14 MSTORE PUSH2 0x125F PUSH1 0x40 PUSH0 KECCAK256 PUSH2 0x1259 DUP4 DUP8 DUP8 PUSH2 0x265C JUMP JUMPDEST SWAP1 PUSH2 0x2700 JUMP JUMPDEST ADD PUSH2 0xECF JUMP JUMPDEST DUP12 PUSH2 0x12AB SWAP2 DUP8 DUP14 SWAP9 SWAP15 SWAP14 PUSH0 PUSH1 0x40 SWAP15 SWAP14 SWAP13 SWAP12 SWAP11 SWAP15 MLOAD DUP1 SWAP7 DUP2 SWAP6 DUP3 SWAP5 PUSH4 0xA85BD01 PUSH1 0xE1 SHL DUP5 MSTORE CALLER PUSH1 0x4 DUP6 ADD MSTORE DUP5 PUSH1 0x24 DUP6 ADD MSTORE PUSH1 0x44 DUP5 ADD MSTORE PUSH1 0x80 PUSH1 0x64 DUP5 ADD MSTORE PUSH1 0x84 DUP4 ADD SWAP1 PUSH2 0x2154 JUMP JUMPDEST SUB SWAP3 PUSH1 0x1 PUSH1 0x1 PUSH1 0xA0 SHL SUB AND GAS CALL PUSH0 SWAP2 DUP2 PUSH2 0x1363 JUMPI JUMPDEST POP PUSH2 0x1320 JUMPI DUP12 DUP12 RETURNDATASIZE ISZERO PUSH2 0x1318 JUMPI RETURNDATASIZE SWAP1 PUSH2 0x12D8 DUP3 PUSH2 0x22FE JUMP JUMPDEST SWAP2 PUSH2 0x12E6 PUSH1 0x40 MLOAD SWAP4 DUP5 PUSH2 0x22DD JUMP JUMPDEST DUP3 MSTORE RETURNDATASIZE PUSH0 DUP3 DUP5 ADD RETURNDATACOPY JUMPDEST DUP2 MLOAD SWAP2 DUP3 PUSH2 0x1315 JUMPI PUSH4 0x32505749 PUSH1 0xE1 SHL PUSH0 SWAP1 DUP2 MSTORE PUSH1 0x1 PUSH1 0x1 PUSH1 0xA0 SHL SUB DUP6 AND PUSH1 0x4 MSTORE PUSH1 0x24 SWAP1 REVERT JUMPDEST ADD REVERT JUMPDEST PUSH1 0x60 SWAP1 PUSH2 0x12EF JUMP JUMPDEST PUSH4 0xA85BD01 PUSH1 0xE1 SWAP13 SWAP7 SWAP8 SWAP9 SWAP10 SWAP11 SWAP12 SWAP13 SHL SWAP1 PUSH4 0xFFFFFFFF PUSH1 0xE0 SHL AND SUB PUSH2 0x1345 JUMPI DUP12 PUSH2 0xECC JUMP JUMPDEST PUSH4 0x32505749 PUSH1 0xE1 SHL PUSH0 SWAP1 DUP2 MSTORE PUSH1 0x1 PUSH1 0x1 PUSH1 0xA0 SHL SUB DUP7 AND PUSH1 0x4 MSTORE PUSH1 0x24 SWAP1 REVERT JUMPDEST SWAP1 SWAP2 POP DUP12 DUP2 DUP2 RETURNDATASIZE DUP4 GT PUSH2 0x139C JUMPI JUMPDEST PUSH2 0x137B DUP2 DUP4 PUSH2 0x22DD JUMP JUMPDEST DUP2 ADD SUB SLT PUSH2 0x2D1 JUMPI MLOAD PUSH1 0x1 PUSH1 0x1 PUSH1 0xE0 SHL SUB NOT DUP2 AND DUP2 SUB PUSH2 0x2D1 JUMPI SWAP1 DUP14 PUSH2 0x12C0 JUMP JUMPDEST POP RETURNDATASIZE PUSH2 0x1371 JUMP JUMPDEST PUSH4 0x39E35637 PUSH1 0xE1 SHL PUSH0 MSTORE PUSH0 PUSH1 0x4 MSTORE PUSH1 0x24 PUSH0 REVERT JUMPDEST PUSH4 0x32505749 PUSH1 0xE1 SHL PUSH0 MSTORE PUSH0 PUSH1 0x4 MSTORE PUSH1 0x24 PUSH0 REVERT JUMPDEST CALLVALUE PUSH2 0x2D1 JUMPI PUSH1 0x80 CALLDATASIZE PUSH1 0x3 NOT ADD SLT PUSH2 0x2D1 JUMPI PUSH2 0x13E2 PUSH2 0x2178 JUMP JUMPDEST PUSH2 0x13EA PUSH2 0x218E JUMP JUMPDEST SWAP1 PUSH1 0x44 CALLDATALOAD PUSH1 0x64 CALLDATALOAD SWAP3 PUSH1 0x1 PUSH1 0x1 PUSH1 0x40 SHL SUB DUP5 GT PUSH2 0x2D1 JUMPI CALLDATASIZE PUSH1 0x23 DUP6 ADD SLT ISZERO PUSH2 0x2D1 JUMPI PUSH2 0x1422 PUSH2 0x1434 SWAP5 CALLDATASIZE SWAP1 PUSH1 0x24 DUP2 PUSH1 0x4 ADD CALLDATALOAD SWAP2 ADD PUSH2 0x2319 JUMP JUMPDEST SWAP3 PUSH2 0x142E DUP4 DUP4 DUP4 PUSH2 0x2427 JUMP JUMPDEST CALLER PUSH2 0x2AD5 JUMP JUMPDEST STOP JUMPDEST CALLVALUE PUSH2 0x2D1 JUMPI PUSH0 CALLDATASIZE PUSH1 0x3 NOT ADD SLT PUSH2 0x2D1 JUMPI PUSH1 0xD SLOAD PUSH0 NOT DUP2 ADD SWAP1 DUP2 GT PUSH2 0xD81 JUMPI PUSH1 0x20 SWAP1 PUSH1 0x40 MLOAD SWAP1 DUP2 MSTORE RETURN JUMPDEST CALLVALUE PUSH2 0x2D1 JUMPI PUSH1 0x40 CALLDATASIZE PUSH1 0x3 NOT ADD SLT PUSH2 0x2D1 JUMPI PUSH2 0x1478 PUSH2 0x2178 JUMP JUMPDEST PUSH1 0x24 CALLDATALOAD SWAP1 DUP2 ISZERO ISZERO DUP1 SWAP3 SUB PUSH2 0x2D1 JUMPI CALLER ISZERO PUSH2 0x1500 JUMPI PUSH1 0x1 PUSH1 0x1 PUSH1 0xA0 SHL SUB AND SWAP1 DUP2 ISZERO PUSH2 0x14ED JUMPI CALLER PUSH0 MSTORE PUSH1 0x5 PUSH1 0x20 MSTORE PUSH1 0x40 PUSH0 KECCAK256 DUP3 PUSH0 MSTORE PUSH1 0x20 MSTORE PUSH1 0x40 PUSH0 KECCAK256 PUSH1 0xFF NOT DUP2 SLOAD AND PUSH1 0xFF DUP4 AND OR SWAP1 SSTORE PUSH1 0x40 MLOAD SWAP1 DUP2 MSTORE PUSH32 0x17307EAB39AB6107E8899845AD3D59BD9653F200F220920489CA2B5937696C31 PUSH1 0x20 CALLER SWAP3 LOG3 STOP JUMPDEST POP PUSH4 0xB611743 PUSH1 0xE3 SHL PUSH0 MSTORE PUSH1 0x4 MSTORE PUSH1 0x24 PUSH0 REVERT JUMPDEST PUSH4 0xA9FBF51F PUSH1 0xE0 SHL PUSH0 MSTORE PUSH0 PUSH1 0x4 MSTORE PUSH1 0x24 PUSH0 REVERT JUMPDEST CALLVALUE PUSH2 0x2D1 JUMPI PUSH1 0x20 CALLDATASIZE PUSH1 0x3 NOT ADD SLT PUSH2 0x2D1 JUMPI PUSH2 0x152C PUSH2 0x2178 JUMP JUMPDEST CALLER PUSH0 DUP2 DUP2 MSTORE PUSH1 0x8 PUSH1 0x20 MSTORE PUSH1 0x40 DUP2 KECCAK256 DUP1 SLOAD PUSH1 0x1 PUSH1 0x1 PUSH1 0xA0 SHL SUB NOT AND PUSH1 0x1 PUSH1 0x1 PUSH1 0xA0 SHL SUB SWAP5 SWAP1 SWAP5 AND SWAP4 DUP5 OR SWAP1 SSTORE PUSH32 0x57A5F7CE01AFFD949C0EFD1484FD811D31FF5C8CA21C7006F5F4DE7292F26DE4 SWAP1 DUP1 LOG3 STOP JUMPDEST CALLVALUE PUSH2 0x2D1 JUMPI PUSH0 CALLDATASIZE PUSH1 0x3 NOT ADD SLT PUSH2 0x2D1 JUMPI PUSH1 0x40 MLOAD PUSH0 PUSH1 0x1 SLOAD PUSH2 0x159D DUP2 PUSH2 0x234F JUMP JUMPDEST DUP1 DUP5 MSTORE SWAP1 PUSH1 0x1 DUP2 AND SWAP1 DUP2 ISZERO PUSH2 0x1623 JUMPI POP PUSH1 0x1 EQ PUSH2 0x15C5 JUMPI JUMPDEST PUSH2 0xC21 DUP4 PUSH2 0xC0D DUP2 DUP6 SUB DUP3 PUSH2 0x22DD JUMP JUMPDEST PUSH1 0x1 PUSH0 SWAP1 DUP2 MSTORE PUSH32 0xB10E2D527612073B26EECDFD717E6A320CF44B4AFAC2B0732D9FCBE2B7FA0CF6 SWAP4 SWAP3 POP SWAP1 JUMPDEST DUP1 DUP3 LT PUSH2 0x1609 JUMPI POP SWAP1 SWAP2 POP DUP2 ADD PUSH1 0x20 ADD PUSH2 0xC0D PUSH2 0x15B5 JUMP JUMPDEST SWAP2 SWAP3 PUSH1 0x1 DUP2 PUSH1 0x20 SWAP3 SLOAD DUP4 DUP6 DUP9 ADD ADD MSTORE ADD SWAP2 ADD SWAP1 SWAP3 SWAP2 PUSH2 0x15F1 JUMP JUMPDEST PUSH1 0xFF NOT AND PUSH1 0x20 DUP1 DUP7 ADD SWAP2 SWAP1 SWAP2 MSTORE SWAP2 ISZERO ISZERO PUSH1 0x5 SHL DUP5 ADD SWAP1 SWAP2 ADD SWAP2 POP PUSH2 0xC0D SWAP1 POP PUSH2 0x15B5 JUMP JUMPDEST CALLVALUE PUSH2 0x2D1 JUMPI PUSH0 CALLDATASIZE PUSH1 0x3 NOT ADD SLT PUSH2 0x2D1 JUMPI PUSH1 0x6 SLOAD PUSH1 0x40 MLOAD PUSH1 0x1 PUSH1 0x1 PUSH1 0xA0 SHL SUB SWAP1 SWAP2 AND DUP2 MSTORE PUSH1 0x20 SWAP1 RETURN JUMPDEST CALLVALUE PUSH2 0x2D1 JUMPI PUSH1 0x60 CALLDATASIZE PUSH1 0x3 NOT ADD SLT PUSH2 0x2D1 JUMPI PUSH1 0x4 CALLDATALOAD PUSH1 0x24 CALLDATALOAD PUSH1 0x1 PUSH1 0x1 PUSH1 0x40 SHL SUB DUP2 GT PUSH2 0x2D1 JUMPI PUSH2 0x16A2 SWAP1 CALLDATASIZE SWAP1 PUSH1 0x4 ADD PUSH2 0x227A JUMP JUMPDEST SWAP2 SWAP1 PUSH1 0x44 CALLDATALOAD PUSH1 0x1 PUSH1 0x1 PUSH1 0x40 SHL SUB DUP2 GT PUSH2 0x2D1 JUMPI PUSH2 0x16C3 SWAP1 CALLDATASIZE SWAP1 PUSH1 0x4 ADD PUSH2 0x227A JUMP JUMPDEST SWAP4 SWAP1 PUSH2 0x16D1 PUSH2 0x1A4 DUP6 PUSH2 0x29DD JUMP JUMPDEST DUP4 PUSH0 MSTORE PUSH1 0xC PUSH1 0x20 MSTORE PUSH1 0x40 PUSH0 KECCAK256 SWAP5 PUSH1 0x1 DUP7 ADD PUSH1 0x1 PUSH1 0x1 PUSH1 0x40 SHL SUB DUP5 GT PUSH2 0x283 JUMPI PUSH2 0x1704 DUP5 PUSH2 0x16FE DUP4 SLOAD PUSH2 0x234F JUMP JUMPDEST DUP4 PUSH2 0x26BD JUMP JUMPDEST PUSH0 DUP5 PUSH1 0x1F DUP2 GT PUSH1 0x1 EQ PUSH2 0x187C JUMPI DUP1 PUSH2 0x1730 SWAP3 PUSH0 SWAP2 PUSH2 0x1871 JUMPI JUMPDEST POP DUP2 PUSH1 0x1 SHL SWAP2 PUSH0 NOT SWAP1 PUSH1 0x3 SHL SHR NOT AND OR SWAP1 JUMP JUMPDEST SWAP1 SSTORE JUMPDEST PUSH1 0x2 DUP7 ADD SWAP6 PUSH1 0x1 PUSH1 0x1 PUSH1 0x40 SHL SUB DUP3 GT PUSH2 0x283 JUMPI PUSH2 0x1754 DUP3 PUSH2 0xF61 DUP10 SLOAD PUSH2 0x234F JUMP JUMPDEST PUSH0 SWAP7 PUSH1 0x1F DUP4 GT PUSH1 0x1 EQ PUSH2 0x17E7 JUMPI SWAP1 DUP3 SWAP2 PUSH2 0x17A9 DUP4 PUSH2 0x17D7 SWAP7 SWAP6 PUSH32 0xB6797532CD72C15EBA6BEC2CD9DC1E0F16C7E86EFFD0DBF27D5115C6FDAFCDBA SWAP11 SWAP12 PUSH0 SWAP2 PUSH2 0x17DC JUMPI POP DUP2 PUSH1 0x1 SHL SWAP2 PUSH0 NOT SWAP1 PUSH1 0x3 SHL SHR NOT AND OR SWAP1 JUMP JUMPDEST SWAP1 SSTORE JUMPDEST PUSH1 0x6 TIMESTAMP SWAP2 ADD SSTORE PUSH2 0x17C9 PUSH1 0x40 MLOAD SWAP6 DUP7 SWAP6 PUSH1 0x40 DUP8 MSTORE PUSH1 0x40 DUP8 ADD SWAP2 PUSH2 0x2862 JUMP JUMPDEST SWAP2 DUP5 DUP4 SUB PUSH1 0x20 DUP7 ADD MSTORE PUSH2 0x2862 JUMP JUMPDEST SUB SWAP1 LOG2 STOP JUMPDEST SWAP1 POP DUP7 ADD CALLDATALOAD DUP13 PUSH2 0x171D JUMP JUMPDEST PUSH1 0x1F NOT DUP4 AND DUP2 PUSH0 MSTORE PUSH1 0x20 PUSH0 KECCAK256 SWAP1 PUSH0 JUMPDEST DUP2 DUP2 LT PUSH2 0x1859 JUMPI POP SWAP1 PUSH32 0xB6797532CD72C15EBA6BEC2CD9DC1E0F16C7E86EFFD0DBF27D5115C6FDAFCDBA SWAP9 SWAP10 DUP6 PUSH2 0x17D7 SWAP8 SWAP7 SWAP6 SWAP5 SWAP4 LT PUSH2 0x1840 JUMPI JUMPDEST POP POP PUSH1 0x1 DUP4 DUP2 SHL ADD SWAP1 SSTORE PUSH2 0x17AC JUMP JUMPDEST DUP6 ADD CALLDATALOAD PUSH0 NOT PUSH1 0x3 DUP7 SWAP1 SHL PUSH1 0xF8 AND SHR NOT AND SWAP1 SSTORE DUP10 DUP1 PUSH2 0x1831 JUMP JUMPDEST DUP7 DUP12 ADD CALLDATALOAD DUP4 SSTORE PUSH1 0x20 SWAP11 DUP12 ADD SWAP11 PUSH1 0x1 SWAP1 SWAP4 ADD SWAP3 ADD PUSH2 0x17F6 JUMP JUMPDEST SWAP1 POP DUP8 ADD CALLDATALOAD DUP11 PUSH2 0x171D JUMP JUMPDEST POP PUSH1 0x1F NOT DUP6 AND SWAP1 DUP3 PUSH0 MSTORE DUP6 PUSH1 0x20 PUSH0 KECCAK256 SWAP3 PUSH0 JUMPDEST DUP2 DUP2 LT PUSH2 0x18C4 JUMPI POP LT PUSH2 0x18AB JUMPI JUMPDEST POP POP PUSH1 0x1 DUP5 DUP2 SHL ADD SWAP1 SSTORE PUSH2 0x1733 JUMP JUMPDEST DUP7 ADD CALLDATALOAD PUSH0 NOT PUSH1 0x3 DUP8 SWAP1 SHL PUSH1 0xF8 AND SHR NOT AND SWAP1 SSTORE DUP8 DUP1 PUSH2 0x189C JUMP JUMPDEST DUP10 DUP5 ADD CALLDATALOAD DUP6 SSTORE PUSH1 0x1 SWAP1 SWAP5 ADD SWAP4 PUSH1 0x20 SWAP4 DUP5 ADD SWAP4 DUP10 SWAP4 POP ADD PUSH2 0x188E JUMP JUMPDEST CALLVALUE PUSH2 0x2D1 JUMPI PUSH0 CALLDATASIZE PUSH1 0x3 NOT ADD SLT PUSH2 0x2D1 JUMPI PUSH2 0x18F7 PUSH2 0x29B6 JUMP JUMPDEST PUSH1 0x6 DUP1 SLOAD PUSH1 0x1 PUSH1 0x1 PUSH1 0xA0 SHL SUB NOT DUP2 AND SWAP1 SWAP2 SSTORE PUSH0 SWAP1 PUSH1 0x1 PUSH1 0x1 PUSH1 0xA0 SHL SUB AND PUSH32 0x8BE0079C531659141344CD1FD0A4F28419497F9722A3DAAFE3B4186F6B6457E0 DUP3 DUP1 LOG3 STOP JUMPDEST CALLVALUE PUSH2 0x2D1 JUMPI PUSH1 0x20 CALLDATASIZE PUSH1 0x3 NOT ADD SLT PUSH2 0x2D1 JUMPI PUSH1 0x1 PUSH1 0x1 PUSH1 0xA0 SHL SUB PUSH2 0x195B PUSH2 0x2178 JUMP JUMPDEST AND DUP1 ISZERO PUSH2 0x1978 JUMPI PUSH0 MSTORE PUSH1 0x3 PUSH1 0x20 MSTORE PUSH1 0x20 PUSH1 0x40 PUSH0 KECCAK256 SLOAD PUSH1 0x40 MLOAD SWAP1 DUP2 MSTORE RETURN JUMPDEST PUSH4 0x22718AD9 PUSH1 0xE2 SHL PUSH0 MSTORE PUSH0 PUSH1 0x4 MSTORE PUSH1 0x24 PUSH0 REVERT JUMPDEST CALLVALUE PUSH2 0x2D1 JUMPI PUSH1 0x40 CALLDATASIZE PUSH1 0x3 NOT ADD SLT PUSH2 0x2D1 JUMPI PUSH1 0x4 CALLDATALOAD PUSH1 0x24 CALLDATALOAD PUSH1 0x1 PUSH1 0x1 PUSH1 0x40 SHL SUB DUP2 GT PUSH2 0x2D1 JUMPI PUSH2 0x19BE SWAP1 CALLDATASIZE SWAP1 PUSH1 0x4 ADD PUSH2 0x224A JUMP JUMPDEST PUSH2 0x19CC PUSH2 0x1A4 DUP5 SWAP4 SWAP5 PUSH2 0x29DD JUMP JUMPDEST DUP1 ISZERO PUSH2 0x1BE8 JUMPI DUP2 PUSH0 MSTORE PUSH1 0x9 PUSH1 0x20 MSTORE PUSH1 0x40 PUSH0 KECCAK256 SWAP1 DUP2 SLOAD PUSH2 0x19EA DUP2 PUSH2 0x25F7 JUMP JUMPDEST SWAP3 PUSH2 0x19F8 PUSH1 0x40 MLOAD SWAP5 DUP6 PUSH2 0x22DD JUMP JUMPDEST DUP2 DUP5 MSTORE PUSH1 0x20 DUP5 ADD SWAP1 PUSH0 MSTORE PUSH1 0x20 PUSH0 KECCAK256 PUSH0 SWAP2 JUMPDEST DUP4 DUP4 LT PUSH2 0x1BB4 JUMPI POP POP POP POP DUP3 PUSH0 MSTORE PUSH1 0x9 PUSH1 0x20 MSTORE PUSH1 0x40 PUSH0 KECCAK256 DUP1 SLOAD SWAP1 PUSH0 DUP2 SSTORE DUP2 PUSH2 0x1B2A JUMPI JUMPDEST POP POP SWAP3 PUSH0 JUMPDEST DUP5 DUP2 LT PUSH2 0x1B01 JUMPI POP DUP3 PUSH0 MSTORE PUSH1 0xC PUSH1 0x20 MSTORE TIMESTAMP PUSH1 0x6 PUSH1 0x40 PUSH0 KECCAK256 ADD SSTORE PUSH2 0x1A5F PUSH1 0x40 MLOAD SWAP3 PUSH1 0x40 DUP5 MSTORE PUSH1 0x40 DUP5 ADD SWAP1 PUSH2 0x21DE JUMP JUMPDEST SWAP4 DUP3 DUP6 SUB PUSH1 0x20 DUP5 ADD MSTORE DUP1 DUP6 MSTORE PUSH1 0x20 DUP6 ADD SWAP5 PUSH1 0x20 DUP3 PUSH1 0x5 SHL DUP3 ADD ADD SWAP6 DUP4 PUSH0 SWAP3 JUMPDEST DUP5 DUP5 LT PUSH2 0x1AAE JUMPI DUP8 PUSH32 0x950EA0F010B000D7CFC9EF49213D3385D8512DD80DE45CE2FBF8FC123C4F9A4 DUP9 DUP12 SUB DUP10 LOG2 STOP JUMPDEST SWAP1 SWAP2 SWAP3 SWAP4 SWAP5 SWAP8 PUSH1 0x20 DUP1 PUSH1 0x1 SWAP3 PUSH1 0x1F NOT DUP6 DUP3 SUB ADD DUP8 MSTORE PUSH2 0x1ACD DUP13 DUP8 PUSH2 0x2882 JUMP JUMPDEST SWAP1 DUP3 DUP1 PUSH2 0x1AEB PUSH2 0x1ADD DUP6 DUP1 PUSH2 0x2831 JUMP JUMPDEST PUSH1 0x40 DUP7 MSTORE PUSH1 0x40 DUP7 ADD SWAP2 PUSH2 0x2862 JUMP JUMPDEST SWAP4 ADD CALLDATALOAD SWAP2 ADD MSTORE SWAP11 ADD SWAP5 ADD SWAP5 ADD SWAP3 SWAP5 SWAP4 SWAP2 SWAP1 PUSH2 0x1A7E JUMP JUMPDEST PUSH1 0x1 SWAP1 DUP5 PUSH0 SWAP7 SWAP4 SWAP7 MSTORE PUSH1 0x9 PUSH1 0x20 MSTORE PUSH2 0x1B21 PUSH1 0x40 PUSH0 KECCAK256 PUSH2 0x1259 DUP4 DUP7 DUP11 PUSH2 0x265C JUMP JUMPDEST ADD SWAP4 SWAP1 SWAP4 PUSH2 0x1A31 JUMP JUMPDEST PUSH1 0x1 PUSH1 0x1 PUSH1 0xFF SHL SUB DUP3 AND DUP3 SUB PUSH2 0xD81 JUMPI PUSH0 MSTORE PUSH1 0x20 PUSH0 KECCAK256 SWAP1 PUSH1 0x1 SHL DUP2 ADD SWAP1 JUMPDEST DUP2 DUP2 LT ISZERO PUSH2 0x1A2C JUMPI DUP1 PUSH2 0x1B5D PUSH1 0x2 SWAP3 SLOAD PUSH2 0x234F JUMP JUMPDEST DUP1 PUSH2 0x1B70 JUMPI JUMPDEST POP PUSH0 PUSH1 0x1 DUP3 ADD SSTORE ADD PUSH2 0x1B48 JUMP JUMPDEST PUSH1 0x1F DUP2 GT PUSH1 0x1 EQ PUSH2 0x1B86 JUMPI POP PUSH0 DUP2 SSTORE JUMPDEST DUP8 PUSH2 0x1B63 JUMP JUMPDEST PUSH2 0x1BA3 SWAP1 DUP3 PUSH0 MSTORE PUSH1 0x1 PUSH1 0x1F PUSH1 0x20 PUSH0 KECCAK256 SWAP3 ADD PUSH1 0x5 SHR DUP3 ADD SWAP2 ADD PUSH2 0x2646 JUMP JUMPDEST DUP1 PUSH0 MSTORE PUSH0 PUSH1 0x20 DUP2 KECCAK256 DUP2 DUP4 SSTORE SSTORE PUSH2 0x1B80 JUMP JUMPDEST PUSH1 0x2 PUSH1 0x20 PUSH1 0x1 SWAP3 PUSH1 0x40 MLOAD PUSH2 0x1BC7 DUP2 PUSH2 0x22A7 JUMP JUMPDEST PUSH2 0x1BD0 DUP7 PUSH2 0x2387 JUMP JUMPDEST DUP2 MSTORE DUP5 DUP7 ADD SLOAD DUP4 DUP3 ADD MSTORE DUP2 MSTORE ADD SWAP3 ADD SWAP3 ADD SWAP2 SWAP1 PUSH2 0x1A09 JUMP JUMPDEST PUSH1 0x40 MLOAD PUSH3 0x461BCD PUSH1 0xE5 SHL DUP2 MSTORE PUSH1 0x20 PUSH1 0x4 DUP3 ADD MSTORE PUSH1 0xA PUSH1 0x24 DUP3 ADD MSTORE PUSH10 0x456D7074792064617461 PUSH1 0xB0 SHL PUSH1 0x44 DUP3 ADD MSTORE PUSH1 0x64 SWAP1 REVERT JUMPDEST CALLVALUE PUSH2 0x2D1 JUMPI PUSH1 0x20 CALLDATASIZE PUSH1 0x3 NOT ADD SLT PUSH2 0x2D1 JUMPI PUSH1 0x20 PUSH2 0x1C38 PUSH1 0x4 CALLDATALOAD PUSH2 0x29DD JUMP JUMPDEST PUSH1 0x40 MLOAD PUSH1 0x1 PUSH1 0x1 PUSH1 0xA0 SHL SUB SWAP1 SWAP2 AND DUP2 MSTORE RETURN JUMPDEST CALLVALUE PUSH2 0x2D1 JUMPI PUSH1 0x40 CALLDATASIZE PUSH1 0x3 NOT ADD SLT PUSH2 0x2D1 JUMPI PUSH2 0x1C63 PUSH2 0x218E JUMP JUMPDEST PUSH1 0x4 CALLDATALOAD PUSH0 MSTORE PUSH1 0xA PUSH1 0x20 MSTORE PUSH1 0x40 PUSH0 KECCAK256 SWAP1 PUSH1 0x1 DUP1 PUSH1 0xA0 SHL SUB AND PUSH0 MSTORE PUSH1 0x20 MSTORE PUSH1 0x20 PUSH1 0xFF PUSH1 0x40 PUSH0 KECCAK256 SLOAD AND PUSH1 0x40 MLOAD SWAP1 ISZERO ISZERO DUP2 MSTORE RETURN JUMPDEST CALLVALUE PUSH2 0x2D1 JUMPI PUSH2 0x1434 PUSH2 0x1CA4 CALLDATASIZE PUSH2 0x21A4 JUMP JUMPDEST SWAP1 PUSH1 0x40 MLOAD SWAP3 PUSH2 0x1CB4 PUSH1 0x20 DUP6 PUSH2 0x22DD JUMP JUMPDEST PUSH0 DUP5 MSTORE PUSH2 0x142E DUP4 DUP4 DUP4 PUSH2 0x2427 JUMP JUMPDEST CALLVALUE PUSH2 0x2D1 JUMPI PUSH1 0x20 CALLDATASIZE PUSH1 0x3 NOT ADD SLT PUSH2 0x2D1 JUMPI PUSH1 0x4 CALLDATALOAD PUSH0 DUP2 DUP2 MSTORE PUSH1 0x2 PUSH1 0x20 MSTORE PUSH1 0x40 SWAP1 KECCAK256 SLOAD PUSH2 0x1CF8 SWAP1 PUSH1 0x1 PUSH1 0x1 PUSH1 0xA0 SHL SUB AND ISZERO ISZERO PUSH2 0x25B4 JUMP JUMPDEST PUSH0 MSTORE PUSH1 0x9 PUSH1 0x20 MSTORE PUSH1 0x40 PUSH0 KECCAK256 DUP1 SLOAD PUSH2 0x1D0E DUP2 PUSH2 0x25F7 JUMP JUMPDEST SWAP2 PUSH2 0x1D1C PUSH1 0x40 MLOAD SWAP4 DUP5 PUSH2 0x22DD JUMP JUMPDEST DUP2 DUP4 MSTORE PUSH1 0x20 DUP4 ADD SWAP1 PUSH0 MSTORE PUSH1 0x20 PUSH0 KECCAK256 PUSH0 SWAP2 JUMPDEST DUP4 DUP4 LT PUSH2 0x1D4A JUMPI PUSH1 0x40 MLOAD PUSH1 0x20 DUP1 DUP3 MSTORE DUP2 SWAP1 PUSH2 0xC21 SWAP1 DUP3 ADD DUP9 PUSH2 0x21DE JUMP JUMPDEST PUSH1 0x2 PUSH1 0x20 PUSH1 0x1 SWAP3 PUSH1 0x40 MLOAD PUSH2 0x1D5D DUP2 PUSH2 0x22A7 JUMP JUMPDEST PUSH2 0x1D66 DUP7 PUSH2 0x2387 JUMP JUMPDEST DUP2 MSTORE DUP5 DUP7 ADD SLOAD DUP4 DUP3 ADD MSTORE DUP2 MSTORE ADD SWAP3 ADD SWAP3 ADD SWAP2 SWAP1 PUSH2 0x1D2D JUMP JUMPDEST CALLVALUE PUSH2 0x2D1 JUMPI PUSH0 CALLDATASIZE PUSH1 0x3 NOT ADD SLT PUSH2 0x2D1 JUMPI PUSH1 0x7 SLOAD PUSH1 0x40 MLOAD PUSH1 0x1 PUSH1 0x1 PUSH1 0xA0 SHL SUB SWAP1 SWAP2 AND DUP2 MSTORE PUSH1 0x20 SWAP1 RETURN JUMPDEST CALLVALUE PUSH2 0x2D1 JUMPI PUSH2 0x1434 PUSH2 0x1DB7 CALLDATASIZE PUSH2 0x21A4 JUMP JUMPDEST SWAP2 PUSH2 0x2427 JUMP JUMPDEST CALLVALUE PUSH2 0x2D1 JUMPI PUSH1 0x20 CALLDATASIZE PUSH1 0x3 NOT ADD SLT PUSH2 0x2D1 JUMPI PUSH1 0x4 CALLDATALOAD PUSH0 MSTORE PUSH1 0xB PUSH1 0x20 MSTORE PUSH1 0x40 PUSH0 KECCAK256 PUSH1 0x40 MLOAD DUP1 PUSH1 0x20 DUP4 SLOAD SWAP2 DUP3 DUP2 MSTORE ADD SWAP1 DUP2 SWAP4 PUSH0 MSTORE PUSH1 0x20 PUSH0 KECCAK256 SWAP1 PUSH0 JUMPDEST DUP2 DUP2 LT PUSH2 0x1E56 JUMPI POP POP POP DUP2 PUSH2 0x1E0B SWAP2 SUB DUP3 PUSH2 0x22DD JUMP JUMPDEST PUSH1 0x40 MLOAD SWAP2 DUP3 SWAP2 PUSH1 0x20 DUP4 ADD SWAP1 PUSH1 0x20 DUP5 MSTORE MLOAD DUP1 SWAP2 MSTORE PUSH1 0x40 DUP4 ADD SWAP2 SWAP1 PUSH0 JUMPDEST DUP2 DUP2 LT PUSH2 0x1E34 JUMPI POP POP POP SUB SWAP1 RETURN JUMPDEST DUP3 MLOAD PUSH1 0x1 PUSH1 0x1 PUSH1 0xA0 SHL SUB AND DUP5 MSTORE DUP6 SWAP5 POP PUSH1 0x20 SWAP4 DUP5 ADD SWAP4 SWAP1 SWAP3 ADD SWAP2 PUSH1 0x1 ADD PUSH2 0x1E26 JUMP JUMPDEST DUP3 SLOAD PUSH1 0x1 PUSH1 0x1 PUSH1 0xA0 SHL SUB AND DUP5 MSTORE PUSH1 0x20 SWAP1 SWAP4 ADD SWAP3 PUSH1 0x1 SWAP3 DUP4 ADD SWAP3 ADD PUSH2 0x1DF5 JUMP JUMPDEST CALLVALUE PUSH2 0x2D1 JUMPI PUSH1 0x20 CALLDATASIZE PUSH1 0x3 NOT ADD SLT PUSH2 0x2D1 JUMPI PUSH1 0x1 PUSH1 0x1 PUSH1 0xA0 SHL SUB PUSH2 0x1E96 PUSH2 0x2178 JUMP JUMPDEST AND PUSH0 MSTORE PUSH1 0x8 PUSH1 0x20 MSTORE PUSH1 0x20 PUSH1 0x1 DUP1 PUSH1 0xA0 SHL SUB PUSH1 0x40 PUSH0 KECCAK256 SLOAD AND PUSH1 0x40 MLOAD SWAP1 DUP2 MSTORE RETURN JUMPDEST CALLVALUE PUSH2 0x2D1 JUMPI PUSH1 0x40 CALLDATASIZE PUSH1 0x3 NOT ADD SLT PUSH2 0x2D1 JUMPI PUSH2 0x1ECE PUSH2 0x2178 JUMP JUMPDEST PUSH1 0x24 CALLDATALOAD PUSH2 0x1EDA DUP2 PUSH2 0x29DD JUMP JUMPDEST CALLER ISZERO ISZERO DUP1 PUSH2 0x1F8C JUMPI JUMPDEST DUP1 PUSH2 0x1F5F JUMPI JUMPDEST PUSH2 0x1F4C JUMPI DUP2 SWAP1 PUSH1 0x1 PUSH1 0x1 PUSH1 0xA0 SHL SUB DUP5 DUP2 AND SWAP2 AND PUSH32 0x8C5BE1E5EBEC7D5BD14F71427D1E84F3DD0314C0F7B2291E5B200AC8C7C3B925 PUSH0 DUP1 LOG4 PUSH0 SWAP1 DUP2 MSTORE PUSH1 0x4 PUSH1 0x20 MSTORE PUSH1 0x40 SWAP1 KECCAK256 DUP1 SLOAD PUSH1 0x1 PUSH1 0x1 PUSH1 0xA0 SHL SUB NOT AND PUSH1 0x1 PUSH1 0x1 PUSH1 0xA0 SHL SUB SWAP1 SWAP3 AND SWAP2 SWAP1 SWAP2 OR SWAP1 SSTORE STOP JUMPDEST PUSH4 0xA9FBF51F PUSH1 0xE0 SHL PUSH0 MSTORE CALLER PUSH1 0x4 MSTORE PUSH1 0x24 PUSH0 REVERT JUMPDEST POP PUSH1 0x1 PUSH1 0x1 PUSH1 0xA0 SHL SUB DUP2 AND PUSH0 SWAP1 DUP2 MSTORE PUSH1 0x5 PUSH1 0x20 SWAP1 DUP2 MSTORE PUSH1 0x40 DUP1 DUP4 KECCAK256 CALLER DUP5 MSTORE SWAP1 SWAP2 MSTORE SWAP1 KECCAK256 SLOAD PUSH1 0xFF AND ISZERO PUSH2 0x1EE9 JUMP JUMPDEST POP PUSH1 0x1 PUSH1 0x1 PUSH1 0xA0 SHL SUB DUP2 AND CALLER EQ ISZERO PUSH2 0x1EE3 JUMP JUMPDEST CALLVALUE PUSH2 0x2D1 JUMPI PUSH1 0x20 CALLDATASIZE PUSH1 0x3 NOT ADD SLT PUSH2 0x2D1 JUMPI PUSH1 0x4 CALLDATALOAD PUSH2 0x1FBC DUP2 PUSH2 0x29DD JUMP JUMPDEST POP PUSH0 MSTORE PUSH1 0x4 PUSH1 0x20 MSTORE PUSH1 0x20 PUSH1 0x1 DUP1 PUSH1 0xA0 SHL SUB PUSH1 0x40 PUSH0 KECCAK256 SLOAD AND PUSH1 0x40 MLOAD SWAP1 DUP2 MSTORE RETURN JUMPDEST CALLVALUE PUSH2 0x2D1 JUMPI PUSH0 CALLDATASIZE PUSH1 0x3 NOT ADD SLT PUSH2 0x2D1 JUMPI PUSH1 0x40 MLOAD PUSH0 PUSH0 SLOAD PUSH2 0x1FFA DUP2 PUSH2 0x234F JUMP JUMPDEST DUP1 DUP5 MSTORE SWAP1 PUSH1 0x1 DUP2 AND SWAP1 DUP2 ISZERO PUSH2 0x1623 JUMPI POP PUSH1 0x1 EQ PUSH2 0x2021 JUMPI PUSH2 0xC21 DUP4 PUSH2 0xC0D DUP2 DUP6 SUB DUP3 PUSH2 0x22DD JUMP JUMPDEST PUSH0 DUP1 DUP1 MSTORE PUSH32 0x290DECD9548B62A8D60345A988386FC84BA6BC95484008F6362F93160EF3E563 SWAP4 SWAP3 POP SWAP1 JUMPDEST DUP1 DUP3 LT PUSH2 0x2063 JUMPI POP SWAP1 SWAP2 POP DUP2 ADD PUSH1 0x20 ADD PUSH2 0xC0D PUSH2 0x15B5 JUMP JUMPDEST SWAP2 SWAP3 PUSH1 0x1 DUP2 PUSH1 0x20 SWAP3 SLOAD DUP4 DUP6 DUP9 ADD ADD MSTORE ADD SWAP2 ADD SWAP1 SWAP3 SWAP2 PUSH2 0x204B JUMP JUMPDEST CALLVALUE PUSH2 0x2D1 JUMPI PUSH1 0x40 CALLDATASIZE PUSH1 0x3 NOT ADD SLT PUSH2 0x2D1 JUMPI PUSH1 0x4 CALLDATALOAD PUSH2 0x2099 PUSH2 0x29B6 JUMP JUMPDEST PUSH0 SWAP1 DUP2 MSTORE PUSH1 0xC PUSH1 0x20 MSTORE PUSH1 0x40 SWAP1 KECCAK256 PUSH1 0x24 CALLDATALOAD PUSH1 0x3 DUP3 ADD SSTORE TIMESTAMP PUSH1 0x6 SWAP1 SWAP2 ADD SSTORE STOP JUMPDEST CALLVALUE PUSH2 0x2D1 JUMPI PUSH1 0x20 CALLDATASIZE PUSH1 0x3 NOT ADD SLT PUSH2 0x2D1 JUMPI PUSH1 0x4 CALLDATALOAD SWAP1 PUSH4 0xFFFFFFFF PUSH1 0xE0 SHL DUP3 AND DUP1 SWAP3 SUB PUSH2 0x2D1 JUMPI PUSH1 0x20 SWAP2 PUSH4 0x15D8811B PUSH1 0xE2 SHL DUP2 EQ SWAP1 DUP2 ISZERO PUSH2 0x2143 JUMPI JUMPDEST DUP2 ISZERO PUSH2 0x2100 JUMPI JUMPDEST POP ISZERO ISZERO DUP2 MSTORE RETURN JUMPDEST PUSH4 0x80AC58CD PUSH1 0xE0 SHL DUP2 EQ SWAP2 POP DUP2 ISZERO PUSH2 0x2132 JUMPI JUMPDEST DUP2 ISZERO PUSH2 0x2121 JUMPI JUMPDEST POP DUP4 PUSH2 0x20F9 JUMP JUMPDEST PUSH4 0x1FFC9A7 PUSH1 0xE0 SHL EQ SWAP1 POP DUP4 PUSH2 0x211A JUMP JUMPDEST PUSH4 0x5B5E139F PUSH1 0xE0 SHL DUP2 EQ SWAP2 POP PUSH2 0x2113 JUMP JUMPDEST PUSH4 0x1184D5CB PUSH1 0xE1 SHL DUP2 EQ SWAP2 POP PUSH2 0x20F2 JUMP JUMPDEST DUP1 MLOAD DUP1 DUP4 MSTORE PUSH1 0x20 SWAP3 SWAP2 DUP2 SWAP1 DUP5 ADD DUP5 DUP5 ADD MCOPY PUSH0 DUP3 DUP3 ADD DUP5 ADD MSTORE PUSH1 0x1F ADD PUSH1 0x1F NOT AND ADD ADD SWAP1 JUMP JUMPDEST PUSH1 0x4 CALLDATALOAD SWAP1 PUSH1 0x1 PUSH1 0x1 PUSH1 0xA0 SHL SUB DUP3 AND DUP3 SUB PUSH2 0x2D1 JUMPI JUMP JUMPDEST PUSH1 0x24 CALLDATALOAD SWAP1 PUSH1 0x1 PUSH1 0x1 PUSH1 0xA0 SHL SUB DUP3 AND DUP3 SUB PUSH2 0x2D1 JUMPI JUMP JUMPDEST PUSH1 0x60 SWAP1 PUSH1 0x3 NOT ADD SLT PUSH2 0x2D1 JUMPI PUSH1 0x4 CALLDATALOAD PUSH1 0x1 PUSH1 0x1 PUSH1 0xA0 SHL SUB DUP2 AND DUP2 SUB PUSH2 0x2D1 JUMPI SWAP1 PUSH1 0x24 CALLDATALOAD PUSH1 0x1 PUSH1 0x1 PUSH1 0xA0 SHL SUB DUP2 AND DUP2 SUB PUSH2 0x2D1 JUMPI SWAP1 PUSH1 0x44 CALLDATALOAD SWAP1 JUMP JUMPDEST SWAP1 DUP1 PUSH1 0x20 DUP4 MLOAD SWAP2 DUP3 DUP2 MSTORE ADD SWAP2 PUSH1 0x20 DUP1 DUP4 PUSH1 0x5 SHL DUP4 ADD ADD SWAP5 ADD SWAP3 PUSH0 SWAP2 JUMPDEST DUP4 DUP4 LT PUSH2 0x2209 JUMPI POP POP POP POP POP SWAP1 JUMP JUMPDEST SWAP1 SWAP2 SWAP3 SWAP4 SWAP5 PUSH1 0x20 DUP1 PUSH1 0x1 SWAP3 PUSH1 0x1F NOT DUP6 DUP3 SUB ADD DUP7 MSTORE DUP9 MLOAD SWAP1 DUP3 DUP1 PUSH2 0x2235 DUP5 MLOAD PUSH1 0x40 DUP6 MSTORE PUSH1 0x40 DUP6 ADD SWAP1 PUSH2 0x2154 JUMP JUMPDEST SWAP4 ADD MLOAD SWAP2 ADD MSTORE SWAP8 ADD SWAP4 ADD SWAP4 ADD SWAP2 SWAP4 SWAP3 SWAP1 PUSH2 0x21FA JUMP JUMPDEST SWAP2 DUP2 PUSH1 0x1F DUP5 ADD SLT ISZERO PUSH2 0x2D1 JUMPI DUP3 CALLDATALOAD SWAP2 PUSH1 0x1 PUSH1 0x1 PUSH1 0x40 SHL SUB DUP4 GT PUSH2 0x2D1 JUMPI PUSH1 0x20 DUP1 DUP6 ADD SWAP5 DUP5 PUSH1 0x5 SHL ADD ADD GT PUSH2 0x2D1 JUMPI JUMP JUMPDEST SWAP2 DUP2 PUSH1 0x1F DUP5 ADD SLT ISZERO PUSH2 0x2D1 JUMPI DUP3 CALLDATALOAD SWAP2 PUSH1 0x1 PUSH1 0x1 PUSH1 0x40 SHL SUB DUP4 GT PUSH2 0x2D1 JUMPI PUSH1 0x20 DUP4 DUP2 DUP7 ADD SWAP6 ADD ADD GT PUSH2 0x2D1 JUMPI JUMP JUMPDEST PUSH1 0x40 DUP2 ADD SWAP1 DUP2 LT PUSH1 0x1 PUSH1 0x1 PUSH1 0x40 SHL SUB DUP3 GT OR PUSH2 0x283 JUMPI PUSH1 0x40 MSTORE JUMP JUMPDEST PUSH1 0xE0 DUP2 ADD SWAP1 DUP2 LT PUSH1 0x1 PUSH1 0x1 PUSH1 0x40 SHL SUB DUP3 GT OR PUSH2 0x283 JUMPI PUSH1 0x40 MSTORE JUMP JUMPDEST SWAP1 PUSH1 0x1F DUP1 NOT SWAP2 ADD AND DUP2 ADD SWAP1 DUP2 LT PUSH1 0x1 PUSH1 0x1 PUSH1 0x40 SHL SUB DUP3 GT OR PUSH2 0x283 JUMPI PUSH1 0x40 MSTORE JUMP JUMPDEST PUSH1 0x1 PUSH1 0x1 PUSH1 0x40 SHL SUB DUP2 GT PUSH2 0x283 JUMPI PUSH1 0x1F ADD PUSH1 0x1F NOT AND PUSH1 0x20 ADD SWAP1 JUMP JUMPDEST SWAP3 SWAP2 SWAP3 PUSH2 0x2325 DUP3 PUSH2 0x22FE JUMP JUMPDEST SWAP2 PUSH2 0x2333 PUSH1 0x40 MLOAD SWAP4 DUP5 PUSH2 0x22DD JUMP JUMPDEST DUP3 SWAP5 DUP2 DUP5 MSTORE DUP2 DUP4 ADD GT PUSH2 0x2D1 JUMPI DUP3 DUP2 PUSH1 0x20 SWAP4 DUP5 PUSH0 SWAP7 ADD CALLDATACOPY ADD ADD MSTORE JUMP JUMPDEST SWAP1 PUSH1 0x1 DUP3 DUP2 SHR SWAP3 AND DUP1 ISZERO PUSH2 0x237D JUMPI JUMPDEST PUSH1 0x20 DUP4 LT EQ PUSH2 0x2369 JUMPI JUMP JUMPDEST PUSH4 0x4E487B71 PUSH1 0xE0 SHL PUSH0 MSTORE PUSH1 0x22 PUSH1 0x4 MSTORE PUSH1 0x24 PUSH0 REVERT JUMPDEST SWAP2 PUSH1 0x7F AND SWAP2 PUSH2 0x235E JUMP JUMPDEST SWAP1 PUSH1 0x40 MLOAD SWAP2 DUP3 PUSH0 DUP3 SLOAD SWAP3 PUSH2 0x239A DUP5 PUSH2 0x234F JUMP JUMPDEST DUP1 DUP5 MSTORE SWAP4 PUSH1 0x1 DUP2 AND SWAP1 DUP2 ISZERO PUSH2 0x2405 JUMPI POP PUSH1 0x1 EQ PUSH2 0x23C1 JUMPI JUMPDEST POP PUSH2 0x23BF SWAP3 POP SUB DUP4 PUSH2 0x22DD JUMP JUMPDEST JUMP JUMPDEST SWAP1 POP PUSH0 SWAP3 SWAP2 SWAP3 MSTORE PUSH1 0x20 PUSH0 KECCAK256 SWAP1 PUSH0 SWAP2 JUMPDEST DUP2 DUP4 LT PUSH2 0x23E9 JUMPI POP POP SWAP1 PUSH1 0x20 PUSH2 0x23BF SWAP3 DUP3 ADD ADD PUSH0 PUSH2 0x23B2 JUMP JUMPDEST PUSH1 0x20 SWAP2 SWAP4 POP DUP1 PUSH1 0x1 SWAP2 SLOAD DUP4 DUP6 DUP10 ADD ADD MSTORE ADD SWAP2 ADD SWAP1 SWAP2 DUP5 SWAP3 PUSH2 0x23D0 JUMP JUMPDEST SWAP1 POP PUSH1 0x20 SWAP3 POP PUSH2 0x23BF SWAP5 SWAP2 POP PUSH1 0xFF NOT AND DUP3 DUP5 ADD MSTORE ISZERO ISZERO PUSH1 0x5 SHL DUP3 ADD ADD PUSH0 PUSH2 0x23B2 JUMP JUMPDEST PUSH1 0x1 PUSH1 0x1 PUSH1 0xA0 SHL SUB SWAP1 SWAP2 AND SWAP2 SWAP1 DUP3 ISZERO PUSH2 0x13B6 JUMPI PUSH0 DUP3 DUP2 MSTORE PUSH1 0x2 PUSH1 0x20 MSTORE PUSH1 0x40 SWAP1 KECCAK256 SLOAD PUSH1 0x1 PUSH1 0x1 PUSH1 0xA0 SHL SUB AND SWAP3 DUP3 SWAP1 CALLER ISZERO ISZERO DUP1 PUSH2 0x251F JUMPI JUMPDEST POP DUP5 PUSH2 0x24EC JUMPI JUMPDEST DUP1 PUSH0 MSTORE PUSH1 0x3 PUSH1 0x20 MSTORE PUSH1 0x40 PUSH0 KECCAK256 PUSH1 0x1 DUP2 SLOAD ADD SWAP1 SSTORE DUP2 PUSH0 MSTORE PUSH1 0x2 PUSH1 0x20 MSTORE PUSH1 0x40 PUSH0 KECCAK256 DUP2 PUSH12 0xFFFFFFFFFFFFFFFFFFFFFFFF PUSH1 0xA0 SHL DUP3 SLOAD AND OR SWAP1 SSTORE DUP5 PUSH32 0xDDF252AD1BE2C89B69C2B068FC378DAA952BA7F163C4A11628F55A4DF523B3EF PUSH0 DUP1 LOG4 PUSH1 0x1 PUSH1 0x1 PUSH1 0xA0 SHL SUB AND DUP1 DUP4 SUB PUSH2 0x24D4 JUMPI POP POP POP JUMP JUMPDEST PUSH4 0x64283D7B PUSH1 0xE0 SHL PUSH0 MSTORE PUSH1 0x4 MSTORE PUSH1 0x24 MSTORE PUSH1 0x44 MSTORE PUSH1 0x64 PUSH0 REVERT JUMPDEST PUSH0 DUP3 DUP2 MSTORE PUSH1 0x4 PUSH1 0x20 MSTORE PUSH1 0x40 SWAP1 KECCAK256 DUP1 SLOAD PUSH1 0x1 PUSH1 0x1 PUSH1 0xA0 SHL SUB NOT AND SWAP1 SSTORE DUP5 PUSH0 MSTORE PUSH1 0x3 PUSH1 0x20 MSTORE PUSH1 0x40 PUSH0 KECCAK256 PUSH0 NOT DUP2 SLOAD ADD SWAP1 SSTORE PUSH2 0x2464 JUMP JUMPDEST SWAP1 SWAP2 POP DUP1 PUSH2 0x2563 JUMPI JUMPDEST ISZERO PUSH2 0x2535 JUMPI DUP3 SWAP1 PUSH0 PUSH2 0x245D JUMP JUMPDEST DUP3 DUP5 PUSH2 0x254D JUMPI PUSH4 0x7E273289 PUSH1 0xE0 SHL PUSH0 MSTORE PUSH1 0x4 MSTORE PUSH1 0x24 PUSH0 REVERT JUMPDEST PUSH4 0x177E802F PUSH1 0xE0 SHL PUSH0 MSTORE CALLER PUSH1 0x4 MSTORE PUSH1 0x24 MSTORE PUSH1 0x44 PUSH0 REVERT JUMPDEST POP CALLER DUP5 EQ DUP1 ISZERO PUSH2 0x2592 JUMPI JUMPDEST DUP1 PUSH2 0x2528 JUMPI POP PUSH0 DUP4 DUP2 MSTORE PUSH1 0x4 PUSH1 0x20 MSTORE PUSH1 0x40 SWAP1 KECCAK256 SLOAD PUSH1 0x1 PUSH1 0x1 PUSH1 0xA0 SHL SUB AND CALLER EQ PUSH2 0x2528 JUMP JUMPDEST POP PUSH0 DUP5 DUP2 MSTORE PUSH1 0x5 PUSH1 0x20 SWAP1 DUP2 MSTORE PUSH1 0x40 DUP1 DUP4 KECCAK256 CALLER DUP5 MSTORE SWAP1 SWAP2 MSTORE SWAP1 KECCAK256 SLOAD PUSH1 0xFF AND PUSH2 0x256E JUMP JUMPDEST ISZERO PUSH2 0x25BB JUMPI JUMP JUMPDEST PUSH1 0x40 MLOAD PUSH3 0x461BCD PUSH1 0xE5 SHL DUP2 MSTORE PUSH1 0x20 PUSH1 0x4 DUP3 ADD MSTORE PUSH1 0x14 PUSH1 0x24 DUP3 ADD MSTORE PUSH20 0x151BDAD95B88191BD95CC81B9BDD08195E1A5CDD PUSH1 0x62 SHL PUSH1 0x44 DUP3 ADD MSTORE PUSH1 0x64 SWAP1 REVERT JUMPDEST PUSH1 0x1 PUSH1 0x1 PUSH1 0x40 SHL SUB DUP2 GT PUSH2 0x283 JUMPI PUSH1 0x5 SHL PUSH1 0x20 ADD SWAP1 JUMP JUMPDEST ISZERO PUSH2 0x2615 JUMPI JUMP JUMPDEST PUSH1 0x40 MLOAD PUSH3 0x461BCD PUSH1 0xE5 SHL DUP2 MSTORE PUSH1 0x20 PUSH1 0x4 DUP3 ADD MSTORE PUSH1 0x9 PUSH1 0x24 DUP3 ADD MSTORE PUSH9 0x2737BA1037BBB732B9 PUSH1 0xB9 SHL PUSH1 0x44 DUP3 ADD MSTORE PUSH1 0x64 SWAP1 REVERT JUMPDEST DUP2 DUP2 LT PUSH2 0x2651 JUMPI POP POP JUMP JUMPDEST PUSH0 DUP2 SSTORE PUSH1 0x1 ADD PUSH2 0x2646 JUMP JUMPDEST SWAP2 SWAP1 DUP2 LT ISZERO PUSH2 0x267E JUMPI PUSH1 0x5 SHL DUP2 ADD CALLDATALOAD SWAP1 PUSH1 0x3E NOT DUP2 CALLDATASIZE SUB ADD DUP3 SLT ISZERO PUSH2 0x2D1 JUMPI ADD SWAP1 JUMP JUMPDEST PUSH4 0x4E487B71 PUSH1 0xE0 SHL PUSH0 MSTORE PUSH1 0x32 PUSH1 0x4 MSTORE PUSH1 0x24 PUSH0 REVERT JUMPDEST DUP1 SLOAD ISZERO PUSH2 0x267E JUMPI PUSH0 MSTORE PUSH1 0x20 PUSH0 KECCAK256 SWAP1 PUSH0 SWAP1 JUMP JUMPDEST DUP1 SLOAD DUP3 LT ISZERO PUSH2 0x267E JUMPI PUSH0 MSTORE PUSH1 0x20 PUSH0 KECCAK256 SWAP1 PUSH1 0x1 SHL ADD SWAP1 PUSH0 SWAP1 JUMP JUMPDEST SWAP2 SWAP1 PUSH1 0x1F DUP2 GT PUSH2 0x26CC JUMPI POP POP POP JUMP JUMPDEST PUSH2 0x23BF SWAP3 PUSH0 MSTORE PUSH1 0x20 PUSH0 KECCAK256 SWAP1 PUSH1 0x20 PUSH1 0x1F DUP5 ADD PUSH1 0x5 SHR DUP4 ADD SWAP4 LT PUSH2 0x26F6 JUMPI JUMPDEST PUSH1 0x1F ADD PUSH1 0x5 SHR ADD SWAP1 PUSH2 0x2646 JUMP JUMPDEST SWAP1 SWAP2 POP DUP2 SWAP1 PUSH2 0x26E9 JUMP JUMPDEST DUP1 SLOAD PUSH1 0x1 PUSH1 0x40 SHL DUP2 LT ISZERO PUSH2 0x283 JUMPI PUSH2 0x271D SWAP2 PUSH1 0x1 DUP3 ADD DUP2 SSTORE PUSH2 0x26A4 JUMP JUMPDEST SWAP2 SWAP1 SWAP2 PUSH2 0x281E JUMPI DUP1 CALLDATALOAD PUSH1 0x1E NOT DUP3 CALLDATASIZE SUB ADD DUP2 SLT ISZERO PUSH2 0x2D1 JUMPI DUP2 ADD DUP1 CALLDATALOAD SWAP1 PUSH1 0x1 PUSH1 0x1 PUSH1 0x40 SHL SUB DUP3 GT PUSH2 0x2D1 JUMPI DUP2 CALLDATASIZE SUB PUSH1 0x20 DUP3 ADD SGT PUSH2 0x2D1 JUMPI PUSH2 0x2767 DUP3 PUSH2 0x2761 DUP7 SLOAD PUSH2 0x234F JUMP JUMPDEST DUP7 PUSH2 0x26BD JUMP JUMPDEST PUSH0 SWAP1 PUSH1 0x1F DUP4 GT PUSH1 0x1 EQ PUSH2 0x27B1 JUMPI DUP3 PUSH1 0x20 SWAP4 PUSH1 0x1 SWAP6 SWAP4 PUSH2 0x279A SWAP4 PUSH0 SWAP3 PUSH2 0x27A4 JUMPI POP POP DUP2 PUSH1 0x1 SHL SWAP2 PUSH0 NOT SWAP1 PUSH1 0x3 SHL SHR NOT AND OR SWAP1 JUMP JUMPDEST DUP5 SSTORE JUMPDEST ADD CALLDATALOAD SWAP2 ADD SSTORE JUMP JUMPDEST DUP7 SWAP3 POP ADD ADD CALLDATALOAD PUSH0 DUP1 PUSH2 0xF82 JUMP JUMPDEST PUSH1 0x1F NOT DUP4 AND SWAP2 DUP6 PUSH0 MSTORE PUSH1 0x20 PUSH0 KECCAK256 SWAP3 PUSH0 JUMPDEST DUP2 DUP2 LT PUSH2 0x2804 JUMPI POP SWAP3 PUSH1 0x1 SWAP6 SWAP4 SWAP3 DUP6 SWAP3 PUSH1 0x20 SWAP7 DUP9 SWAP6 LT PUSH2 0x27E9 JUMPI JUMPDEST POP POP POP DUP2 SHL ADD DUP5 SSTORE PUSH2 0x279D JUMP JUMPDEST ADD DUP6 ADD CALLDATALOAD PUSH0 NOT PUSH1 0x3 DUP5 SWAP1 SHL PUSH1 0xF8 AND SHR NOT AND SWAP1 SSTORE PUSH0 DUP1 DUP1 PUSH2 0x27DC JUMP JUMPDEST SWAP2 SWAP4 PUSH1 0x20 PUSH1 0x1 DUP2 SWAP3 DUP3 DUP9 DUP9 ADD ADD CALLDATALOAD DUP2 SSTORE ADD SWAP6 ADD SWAP3 ADD PUSH2 0x27C1 JUMP JUMPDEST PUSH4 0x4E487B71 PUSH1 0xE0 SHL PUSH0 MSTORE PUSH0 PUSH1 0x4 MSTORE PUSH1 0x24 PUSH0 REVERT JUMPDEST SWAP1 CALLDATALOAD PUSH1 0x1E NOT DUP3 CALLDATASIZE SUB ADD DUP2 SLT ISZERO PUSH2 0x2D1 JUMPI ADD PUSH1 0x20 DUP2 CALLDATALOAD SWAP2 ADD SWAP2 PUSH1 0x1 PUSH1 0x1 PUSH1 0x40 SHL SUB DUP3 GT PUSH2 0x2D1 JUMPI DUP2 CALLDATASIZE SUB DUP4 SGT PUSH2 0x2D1 JUMPI JUMP JUMPDEST SWAP1 DUP1 PUSH1 0x20 SWAP4 SWAP3 DUP2 DUP5 MSTORE DUP5 DUP5 ADD CALLDATACOPY PUSH0 DUP3 DUP3 ADD DUP5 ADD MSTORE PUSH1 0x1F ADD PUSH1 0x1F NOT AND ADD ADD SWAP1 JUMP JUMPDEST SWAP1 CALLDATALOAD PUSH1 0x3E NOT DUP3 CALLDATASIZE SUB ADD DUP2 SLT ISZERO PUSH2 0x2D1 JUMPI ADD SWAP1 JUMP JUMPDEST ISZERO PUSH2 0x289D JUMPI JUMP JUMPDEST PUSH1 0x40 MLOAD PUSH3 0x461BCD PUSH1 0xE5 SHL DUP2 MSTORE PUSH1 0x20 PUSH1 0x4 DUP3 ADD MSTORE PUSH1 0xC PUSH1 0x24 DUP3 ADD MSTORE PUSH12 0x5A65726F2061646472657373 PUSH1 0xA0 SHL PUSH1 0x44 DUP3 ADD MSTORE PUSH1 0x64 SWAP1 REVERT JUMPDEST PUSH0 NOT DUP2 EQ PUSH2 0xD81 JUMPI PUSH1 0x1 ADD SWAP1 JUMP JUMPDEST DUP1 SLOAD DUP3 LT ISZERO PUSH2 0x267E JUMPI PUSH0 MSTORE PUSH1 0x20 PUSH0 KECCAK256 ADD SWAP1 PUSH0 SWAP1 JUMP JUMPDEST PUSH2 0x28FD DUP2 PUSH2 0x29DD JUMP JUMPDEST POP PUSH0 MSTORE PUSH1 0x9 PUSH1 0x20 MSTORE PUSH1 0x40 PUSH0 KECCAK256 DUP1 SLOAD ISZERO ISZERO DUP1 PUSH2 0x2941 JUMPI JUMPDEST PUSH2 0x292C JUMPI POP PUSH1 0x40 MLOAD PUSH2 0x2926 PUSH1 0x20 DUP3 PUSH2 0x22DD JUMP JUMPDEST PUSH0 DUP2 MSTORE SWAP1 JUMP JUMPDEST PUSH2 0x2938 PUSH2 0x293E SWAP2 PUSH2 0x2692 JUMP JUMPDEST POP PUSH2 0x2387 JUMP JUMPDEST SWAP1 JUMP JUMPDEST POP PUSH2 0x2955 PUSH2 0x294E DUP3 PUSH2 0x2692 JUMP JUMPDEST POP SLOAD PUSH2 0x234F JUMP JUMPDEST ISZERO ISZERO PUSH2 0x2913 JUMP JUMPDEST DUP2 PUSH1 0x1F DUP3 ADD SLT ISZERO PUSH2 0x2D1 JUMPI DUP1 MLOAD SWAP1 PUSH2 0x2973 DUP3 PUSH2 0x22FE JUMP JUMPDEST SWAP3 PUSH2 0x2981 PUSH1 0x40 MLOAD SWAP5 DUP6 PUSH2 0x22DD JUMP JUMPDEST DUP3 DUP5 MSTORE PUSH1 0x20 DUP4 DUP4 ADD ADD GT PUSH2 0x2D1 JUMPI DUP2 PUSH0 SWAP3 PUSH1 0x20 DUP1 SWAP4 ADD DUP4 DUP7 ADD MCOPY DUP4 ADD ADD MSTORE SWAP1 JUMP JUMPDEST DUP1 MLOAD DUP3 LT ISZERO PUSH2 0x267E JUMPI PUSH1 0x20 SWAP2 PUSH1 0x5 SHL ADD ADD SWAP1 JUMP JUMPDEST PUSH1 0x6 SLOAD PUSH1 0x1 PUSH1 0x1 PUSH1 0xA0 SHL SUB AND CALLER SUB PUSH2 0x29CA JUMPI JUMP JUMPDEST PUSH4 0x118CDAA7 PUSH1 0xE0 SHL PUSH0 MSTORE CALLER PUSH1 0x4 MSTORE PUSH1 0x24 PUSH0 REVERT JUMPDEST PUSH0 DUP2 DUP2 MSTORE PUSH1 0x2 PUSH1 0x20 MSTORE PUSH1 0x40 SWAP1 KECCAK256 SLOAD PUSH1 0x1 PUSH1 0x1 PUSH1 0xA0 SHL SUB AND SWAP1 DUP2 ISZERO PUSH2 0x29FF JUMPI POP SWAP1 JUMP JUMPDEST PUSH4 0x7E273289 PUSH1 0xE0 SHL PUSH0 MSTORE PUSH1 0x4 MSTORE PUSH1 0x24 PUSH0 REVERT JUMPDEST PUSH0 DUP3 DUP2 MSTORE PUSH1 0x2 PUSH1 0x20 MSTORE PUSH1 0x40 SWAP1 KECCAK256 SLOAD PUSH1 0x1 PUSH1 0x1 PUSH1 0xA0 SHL SUB AND SWAP2 SWAP1 DUP3 PUSH2 0x2AA2 JUMPI JUMPDEST PUSH1 0x1 PUSH1 0x1 PUSH1 0xA0 SHL SUB AND DUP1 PUSH2 0x2A8A JUMPI JUMPDEST DUP2 PUSH0 MSTORE PUSH1 0x2 PUSH1 0x20 MSTORE PUSH1 0x40 PUSH0 KECCAK256 DUP2 PUSH12 0xFFFFFFFFFFFFFFFFFFFFFFFF PUSH1 0xA0 SHL DUP3 SLOAD AND OR SWAP1 SSTORE DUP3 PUSH32 0xDDF252AD1BE2C89B69C2B068FC378DAA952BA7F163C4A11628F55A4DF523B3EF PUSH0 DUP1 LOG4 SWAP1 JUMP JUMPDEST DUP1 PUSH0 MSTORE PUSH1 0x3 PUSH1 0x20 MSTORE PUSH1 0x40 PUSH0 KECCAK256 PUSH1 0x1 DUP2 SLOAD ADD SWAP1 SSTORE PUSH2 0x2A3F JUMP JUMPDEST PUSH0 DUP3 DUP2 MSTORE PUSH1 0x4 PUSH1 0x20 MSTORE PUSH1 0x40 SWAP1 KECCAK256 DUP1 SLOAD PUSH1 0x1 PUSH1 0x1 PUSH1 0xA0 SHL SUB NOT AND SWAP1 SSTORE DUP3 PUSH0 MSTORE PUSH1 0x3 PUSH1 0x20 MSTORE PUSH1 0x40 PUSH0 KECCAK256 PUSH0 NOT DUP2 SLOAD ADD SWAP1 SSTORE PUSH2 0x2A30 JUMP JUMPDEST DUP3 EXTCODESIZE PUSH2 0x2AE3 JUMPI JUMPDEST POP POP POP POP POP JUMP JUMPDEST PUSH1 0x40 MLOAD PUSH4 0xA85BD01 PUSH1 0xE1 SHL DUP2 MSTORE PUSH1 0x1 PUSH1 0x1 PUSH1 0xA0 SHL SUB SWAP2 DUP3 AND PUSH1 0x4 DUP3 ADD MSTORE SWAP2 DUP2 AND PUSH1 0x24 DUP4 ADD MSTORE PUSH1 0x44 DUP3 ADD SWAP4 SWAP1 SWAP4 MSTORE PUSH1 0x80 PUSH1 0x64 DUP3 ADD MSTORE SWAP2 AND SWAP2 PUSH1 0x20 SWAP1 DUP3 SWAP1 DUP2 SWAP1 PUSH2 0x2B2F SWAP1 PUSH1 0x84 DUP4 ADD SWAP1 PUSH2 0x2154 JUMP JUMPDEST SUB DUP2 PUSH0 DUP7 GAS CALL PUSH0 SWAP2 DUP2 PUSH2 0x2BC6 JUMPI JUMPDEST POP PUSH2 0x2B92 JUMPI POP RETURNDATASIZE ISZERO PUSH2 0x2B8B JUMPI RETURNDATASIZE PUSH2 0x2B53 DUP2 PUSH2 0x22FE JUMP JUMPDEST SWAP1 PUSH2 0x2B61 PUSH1 0x40 MLOAD SWAP3 DUP4 PUSH2 0x22DD JUMP JUMPDEST DUP2 MSTORE RETURNDATASIZE PUSH0 PUSH1 0x20 DUP4 ADD RETURNDATACOPY JUMPDEST DUP1 MLOAD SWAP1 DUP2 PUSH2 0x2B86 JUMPI DUP3 PUSH4 0x32505749 PUSH1 0xE1 SHL PUSH0 MSTORE PUSH1 0x4 MSTORE PUSH1 0x24 PUSH0 REVERT JUMPDEST PUSH1 0x20 ADD REVERT JUMPDEST PUSH1 0x60 PUSH2 0x2B6B JUMP JUMPDEST PUSH1 0x1 PUSH1 0x1 PUSH1 0xE0 SHL SUB NOT AND PUSH4 0x757A42FF PUSH1 0xE1 SHL ADD PUSH2 0x2BB4 JUMPI POP PUSH0 DUP1 DUP1 DUP1 DUP1 PUSH2 0x2ADC JUMP JUMPDEST PUSH4 0x32505749 PUSH1 0xE1 SHL PUSH0 MSTORE PUSH1 0x4 MSTORE PUSH1 0x24 PUSH0 REVERT JUMPDEST SWAP1 SWAP2 POP PUSH1 0x20 DUP2 RETURNDATASIZE PUSH1 0x20 GT PUSH2 0x2C03 JUMPI JUMPDEST DUP2 PUSH2 0x2BE2 PUSH1 0x20 SWAP4 DUP4 PUSH2 0x22DD JUMP JUMPDEST DUP2 ADD SUB SLT PUSH2 0x2D1 JUMPI MLOAD PUSH1 0x1 PUSH1 0x1 PUSH1 0xE0 SHL SUB NOT DUP2 AND DUP2 SUB PUSH2 0x2D1 JUMPI SWAP1 PUSH0 PUSH2 0x2B3D JUMP JUMPDEST RETURNDATASIZE SWAP2 POP PUSH2 0x2BD5 JUMP INVALID LOG2 PUSH5 0x6970667358 0x22 SLT KECCAK256 ADD 0xA5 0x1F 0xE4 NUMBER CALLDATALOAD 0xEE CALL 0xBE PUSH0 JUMPI 0xEC 0x23 DUP14 LOG3 SWAP15 0xE3 0xE0 0x22 DUP9 CALLDATASIZE REVERT 0xC8 SIGNEXTEND 0xC0 0xBC 0xAE 0xE9 SGT DUP7 PUSH25 0xF964736F6C634300081C003300000000000000000000000000 "},"methodIdentifiers":{"approve(address,uint256)":"095ea7b3","authorizeUsage(uint256,address)":"fa83d14e","authorizedUsersOf(uint256)":"1aeb542f","balanceOf(address)":"70a08231","delegateAccess(address)":"98bd57de","getAgentProfile(uint256)":"f098a7ae","getApproved(uint256)":"081812fc","getDelegateAccess(address)":"0e592fdd","iTransferFrom(address,address,uint256,((bytes32,bytes,bytes,bytes),(uint8,bytes32,bytes,bytes,bytes,bytes))[])":"eafcbf9c","intelligentDatasOf(uint256)":"40fbd72f","isApprovedForAll(address,address)":"e985e9c5","isAuthorized(uint256,address)":"609c6d7f","mintAgent(address,string,string,string,(string,bytes32)[])":"bc418075","name()":"06fdde03","owner()":"8da5cb5b","ownerOf(uint256)":"6352211e","recordContribution(uint256)":"f5bc196f","renounceOwnership()":"715018a6","revokeAuthorization(uint256,address)":"c3612ef7","safeTransferFrom(address,address,uint256)":"42842e0e","safeTransferFrom(address,address,uint256,bytes)":"b88d4fde","setApprovalForAll(address,bool)":"a22cb465","supportsInterface(bytes4)":"01ffc9a7","symbol()":"95d89b41","tokenURI(uint256)":"c87b56dd","totalMinted()":"a2309ff8","transferFrom(address,address,uint256)":"23b872dd","transferOwnership(address)":"f2fde38b","updateData(uint256,(string,bytes32)[])":"6bba415c","updateProfile(uint256,string,string)":"88c6a956","updateReputation(uint256,uint256)":"0675f763","verifier()":"2b7ac3f3"}}}}}